:020000040000fa
:080000000c01040000000000e7
:020000040000fa
:10020000a601040000000000980b0400000000009c
:1002100000000400000000008f012100807922000e
:100220000001880000000000050007000c00070026
:100230006c250200000000000040da000000fe0013
:100240004440a900400821000000e0000300320003
:1002500000002000a00188004440a8000000060023
:10026000c077230001002000160037006200400024
:10027000e0804800910188009001ba0062004000cf
:10028000e0804800910188009002ba0062004000be
:10029000e08048000002eb006028e10005003a0021
:1002a0008301e90007003300038009000059eb00d7
:1002b000040037006128e100010032000082eb00f9
:1002c00005000700910188001001ba000200e0005b
:1002d000e6ff3a00000005009101880080027800e6
:1002e00062004000e08048003559ba008301e9000f
:1002f000080032002559ba008301e90005003200e8
:100300000400e000f4ff320015d9ba008301e900cf
:10031000f1ff3a0000000600c1c720002e000700d0
:100320000000e00006003500c1c72000a00020004a
:10033000700007008000eb000000e00001003d00bd
:100340008080eb000100780000000600889fbe005e
:1003500080047800010078000204780089017800a8
:100360001100200089000700880f500001003200b2
:100370008004eb00090078004f04be000000060076
:100380000000fa004fb99700e8815700c1c720006c
:10039000601a2000d30007000080fa000000060069
:1003a000800078001106b100030035009101b10012
:1003b00001003c000050a100000006008000780011
:1003c000010037000000e8001004e000fdff3a00e3
:1003d0000100500000000600889fbe008a9fbe00fa
:1003e00000057800810478002e003700c9009000d5
:1003f00069009000808f50000400390009007800e7
:10040000700107000000e000360035001900780098
:100410004a00de006100600009003200a1002000f7
:100420000a007800aa010700800578000000e000bb
:10043000040032000a0050000004e8000400370005
:10044000800578000a007800dcff070000047800cf
:10045000c90190006900900003005000880f50000f
:1004600002003100000478008005eb0008017800ec
:100470008a007800030078009f0107000805450006
:100480004900900008004000c00498000b00e00004
:100490000400320009007800a00107000000e0001d
:1004a00010003a001a04e000d0ff3a00190078006a
:1004b00000b8a3000400320009007800970107008b
:1004c0000000e00007003a0000c0200019006000b2
:1004d0000500320049009000e00498000000eb00a5
:1004e000010037000080eb004f05be004f04be0046
:1004f00000000600889fbe008a1f780080047800f4
:100500000104780000457800c10090006800900068
:10051000808f50000400390008007800290107008e
:100520000000e000150035004800900009587800f0
:10053000400498001800780000b8a30004003a00b6
:1005400000a8a30006003200ea4f550004003a005c
:1005500008007800710107000000e00007003a0081
:1005600000c0200018006000020032004800900027
:10057000600498000a80fb00010037000080eb0057
:100580004f0578004f04be0000000600889fbe00a3
:100590008a9fbe008c9fbe008e1f78008106780067
:1005a00083047800000678000288b900000778000c
:1005b0000000e00002003a0000017800430037002c
:1005c0000d00e0004100320000057800c9009000f5
:1005d00069009000808f5000040039000900780005
:1005e000f80007000000e0002a003500190078003c
:1005f0004a00de006100600003003a000a0478004f
:10060000800578000b0037000a017800a100200067
:100610000c00780081010700800578000000e000f0
:1006200002003a000a047800020037000c00500073
:100630000004e800c9019000690090000300500028
:10064000880f500002003100000478008005eb00a4
:10065000080178008c00780003007800260107006c
:1006600008064600080555004900900008004000b3
:10067000c00498000b00e00004003200090078007c
:10068000260107000000e00002003a000a00e00036
:10069000ceff3a001900780000b8a3000200320033
:1006a000090078001d01070000c02000190060004b
:1006b0000200320049009000e00498000a00570050
:1006c000110009000d80d8000001780002007800b8
:1006d0004f0778004f06be004f05be004f04be0016
:1006e000000006006200fa00889fbe008a9fbe00dc
:1006f0000004be00020578008300780060f92f0036
:100700000f0040004f01070088979f0099979f00b6
:100710000000eb00a09f9f009a4578000b80fb0033
:100720000000ea00cf04de000904e90050c2b30073
:1007300080cf550001003200090478000800e00075
:100740000b003400080178008a0078001f909700a1
:100750008f9197000300010090979f000000e00038
:10076000930032002f98970008004000a09f9f0040
:100770000905450050c2b30080cf55000400320087
:100780000b04e000e4ff3a002f989700890037003f
:100790000000eb00809f9f00f0979f00e0979f0074
:1007a000d0979f00c0979f00b0979f00c09f9f0069
:1007b0000900370020df20000080500000004000ca
:1007c00061de2000e08078004f9897000100700003
:1007d000c09f9f000a05e8001a4478008800fb00cb
:1007e00020df20001c010700800078000000e000ee
:1007f000f0ff3a00a0c2b300804f54000e003a0050
:10080000bf8897000180e900b08f9f0090007800ba
:10081000b19f9f000100e00005003d000100ea00db
:10082000b09f9f004f9897000020a000c09f9f009e
:100830000a05e80010003700b19f9f00090037004b
:10084000bf989700f0ff2700808f5000040032000f
:100850006a08b9000000410003004000b09f9f00fb
:100860000a05e8001a01fb0003fd2f000300410008
:10087000e90f5000f2ff3600e0c2b3009a4f1000bb
:10088000040032000080eb00909f9f008a047800f3
:100890001c0037008a04e800a0c2b300994f100082
:1008a00007003a00bf8897000180e900b08f9f00e1
:1008b00010007800909f9f008a84e80011003700a4
:1008c0000000eb00909f9f00090037009f98970061
:1008d000f0ff2700808f5000040032006a08b90042
:1008e0000000410003004000909f9f008904e80041
:1008f0001901fb0003fd2f0003004100e90f500028
:10090000f2ff3600194478008800fb0000e1200067
:10091000d10007000000e00002003a000044780027
:10092000010037008904e800a87f9f0080c6b3005b
:10093000804f540004003a0066405000994f140064
:100940000700320008003700c0c6b300804f5400d3
:1009500005003a00994f140003003a00654040003a
:10096000a07f9f008904e8000905e800c8fb2f006c
:100970000f04440060f92f000f0040008085e8005c
:10098000880178001901fb00800078000b007800d6
:10099000b90007000000e00005003a008800780078
:1009a0000b007800fe0107000000e0005aff3d0048
:1009b0000080eb004f05be004f04be000080fa002f
:1009c00000000600889fbe0000047800c00190006f
:1009d000600090008000eb00808f510039003900ea
:1009e000180178002000290000006100e20f50008b
:1009f00007003200002020001800e0000100350050
:100a000000202400000c71008080eb002d003700d6
:100a10000100260001006100810f500008003a002b
:100a200038009000808f51000500390008007800e0
:100a30003a0007008080eb000000e00021003a004f
:100a400000c020001800600017003a00a8049000c1
:100a50006002200008004000808f540012003a001d
:100a600000202000980207008000780020049800f1
:100a70000000e00005003a002904980049049800ad
:100a80000900e80030049800060037001860a00054
:100a9000400498000020b00030049800410c9800f9
:100aa000510c9800d90207002800900050049800cb
:100ab000380090006004980000002600180c7000b8
:100ac0008000eb00010078004f04be00000006002b
:100ad0000001eb0090cf100001003a000001780007
:100ae0001004e000020032000000e800f9ff3700c7
:100af0000200780000000600000278008001780003
:100b000001003700b159780002004200808f510087
:100b1000fcff3a000400780000000600889fbe0039
:100b20008a1f7800000478000000e0000e003a0000
:100b30000005780049c420001900e00005003200db
:100b400019007800f5ff07000000e00001003d00fb
:100b50000084eb000a05e8008984e800e80f5500ee
:100b60002a003200f4ff3700100078004d00de004c
:100b70006100600024003200a804900008003700e3
:100b80000901500038409000890078000000fb0007
:100b9000ee0307000000e0001300340080844400ee
:100ba00048009000808f5400f5ff39002800900025
:100bb000400498001801780000c020000000610087
:100bc00002003200a800900001003700b800900039
:100bd0004e10de00610060000a00320061049800df
:100be0000004eb0009003700280090004004980042
:100bf00060049800500c98001890a0000084eb004e
:100c000002003700510c98000004780008007800ba
:100c10004f0578004f04be000000060082017800f6
:100c20000400370090cf1000050032000000e800fb
:100c30008301e9000300e000faff3a000000eb0046
:100c4000000006000200fa00f1bf9f0001087800d2
:100c50000080fa0000000600040037001004e000e5
:100c600001003a00000005000000e80090cf1000ed
:100c7000faff3a0000000600889fbe008a1f780035
:100c800000047800010278008244780003057800af
:100c9000e0c6b300804f5100d700320015003c0081
:100ca0006b405000804f5100240032000a003c008d
:100cb00070405000804f51001401320065404000e8
:100cc000804f51007600320050c2b300804f510077
:100cd00027013a002301370040c6b300804f51007e
:100ce0001b00320065404000804f510020013a0057
:100cf0001700370030c7b300804f510003013200a6
:100d000007003c0064405000804f510064003200f6
:100d10000040e800804f510015013a00ec00370018
:100d200050c7b300804f51005d0032006340400067
:100d3000804f51000e013a00590037009180e900c0
:100d4000010a78007800900011f079000e01370058
:100d500028619000c0c6b300804f51000a003a00dd
:100d60001400780064015000020a78001200be00ee
:100d70004f88de00cf80de001202be000003780044
:100d8000800378001500370010c7b300804f510072
:100d900002003a00940078000400370094007800c4
:100da000a0c6b300804f510005003a006880500093
:100db000000a78003002be002003be0007003700a2
:100dc0000180e900000a7800100078000002780035
:100dd000cfa2de000503780086037800049cbe00e5
:100de0000694be00a860900080c6b30080cf50007b
:100df0000e00320020c6b30080cf500005003a003c
:100e00000400fb00cf80de00010178008201780041
:100e10000a00370040c7b30080cf50000300320003
:100e20006640400080cf500006003a000400780081
:100e3000cf80de000101780082017800009cbe00b6
:100e40000294be003800be002801be00e00f500032
:100e5000e08f5800e00f5900e08f590003003d007b
:100e600078009000d1c2b3000a003700081090004b
:100e70000018a3000300320078009000b1c2b30054
:100e8000040037000008a3005600320078009000ec
:100e900001c2b30001707d000000e800500037007f
:100ea00028619000c0c6b300804f510007003a008f
:100eb0009400780064805000000a78001002be00a0
:100ec0000003eb00860378001500370010c7b3005d
:100ed000804f510002003a0094007800040037006f
:100ee00094007800a0c6b300804f510005003a007e
:100ef00068805000000a78003002be002003be0067
:100f0000070037000180e900000a7800100078002f
:100f100000027800050020000600200007002000e5
:100f2000049cbe000694be00a860900080c6b3007a
:100f300080cf50000e00320020c6b30080cf50009a
:100f400005003a000480fb000100200002002000a0
:100f5000030020000a00370040c7b30080cf5000d4
:100f6000030032006640400080cf500006003a0087
:100f7000040078000100200002002000030020008f
:100f8000009cbe000294be00081090000038a30030
:100f9000140032003800be002801be00e00f5000ef
:100fa000e08f5800e00f5900e08f59000d0032002b
:100fb00080c7b30080cf54000300320080c5b30067
:100fc00080cf540007003a007800900001c3b300be
:100fd00001707d008000e80089707d000080e800dd
:100fe00070049800780090000000450060049800ac
:100ff0008940780042003700a8609000c0c6b30066
:1010000080cf5000250032000a003c0064405000b0
:1010100080cf50002800320000c0e80080cf500090
:10102000140032006840500080cf500022003a0087
:101030000a00370040c7b30080cf50001e003200c6
:101040006640400080cf50001b00320069405000d5
:1010500080cf500018003a00060037001480e900e5
:10106000000a780010007800485c9000084878007a
:10107000470037001480e900000a78001002780069
:1010800068089000cf80de000101780082017800be
:10109000009abe000292be003d0037001480e900b5
:1010a000000a78001001780068089000cf80de0008
:1010b0000089be00360037001480e900000a78007d
:1010c00010007800680c90000808780030003700a5
:1010d0001180e9008008780010007800cf80de00e1
:1010e0000101780082017800009cbe000294be00dd
:1010f00078009000000045006004980081c7b300ac
:101100000800780097010700210037001480e900eb
:10111000000a780090017800630498005809900054
:101120000200e00003003d0003007800a3fc07007c
:101130000a0037008000eb0003007800b7fe0700cc
:10114000800078000000e00003003200680090009a
:10115000008050000100370058089000100c9800e3
:101160000b0037007800900002707d000600370009
:1011700078009000800045000904e00001003a007a
:1011800059c2b300894878000000e8007004980054
:101190000000eb004f0578004f04be000000060081
:1011a0000400fa00889fbe008a9fbe008c1f780052
:1011b000000478000106780070089000f8009000a4
:1011c000010050008808900001005000980890002d
:1011d00001005000a808900001005000b8089000dd
:1011e00001005000c8089000810550000002220054
:1011f000a0bf9f000003230090bf9f000810900035
:101200000028a30018003a000b00e000160034008c
:101210008b04780009057800e28f54000200360044
:101220002a002000020037000900e0000b00340013
:10123000c80190000a017800ec8057005800900027
:1012400003000100500498000000e0009600320006
:10125000680890000a004000600c98008a845400de
:101260004240a900ebff3c00780190000200e00042
:101270000b003400c80190008c00780058009000ea
:1012800003000100500498000000e00086003200d6
:1012900068089000f800900001004000600c980081
:1012a000880c90000900e000150034000905780062
:1012b000e28f5400020036002a00200002003700ae
:1012c0000900e0000b003400c80190000a0178001a
:1012d000ee80570058009000030001005004980071
:1012e0000000e00070003200680890000a00400032
:1012f000600c98008a8454004240a900ebff3c0037
:10130000180990000200e0000b003400c8019000b2
:10131000e80090005800900003000100500498007d
:101320000000e0006000320068089000980890001b
:1013300001004000600c9800a80c90000900e0003b
:101340001500340009057800e28f540002003600d1
:101350002a002000020037000900e0000b003400e2
:10136000c80190000a017800ee80570058009000f4
:1013700003000100500498000000e0004a00320021
:10138000680890000a004000600c98008a845400ad
:101390004240a900ebff3c00380990000200e00049
:1013a0000d003400e8009000180890008080400094
:1013b000c8019000580090000300010050049800fc
:1013c0000000e0003800320068089000b808900083
:1013d00001004000600c9800c80c90000900e0007b
:1013e0001500340009057800e28f54000200360031
:1013f0002a002000020037000900e0000b00340042
:10140000c80190000a017800ee8057005800900053
:1014100003000100500498000000e00022003200a8
:10142000680890000a004000600c98008a8454000c
:101430004240a900ebff3c00081090000028a300e8
:101440001b0032000b00e000190034008b04780010
:1014500009057800e28f5400020036002a002000bf
:10146000020037000900e0000b003400c8019000c2
:101470000a017800ec80570058009000030001003a
:10148000500498000000e000070032006808900057
:101490000a004000600c98008a8454004240a90071
:1014a00003003400eaff37000080eb000100370042
:1014b0000000eb004f0678004f05be004f04be0051
:1014c0000080fa0000000600889fbe00e304400090
:1014d0000900a100808f540049003600e38f5400ba
:1014e00001003e0049002000107080000000e00074
:1014f00002003200800078000c00370041e020003c
:1015000003003700908f5400230036008080e800ed
:10151000110078001100e000faff3a000f003700d8
:10152000928f54001c0036008280e8001101780080
:101530001100e000faff3a001001780041e02000bd
:1015400003003700908f5400130036008080e800bd
:1015500011007800820f5000faff3a0008708000f6
:10156000890f540001003100090478000800780058
:101570002f0107000000e00004003a00890f54002a
:101580001f0032000804d100f5ff3700081878006a
:101590002e010700d4ff3700110178009201780076
:1015a00064805100890f5000030031001200900048
:1015b00080087800070037000900410080087800a3
:1015c0009201900013009800110078001288140016
:1015d00009097800910178001100e0000400320050
:1015e000130090008380e8000000e00001003a0052
:1015f0008000eb00117088000280e80001003700d5
:101600000000eb004f04be00000006000a4ee2009e
:1016100004003a0080b920003f01070020c0b30059
:101620000aeeb70000000600889fbe0000047800a4
:101630003afd070080047800180078000068a300d5
:101640000200320028009000000107000000eb00bb
:1016500020049800384090000004e00005003500a8
:101660000000fb006c0107000000e00001003200f8
:101670008084eb00181090000000e00008003200a9
:101680006e0107000000e000010032008084eb00e2
:1016900018109000ed0007000000eb0010149800f7
:1016a000180078000008b200100032000000eb00c3
:1016b00041c42000910f1400070032000000e80030
:1016c0008180e800e80f5000faff3a000800780037
:1016d000de000700130037000000400041c4200076
:1016e000010040000008eb00f8ff3700000c780014
:1016f00000c0eb0030449800600220000800400069
:10170000200498004004980050049800400c980071
:1017100060049800500c9800700498007600440013
:10172000000c9800090078004f04be00000006007d
:10173000889fbe008900200028c520001800e00016
:101740000200320018007800b7ff07008904e900a2
:101750000884e9000900e000f8ff3a004f04be00e9
:10176000000006006f02b000889fbe008a9fbe0086
:101770008c9fbe008e1f78000006780050dd200090
:1017800080bf9f0080c5b30080cf500007003200ab
:1017900082002000f2b79f0043dc200083bf9f003f
:1017a0007740400080cf50000a00320080c7b3006d
:1017b00080cf500005003200a4002000f4b79f0045
:1017c00080c5b30080cf500002003a000001200025
:1017d000f0b79f003c04be002c05be0040c6b3001d
:1017e00080cf5000030032006540400080cf5000a1
:1017f0000b003a00e00f5400e08f5c00e00f5d004a
:10180000e08f5d0006003d006000b8006011b80088
:1018100008045000898458000a0559008b85590036
:10182000e00f5400e08f5c00e00f5d00e08f5d0092
:1018300004003a005c0890008d0120000000e000e8
:101840000c003200ffb0970001027800cfa2de004a
:1018500005037800860378000800be000a01be0078
:101860004f0307000fba970064407800d0e79f004d
:101870007d0120007fb0970000027800cfa2de003b
:1018800005037800860378000800be000a01be0048
:101890003c030700009ebe000296be000d00e9005a
:1018a000e1fc2f008f804000008740001a003700c5
:1018b0007fb1970002027800cfa2de000503780016
:1018c000860378003c00be002c01be0038030700f0
:1018d0000205be000004be008d06e900ffb19700be
:1018e00003027800cfa2de000503780086037800ab
:1018f0000800be000a01be00b60307003fb2970011
:10190000000052008fb8970060cf7800089ebe009c
:101910000a96be000e07e9003c00be002c01be0086
:10192000b0b79f00c1b79f00d2b79f00e3b79f0039
:10193000e00f5000e08f5800e00f5900e08f590091
:10194000020034000d00e000d9ff3c00ffb097001a
:10195000e88f500010003a000c1090000038a300ef
:101960000d003200f78f560006003e00e2fc2f000b
:101970000d014100e2c07f0000c3b30080cf5000e2
:10198000050032008d06e90000c3b300e3fc2f0020
:101990008d81410080f17f0078811600120e980041
:1019a0006c009000e3fc2f008f8141008d8041008e
:1019b00051fc07001c0990005c089000800f51004a
:1019c00006003d0002005000000e98000c10900030
:1019d0000040a100001698000f0037000000e00052
:1019e0000d003d000c10900074006000f00f5000de
:1019f00009003a007c089000fc00900001005000b3
:101a00008c08900001005000020050004240a900e4
:101a100001003400000e98004f0778004f06be000a
:101a20004f05be004f04be006f02b100000006006b
:101a30000000e0000300340089000700e10f4000cf
:101a400001003a000000eb00000006000000e0008a
:101a5000300032008080e90091027800e38f52006c
:101a60002c0036000508a3002a003a0022708000ee
:101a70000200e00002003200828f500004003100ba
:101a800002087800217088001600370003017800f2
:101a9000920190000300e00002003200818f5100ab
:101aa000faff39001202780004004100808f5000d4
:101ab00018003900810f500003003a000509420068
:101ac00082007800070037000300e00003003200c6
:101ad00005804000808f51000e003900930098006f
:101ae00011019800110190000200e000090032008d
:101af00011804000820f500006003a00022eef00d5
:101b00001100900011017800900841001000900031
:101b100090009800000006000001780000002000fe
:101b20000000e00008003200000080000000e0003b
:101b3000050032000000e9000000880000004000bd
:101b40000100800002b07800000006000a00fa00e0
:101b500080017800e20f500024003e006070800099
:101b6000e10f500008003200e02120000000e000fa
:101b7000050032006421200085212000a6212000dc
:101b80008001780004003700c4202000e5202000f8
:101b90000621200043212000144090000004e000b2
:101ba000030035008009eb0000002800140a7000d3
:101bb000154090000028a30001003a0015a0a000e5
:101bc0008201780006003700154090000008a3004d
:101bd000fdff32003100fb00000b78008301e900bb
:101be0000300e000f8ff3a00080037003000200052
:101bf000b0bf9f00c3bf9f00d1bf9f00e2bf9f0047
:101c00006a80570000c0da006fb9970002007800c0
:101c10000080fa00000006000a00fa00110020000f
:101c2000b1bf9f00c0bf9f006a80570000c0da00ac
:101c30004fb897000080fa00000006000a00fa0082
:101c400051002000b1bf9f00c0bf9f006a805700b5
:101c500000c0da005fb897000080fa0000000600bc
:101c6000889fbe0080047800707080000000e00053
:101c700003003a00100007000000e0000a003500f1
:101c8000707080000900e00002003a000004780053
:101c90000600370000047800090040000600070035
:101ca0000000e00001003d000084eb000800780027
:101cb0004f04be0000000600800078000000e00035
:101cc00004003a0080e12000707088000101780073
:101cd000060037000081eb0080012100808f50005a
:101ce00002003e00717088000001eb0002007800e5
:101cf000000006006022b800060220000000d000ac
:101d00008180d2000482d2008582d2000000a0002f
:101d10000202520083825a0003003b00020242008a
:101d200083824a000000a1000603e900f3ff3a00a5
:101d30000000060003f0a200889fbe008a9fbe003c
:101d40008c1f78001d010700240133006450e1005e
:101d50004f0032006420e1005200320003826c0028
:101d600007003b000905d0000306d000820f540095
:101d70000c065d0002003900020032008901780083
:101d8000030678008582550004003d000003fd0035
:101d90008103fd008502ea008b854200840f7200fa
:101da00002003b0060001000e08018006011b800e5
:101db0000005eb007a28e1000a00390006007800ef
:101dc000c75ddd00f707b200878075002d00370082
:101dd000828171000a017800610560008180d10074
:101de0000080d3008502e900f9ff3b0006044000b3
:101df0008784480002003b0060041400e0841c005b
:101e00000988a300070032008a8171008281710075
:101e1000610164008904d1000884d3008b05e800c7
:101e2000170037000978a30013003a000b00e00008
:101e3000130034008b05e9000804440089844c0039
:101e40000a4474000978a3000d003a000b00e0007a
:101e5000070034008b05e9000804440089844c0025
:101e600001003a000b0020000978a300f7ff3200c0
:101e70000001eb0002003700828171000a01780046
:101e8000e60007000cf0a70001f0a000dc0037001e
:101e90006420e10002003a00838f6c00dc00330014
:101ea0000801be000200be00d50037000001be00e0
:101eb000000107000470a70003f0a1006509b1004c
:101ec000160032000d0035006828e10006003500dc
:101ed000f0ff2f00f1ff27000300e00013003b009c
:101ee000010028000000050000004000818048003b
:101ef0008502e900fcff3a0008003700f88f420035
:101f000002003c008000eb00000005008100d100d1
:101f10000080d3008502e800fcff3a000300e000e7
:101f200002003b0060001000e08018000000060086
:101f3000889fbe008a9fbe00010578000100e00076
:101f40000400350008003c000000e00020003200e2
:101f50000500370060001000e080180002003b0020
:101f600001f02c001a0037000004be006011b80018
:101f70006b0920000982cf00020039000882cf00df
:101f80000441b000694252000e00320008003b00dc
:101f900082817100610164008904d1000884d3004a
:101fa0008b05e8000442e800f9ff3a00050037001d
:101fb0000804440089844c008b05e9000442e900d0
:101fc000fbff3a00950007000af0a70001f0a0000f
:101fd0004f05be004f04be0000000600f4ff2f00b6
:101fe000c9003700889fbe008a9fbe008c1f780002
:101ff000720007007900330003866c006450e10032
:102000002e0032006420e100330032006150e10014
:102010002f0032006120e10031003200858555003b
:10202000eb07b0000900200008042000050037007d
:102030000804440089844c000a0031000603430070
:1020400087834b000001530081815b00f8ff330060
:102050000203be000800a0000804440089844c006c
:10206000f6ff3900c639dd0083017300010032003c
:10207000130020008904d1000884d3000998a3002c
:10208000050032000800a7000300a0008904d10069
:102090000884d3008b05e8008904d1000884d300ac
:1020a0000001eb000281d2005c00070001f0a100fa
:1020b0000cf0a70001f0a000510037006420e100ff
:1020c000530032000801be000200be00f7ff3700d7
:1020d0006120e1004e0032006000b800f3ff3700dd
:1020e0000000200001f82700f0ff3700889fbe00a5
:1020f0008a9fbe008c1f7800300007003700330035
:1021000003866c006450e100240032006420e1008a
:10211000270032006150e100220032006120e1001e
:10212000210032008b854200eb07b1000134b8007a
:10213000003ab8000804420089844a00013ab80015
:102140000030b8008880400009014a0004003300d4
:102150000000400081804800020149008b05e90031
:10216000c909dd0083017000010032001300200066
:10217000c814de004814dd004709de001200b2007a
:10218000c808de00088470002400070001f0a100e8
:102190000cf0a70001f0a000190037006120e10059
:1021a0001b0032000801be000200be00f7ff37002e
:1021b0006150e100fcff3a00150037000004be004a
:1021c0003c0007000003be000405be000200be0084
:1021d00038000700844f7500000006000200be00b2
:1021e0006450e100050036006420e1000200360082
:1021f0000968a30001003a000800be000160a000c9
:102200004f0678004f05be004f04be0000000600d8
:10221000f0ff2f00f1ff2700f9ff370081002000b9
:10222000618055000b003d000b00200061fe2f0077
:102230000100e1001d003400828171006101640031
:102240008904d1000884d3000000e800faff3a00b6
:102250007100200061006400030070000200600053
:102260000900320061044400e0844c000988a500a4
:10227000050032008b05e8006808e10002003a0022
:102280008904d1000884d300f20f20000258e10035
:1022900005003d00c75ddd00f907b20089807500cb
:1022a00008007800000006000bf827008b0078007b
:1022b00000000500c70ade00f107b200f50fb2000a
:1022c00008003200e1cf4200020032000170a0009d
:1022d00024000500810f7000010032000408050091
:1022e00044000500810f700002003a001400050050
:1022f0008502e9000000400081c04800fcff3b006f
:102300000170a00024000500889fbe008a9fbe00c7
:10231000841f7800a9ff07004f00780011003300e8
:10232000f0ff2f00838f6c0006003b000405650062
:102330000a00a7000800370009f0a60010002000de
:1023400008003700820f5400838f5c0003003900bf
:102350001000200001003e000000200009f0a7004e
:102360000000ea004f05be004f04be000000e00080
:1023700000000600881f7800000478005001be00ad
:102380004000be000000420081804a0002014b0074
:1023900083814b00009cbe000294be000400e1005b
:1023a0000588e1000690e1000798e1000200310095
:1023b000680044001008e8004f04780000000600a0
:1023c000f4874700889fbe008a9fbe008c9fbe0096
:1023d0008e1f78000205be000004be00d4b79f0027
:1023e000e5b79f00f6b79f0087bf9f000000eb0096
:1023f000c0b79f00b0b79f00a0b79f0090b79f00e5
:1024000080b79f000d042000bfb097004fb0970029
:10241000000140000000e00014003d004f08de0015
:1024200000007100c0b79f00ad00070001003d0033
:1024300012002000b000070001003d001200200043
:10244000b500070001003d0012002000ba0007009f
:10245000be000700feff3a00c2000700c8000700e8
:102460000f004000c3ff0700270037004f08de00c1
:1024700000067100ccb79f009900070001003d00e5
:10248000120020009c00070001003d001200200007
:10249000a100070001003d0012002000a600070077
:1024a000aa000700feff3a00ae0007000fb2970037
:1024b0009fb297002fb39700bfb39700b6000700f5
:1024c0000000520081805a0002015b0083815b00a2
:1024d00080b79f0091b79f00a2b79f00b3b79f003e
:1024e0000007eb00ac0007000020e10001a8e100bc
:1024f00002b0e10003b8e100010031001e0020003d
:102500000e005600c0b79f004fb297000400e000d5
:102510000700350010002000010020006011b80005
:1025200008047000898470000a0571008b857100b1
:102530008d06e900b4ff3a000400e00003003d000e
:102540008f0007000f0040008aff07004fa8970088
:102550000000e00004003a000fb497009fb4970019
:102560002fb59700bfb59700970007004f07780079
:102570004f06be004f05be004f04be004f01b10024
:1025800000000600881f780018002000881f7800cf
:102590008bff07008f87e9004f04780000000600da
:1025a000801feb0086ff07008f87e9000000060010
:1025b000889fbe008a9fbe008c1f78007b000700aa
:1025c00005003d002f00070007003d003d0007000b
:1025d0000006eb00040037003f00070002003d004a
:1025e000300007001c00200077000700e5ff07000f
:1025f0000203be000002be000c00e0000100320039
:10260000280007000400be000601be004f06780047
:102610004f05be004f04be0000000600889fbe00ac
:102620008a9fbe008c1f78006000070003003d00f9
:102630001400070006003d000400370026000700d4
:1026400003003d006000b8006011b8001d000700e5
:102650005d000700d2ff07000203be000002be00bb
:102660000c00e000010032000e0007000400be0074
:102670000601be004f0678004f05be004f04be00a5
:10268000000006006000b8006011b80008045000a7
:10269000898458000a0559008b8559001c002000c8
:1026a000030037006000b8006011b8000500370073
:1026b000e00f5200e08f5a00e00f5b00e08f5b00fc
:1026c00000000600040250008582580006035900ed
:1026d00087835900000006000006eb00f4ff370076
:1026e0000180400090b79f000001eb008fb0970081
:1026f0000100e000000006000200700090b79f009b
:102700000180400080b79f000001eb00ffa8970008
:102710000100e000000006000200700080b79f008a
:1027200001804000f0af9f000001eb00efa8970090
:102730000100e0000000060002007000f0af9f0002
:102740000182400020000700f50305008301d1004d
:102750000281d3008180d3000080d3008502e9008c
:102760000000060000027200e4af9f00080444006d
:1027700089844c000a054d008b854d000000060041
:102780003fb29700cfb297005fb39700efb39700c7
:1027900000fe2f00000006003fb09700cfb097006a
:1027a0005fb19700efb19700000006000205be0080
:1027b0000004be00e00f5000e08f5800e00f590009
:1027c000e08f5900000006000800be000a01be00ac
:1027d00000000600889fbe008a9fbe008c1f780004
:1027e0000205be000004be000006eb00e00f500032
:1027f000e08f5800e00f5900e08f590007003d00be
:102800006000b8006011b8000804500089845800c6
:102810000a0559008b8559001c002000e00f52006a
:10282000e08f5a00e00f5b00e08f5b0002003d008c
:102830000f0007000c00a2000800be000a01be0045
:10284000120007000203be000002be000c00e00000
:1028500001003200060007000400be000601be00b1
:102860004f0678004f05be004f04be000000060072
:102870006000b8006011b800040250008582580062
:10288000060359008783590000000600889fbe0098
:102890008a9fbe008c9fbe000404b8000506b800e5
:1028a0008904460060854e000606b8000a05460009
:1028b000e0854e000706b8008b054600040eb80000
:1028c000890446000a854e00e0854d00050eb800db
:1028d0000a0546008b854e00060eb8008b054600a3
:1028e0000416b8000a0546008b854e000516b80090
:1028f0008b054600041eb8008b0546000800be008c
:102900000a01be004f06be004f05be004f04be00c8
:10291000000006002006880031068800000006003e
:1029200084e0a900c401dd000347b2007109200062
:1029300091407800f2c8b30082c0600083c070008c
:102940008000fd0097e0b7008000fd006800600097
:102950004300de00004040000040400000404000d6
:102960000040400000404000004040000040400067
:10297000c1082000914078000174a10080c070005f
:10298000010078008ce0b7000000060041088800d4
:1029900030088800000006008000eb003108880045
:1029a0005108880062088800730888008008880041
:1029b0001061a80000000600500888000000060012
:1029c00000088800000006000de2a9008d20a90083
:1029d0008d40a9008520a9008540a90000000600bf
:1029e0008520a9008540a900c401dd000347b2008d
:1029f0008109200091407800f2c8b30082c06000d5
:102a000083c070008000fd0098e0b7008000fd00ea
:102a1000800178000307b200c419de00910920008c
:102a20009140780082cfb30082c0600083c0700004
:102a30008000fd0099e0b7008000fd0068016000a3
:102a40004311de0002414100d1082000914078008e
:102a50000114a10082c070008000fd008de0b7006d
:102a60008000fd000008b2004700de00004040008a
:102a700000404000d1082000914078000124a100ce
:102a800080c07000010078008de0b70000000600f3
:102a9000a2108800601088007110880000000600f5
:102aa00017e2a9008f00a9008f20a9008700a900c4
:102ab0008720a900000006008700a9008720a90040
:102ac000e7416000010a20009140780082cfb30006
:102ad00082c0600083c070008000fd00a0e0b700ed
:102ae0008000fd004301de004311dd000247b2001b
:102af000010a200091407800f3c8b30083c0600051
:102b000082c070008000fd00a0e0b7008000fd00e2
:102b1000680160004311de00f10820009140780058
:102b20000104a10082c070008000fd008fe0b700aa
:102b30008000fd000008b2004700de0000404000b9
:102b4000f1082000914078000114a10080c07000bd
:102b5000010078008fe0b70000000600f210880046
:102b6000b0108800c1108800000006000ec2bf002f
:102b700061006000000006000cc2bf0066406000fb
:102b8000e64f500002003a0090108000000006005e
:102b900090108000f00fb2000000060018c2bf00c5
:102ba000610060000000060016c2bf0066406000c1
:102bb000e64f500002003a00e010800000000600de
:102bc000e0108000f00fb200000006008d00a900a8
:102bd00021e2a9008500a90000000600101188006c
:102be00001118800000006008500a900e74160008f
:102bf000810920009140780082cfb30082c060003c
:102c000083c070008000fd0098e0b7008000fd00e8
:102c1000680060004300de00d10820009140780089
:102c20000104a10080c07000010078008de0b700b1
:102c3000000006008000780023c2bf000028a30027
:102c400001003a00f10fb2002111880000000600d7
:102c500020c2bf00610060000000060020c2bf006b
:102c60008080eb000008a3000800320020c2a90009
:102c700023c2bf000028a3000200320021118000ff
:102c80000200370021118000f10fb200010078002e
:102c9000000006003600f800809fbe00829fbe0044
:102ca000849fbe00869fbe003400f80000c0b300c1
:102cb000a00188000000fa00cf0007008460a9008e
:102cc0000080fa003400f9004f03be004f02be003e
:102cd0004f01be004f00be003600f9000040060064
:102ce0003600f800809fbe00829fbe00849fbe0019
:102cf000869fbe003400f80000c0b300a001880029
:102d00000000fa00c500070084c0a9000080fa0096
:102d10003400f9004f03be004f02be004f01be0059
:102d20004f00be003600f900004006003600f800f3
:102d3000809fbe00829fbe00849fbe00869fbe0013
:102d40003400f80000c0b300a00188000000fa00c1
:102d5000bb00070084e0a9000080fa003400f900fd
:102d60004f03be004f02be004f01be004f00be0029
:102d70003600f900004006003600f800809fbe00d3
:102d8000829fbe00849fbe00869fbe003400f80074
:102d900000c0b300a00188000000fa00b1000700e5
:102da00086a0a9000080fa003400f9004f03be009d
:102db0004f02be004f01be004f00be003600f900ba
:102dc000004006003600f800809fbe00829fbe00d3
:102dd000849fbe00869fbe003400f80000c0b30090
:102de000a00188000000fa00a700070086c0a90023
:102df0000080fa003400f9004f03be004f02be000d
:102e00004f01be004f00be003600f9000040060032
:102e10000000fa000000eb00f06d88000000eb00fd
:102e2000006e88000000eb00106e88006000b800a3
:102e3000306d8800416d88006000b800506d8800da
:102e4000616d88006000b800706d8800816d880039
:102e50006000b800906d8800a16d88006000b80027
:102e6000b06d8800c16d88006000b800d06d88002a
:102e7000e16d88006000b800a6fe0700f00f20009a
:102e8000a01688000000eb0090168800d402a8006d
:102e9000d422a800d442a800d462a800d402a90079
:102ea000d422a900d442a900d462a900d402a80067
:102eb000d422a800d442a800d462a800b0ff2f00fa
:102ec00097fe07006000b800b0fe0700303327000f
:102ed00001002000f06c8800016d8800f26c800019
:102ee000036d8000d0f82f00abfe07008c60a800b7
:102ef0008cc0a8008ce0a8008ea0a8008ec0a800fe
:102f00000080fa00000006000400fa00803e200065
:102f1000000f7800d402a800d202a90030002000df
:102f200025000700a0f32a00fbf407000000eb00d7
:102f300010079800060037001e00780001002000ee
:102f40005a0007001e0090000000e80010079800db
:102f50001e009000ee0f5000f7ff340050002000dc
:102f600015000700f0f52a00ebf40700e0f72a004f
:102f7000e9f40700d4c2bf006140600000c0ea006d
:102f80006140600061416000412d20009140780067
:102f9000e0cfb30000c0600002407000d4e2b70090
:102fa0001e007800010020004000070010002000f3
:102fb00001000700efff37000400fa001007980037
:102fc00070c0b300004f78000040eb00104798003d
:102fd0000e007800d00107001e0090000000e900fc
:102fe000100798001e0090000000e000f8ff3a0073
:102ff0000080fa00000006000000fa00506d80001a
:10300000616d800061004000e0804800506d8800e4
:10301000616d88000080fa00000006000000fa00e0
:10302000706d8000816d800061004000e08048008c
:10303000706d8800816d88000080fa000000060035
:103040000000fa00906d8000a16d800061004000da
:10305000e0804800906d8800a16d88000080fa0033
:10306000000006000000fa00b06d8000c16d800015
:1030700061004000e0804800b06d8800c16d8800ac
:103080000080fa00000006000000fa00d06d800009
:10309000e16d800061004000e0804800d06d880054
:1030a000e16d88000080fa00000006000800fa00c8
:1030b0002007980031079800906d8000a16d800076
:1030c000008fbe00906d8000a16d80003e01500019
:1030d000ae8158002e009000be009000800f51007d
:1030e000818f5900f7ff39000080fa0000000600c8
:1030f0000200fa00000f7800c08f200013000700c4
:103100001e0fe9000080eb009e0f1000faff3a004e
:103110000080fa00000006000400fa001007980082
:103120001e0090007200b900000f78001e007800a9
:10313000060007000080fa00000006000200fa0006
:10314000000f78000080fa00000006000200fa007c
:10315000000f780084e0a9001000200016fe070090
:1031600084c0bf0001c8b300014060000004e0005b
:10317000fbff320084e0a9001e0fe9001e00e00002
:10318000f5ff3a000080fa00000006000200fa0095
:10319000000f78008460a9001000200008fe0700de
:1031a00084c0bf00684060000004e000fcff320003
:1031b0008460a9001e0fe9001e00e000f6ff3a003f
:1031c0000080fa00000006003600f800809fbe0074
:1031d000829fbe00849fbe00869fbe003400f80020
:1031e00000c0b300a00188000000fa00f100070051
:1031f0008540a9000080fa003400f9004f03be00aa
:103200004f02be004f01be004f00be003600f90065
:10321000004006003600f800809fbe00829fbe007e
:10322000849fbe00869fbe003400f80000c0b3003b
:10323000a00188000000fa00f30007008720a90021
:103240000080fa003400f9004f03be004f02be00b8
:103250004f01be004f00be003600f90000400600de
:103260003600f800809fbe00829fbe00849fbe0093
:10327000869fbe003400f80000c0b300a0018800a3
:103280000000fa00620007008520a9000080fa0013
:103290003400f9004f03be004f02be004f01be00d4
:1032a0004f00be003600f900004006003600f8006e
:1032b000809fbe00829fbe00849fbe00869fbe008e
:1032c0003400f80000c0b300a00188000000fa003c
:1032d000800007008700a9000080fa003400f90090
:1032e0004f03be004f02be004f01be004f00be00a4
:1032f0003600f900004006001400fa00000f9800a4
:10330000110f9800b0fd0700e0f22f00b4fd070098
:103310000e0990009e09900000002200c1012000cb
:1033200074fa070061005000e080580040079800e0
:103330005107980000fa2f00010020002007980094
:1033400031079800d0752f0001002000008fbe00cb
:103350004e0190009e0078002e009000ccfd0700ea
:103360000000eb00806b88000000eb00a06b880081
:1033700000102000e06a8800b90007000080fa0011
:10338000000006001400fa00000f9800110f9800ca
:10339000c3fd0700e0f22f00c7fd07000e099000f3
:1033a0009e09900000002200c101200051fa070090
:1033b00061005000e08058004007980051079800d5
:1033c00000fa2f0001002000200798003107980024
:1033d000d0752f0001002000008fbe004e0190002c
:1033e0009e0078002e009000dcfd07000000eb003e
:1033f000906b88000000eb00b06b8800af00070006
:1034000000102000406b88000080fa0000000600d9
:103410000200fa000040eb00004f7800806b800053
:103420000000e800806b8800d4c2bf0061406000eb
:1034300000c0ea006140600061416000412d200051
:1034400091407800e0cfb30000c0600002407000ff
:10345000d4e2b700c5fd07000004e0001b00320005
:10346000c5fd0700004f78001e04e0001700320081
:10347000016b8000b0862000008040001e4878006c
:10348000006b80000000e800006b8800016b80008a
:10349000f00f200000806000006b8800d06a800080
:1034a0000000e800d06a8800d16a8000e06a8000ed
:1034b000808f500003003d00d0c0b3009e4f10002d
:1034c00002003a0010c0b30092edb7000080fa008d
:1034d000000006000200fa00881f78000040eb00a0
:1034e000004f7800906b80000000e800906b88002f
:1034f000d4c2bf000080fb000000d100614060002a
:1035000000c0ea006140600061406000004140008e
:10351000412d200091407800d0cfb30000c0600062
:1035200002407000d4e2b7009cfd07000004e000f8
:103530001d0032009cfd0700004f78001e04e000d3
:1035400019003200686b800097fd0700804078000a
:10355000c09620000000440001487800606b8000a5
:103560000000e800606b8800616b8000f00f2000b5
:1035700000806000606b8800306b80000000e80015
:10358000306b8800316b8000406b8000808f500072
:1035900003003d00d0c0b3009e4f100002003a006f
:1035a00010c0b30093edb7004f0478000080fa001c
:1035b000000006000000fa00a06b80000000e80098
:1035c000a06b8800d4c2bf000080fb004200de0078
:1035d0006140600000c0ea0061406000614060003e
:1035e0000040400000414000412d20009140780003
:1035f000b0cfb30000c0600002407000d4e2b7005a
:103600000080fa00000006000000fa00b06b8000a5
:103610000000e800b06b8800d4c2bf000080fb004f
:103620004300de006140600000c0ea0061406000cd
:103630006140600000404000004040000041400008
:10364000412d20009140780070cfb30000c0600091
:1036500002407000d4e2b7000080fa0000000600cb
:103660000200fa000000eb00f06a88000000eb00a6
:10367000006b88000000eb00d06a88000040eb007f
:1036800092edb7000000eb00000f78000600370055
:103690009e007800b0862000808040000040eb0053
:1036a000804878001e0fe800f00f20009e0f1000e9
:1036b000f7ff34000080fa00000006000200fa0064
:1036c0000000eb00506b88000000eb00606b88008e
:1036d0000000eb00306b88000040eb0093edb7007a
:1036e0000000eb00000f7800060037009e00780015
:1036f000c0962000808040000040eb0080487800a9
:103700001e0fe800f00f20009e0f1000f7ff34009e
:103710000080fa00000006000200fa00000f7800a6
:103720001e007800801f780040012b00801f780069
:1037300013f30700e48757000080fa00000006003a
:103740000400fa00000f78001e0078001040780096
:10375000830007001e007800104078002047980082
:103760002e4090000004e0000200320010c0b300c0
:10377000204798002e4090001e0fe8000004e00053
:10378000f1ff3a000080fa00000006000200fa0093
:10379000d06a80000000e0000300340010c0b300d5
:1037a000004f7800020037000040eb00004f780027
:1037b0001e80fb000080fa00000006000200fa00f4
:1037c000016b8000f06a8000808f5000160032008c
:1037d000f16a8000b0862000008040001040780030
:1037e000004f7800f06a80000000e800f06a88006e
:1037f000f16a8000f00f200000806000f06a88000d
:10380000016b8000f06a800000805000d06a880060
:10381000d06a80000000e00005003d000000eb00e1
:10382000d06a8800020037000040eb00004f7800ab
:103830001e4078000080fb000080fa0000000600b7
:103840000200fa000040eb001047980092cdbf0044
:103850000004e000fdff3200d06a80000000e900b3
:10386000d06a8800d06a80000000e00005003d00ba
:103870000040eb00004f78000040eb0092edb700f5
:103880000c003700f16a8000b08620000080400004
:1038900010407800004f7800f06a80000000e800d7
:1038a000f06a8800f16a8000f00f2000008060005c
:1038b000f06a88001e4078000080fb000080fa005b
:1038c000000006000200fa000040eb0010479800dc
:1038d00093cdbf000004e000fdff3200306b80009c
:1038e0000000e900306b8800306b80000000e000d1
:1038f00005003d000040eb0093edb7000040eb00f9
:10390000004f78000c003700516b8000c0962000fb
:103910000080400010407800004f7800506b80001d
:103920000000e800506b8800516b8000f00f200011
:1039300000806000506b88001e4078000080fb0013
:103940000080fa00000006000200fa00004f780034
:103950001e4078001c0007000080fa0000000600ee
:103960000200fa00004f78001e4078002000070097
:103970000080fa00000006000200fa0092cdbf00ad
:103980000004e000fdff32000040eb0092edb700c4
:1039900090cdbf000080fb000080fa000000060010
:1039a0000200fa0093cdbf000004e000fdff3200ea
:1039b0000040eb0093edb70091cdbf000080fb000d
:1039c0000080fa00000006000200fa00004f7800b4
:1039d0000fc2bf00614060000004e000fcff320045
:1039e0001e80fb00801088000080fa0000000600a6
:1039f0000200fa00004f780019c2bf006140600069
:103a00000004e000fcff32001e80fb00d0108800a4
:103a10000080fa00000006000200fa0088ff07009c
:103a20000080fb00000f78001e00e000fbff32006a
:103a30000040eb0062edb7001e0078000080fa0045
:103a4000000006000200fa009eff07000080fb0055
:103a5000000f78001e00e000fbff32000040eb008a
:103a60006eedb7001e0078000080fa00000006002e
:103a70000600fa00200798002e009000100798001a
:103a80000000eb00000f780010003700baff0700bd
:103a9000804078002e009000014878002e009000b1
:103aa000104078000000fb00000f78000080eb0061
:103ab0009e0f1000f5ff32001e00e000f3ff320001
:103ac0002e0090000000e80020079800d0002000a1
:103ad0009e0f1000edff3a00ae0090000040eb009a
:103ae000804878001e009000200798001e0090007b
:103af0000080fa00000006000000fa0092cdbf002e
:103b00000004e000fdff32004dff07000080fb00d5
:103b100023f207006feab70049ff07000080fb00af
:103b20001ff2070070eab7000040eb0071eab7002f
:103b3000f0a62000aa0007000080fb000080fa0029
:103b4000000006000000fa0092cdbf000004e00073
:103b5000fdff32003aff07000080fb0010f2070073
:103b60006feab70036ff07000080fb000cf2070089
:103b700070eab70032ff07000080fb0008f2070080
:103b800071eab7002eff07000080fb0004f2070077
:103b900072eab7000040eb0073eab700f0a620001d
:103ba000a70007000080fa00000006000000fa00ed
:103bb00092cdbf000004e000fdff320020ff0700af
:103bc0000080fb00f6f107006feab7001cff07005a
:103bd0000080fb00f2f1070070eab70018ff070051
:103be0000080fb00eef1070071eab70014ff070048
:103bf0000080fb00eaf1070072eab70010ff07003f
:103c00000080fb00e6f1070073eab7000cff070035
:103c10000080fb00e2f1070074eab70008ff07002c
:103c20000080fb00def1070075eab70004ff070023
:103c30000080fb00daf1070076eab7000040eb00f5
:103c400077eab700f0a62000130107000080fa0011
:103c5000000006000400fa00204798000040eb0036
:103c600010479800110037002e4090000000fb0024
:103c7000cbf10700000178001e4090008080fb001f
:103c8000a0fa2a00614078000000fb00800f51007c
:103c900003003a001e409000004f780006003700f5
:103ca0001e4090000040e800104798001e40900021
:103cb000ef4f5000ecff36001e80fb000080fa0042
:103cc000000006001600fa00000f9800110f98007f
:103cd000220f9800630047008e80e8000e01e80084
:103ce0008002780001027800820178000e017800dd
:103cf0000e0890009e089000150207001e407800f4
:103d0000e4004700480107001e409000e70047001c
:103d1000450107002e409000ea00470042010700dd
:103d20003e409000ed0047003f010700640047005f
:103d3000904078002e089000014878002e089000ee
:103d40008000e80064004700104090008048780040
:103d50002e0890008080e80067004700104078003f
:103d6000804878002e089000e3004000670047007c
:103d700010409000804878002e089000e400400039
:103d80006a00470010407800804878002e089000b4
:103d9000e50040006a00470010409000804878002d
:103da0002e089000e60040006d00470010407800ab
:103db000804878002e089000e70040006d00470022
:103dc00010409000804878002e089000e8004000e5
:103dd0000040eb00804878000080fa0000000600f8
:103de0000600fa00200798002e009000104078008e
:103df00098ff0700004f78002e0090000000e800b8
:103e00001040780093ff0700104798001e80fb00c9
:103e100000004000000040000000400000004000a2
:103e2000804078001e40900000c04000204798006d
:103e30002e4090000080fb000080fa000000060089
:103e40000400fa00100798001e009000104078004f
:103e500080ff07006f4060009e0078000080fb003c
:103e60000000400000004000000040000000400052
:103e70000000400000004000000040000000400042
:103e80000000400000004000000040000001400031
:103e9000f0ff20008080600082807000010f7800b9
:103ea0001e0090000000e8001040780069ff070045
:103eb0006f4060009e0078000080fb006f00600093
:103ec00000004000000040000000400000004000f2
:103ed00000004000000040000000400000014000e1
:103ee000f00f2f008080600082807000010f78004a
:103ef0001e0090000080e8001040780055ff070089
:103f00006f4060009e0078000080fb006f00600042
:103f100000004000000040000000400000014000a0
:103f2000f0f02f008080600082807000010f780028
:103f30001e009000630040001040780045ff07001d
:103f4000ef4060001e0078008180fb006f81600000
:103f500001ff2f000100600002007000000f7800d8
:103f60001e0078000080fa00000006000400fa003d
:103f7000100798001e0090001040780035ff0700e1
:103f80006f4060009e0078000080fb000000400051
:103f90000000400000004000000040000000400021
:103fa0000000400000004000000040000000400011
:103fb000000040000000400000014000f0ff200031
:103fc0008080600082807000010f78001e009000e9
:103fd0000000e800104078001eff07006f406000fe
:103fe0009e0078000080fb006f0060000000400031
:103ff00000004000000040000000400000004000c1
:10400000000040000000400000014000f00f2f00c1
:104010008080600082807000010f78001e00900098
:104020000080e800104078000aff07006f40600041
:104030009e0078000080fb006f00600000004000e0
:10404000000040000000400000014000f0f02f00a0
:104050008080600082807000010f78001e00900058
:104060006300400010407800fafe0700ef40600057
:104070001e0078008180fb006f81600001ff2f002f
:104080000100600002007000000f78001e00780040
:104090000080fa00000006000600fa0020079800e1
:1040a0002e00900010407800eafe07006f4060008c
:1040b000be409000004040000040400000404000f2
:1040c00000404000efc0600080c0700031479800a1
:1040d0002e0090000000e80010407800ddfe070090
:1040e000ef4060003e4090006fc1600001cfb30020
:1040f0000140600002407000304798002e009000a0
:104100000080e80010407800d2fe07006f40600099
:10411000ae409000004040000040400000404000a1
:1041200000404000efc0600080c070002147980050
:104130002e0090006300400010407800c5fe07008c
:10414000ef4060002e4090006fc1600001cfb300cf
:104150000140600002407000204798002e0090004f
:104160006400400010407800bafe07006f40600015
:104170009e40900000404000004040000040400051
:1041800000404000efc0600080c070001147980000
:104190002e0090006500400010407800adfe070042
:1041a000ef4060001e4090006fc1600001cfb3007f
:1041b0000140600002407000104798002e009000ff
:1041c0006600400010407800a2fe07006f406000cb
:1041d0009e40780000404000004040000040400009
:1041e00000404000efc0600080c07000014f7800c8
:1041f0002e009000670040001040780095fe0700f8
:10420000ef4060001e4078006fc1600001cfb30036
:104210000140600002407000004f78001e00be00a8
:104220000080fa00000006000600fa00204798000f
:10423000210798002e4090006f40600010479800c2
:104240002e4090008080fb00000f20000080600066
:104250004480de00004f78001e4078006f4f600001
:10426000ae0090000040eb00804878002e009000e7
:104270008000e8000040eb00804878002e009000ad
:104280008080e8000040eb00804878009e80fb00c2
:10429000a0fa2a0061407800804078002e0090004b
:1042a000014878002e0090000001e8001e409000b8
:1042b0008080fb00a0fa2a00614078000049780065
:1042c0000080fa00000006000c00fa004007980089
:1042d000510798000e01e8008e0078004e00900013
:1042e0004a0007001e4078008e80e800ceff0700dd
:1042f0001e409000e5004700cbff07000e80e8005d
:10430000904078005e009000014878005e009000c8
:104310008000e8000e80e80010409000804878009f
:104320005e0090008080e800650047001040780043
:10433000804878005e009000e30040006500470080
:1043400010409000804878005e009000e40040003b
:104350000040eb00804878000080fa000000060072
:104360000600fa00404798008e0078004e4090000a
:10437000adff07000e007800e7fc070010002000ea
:104380000080fa00000006000800fa0030079800dc
:104390008e0078003e009000cbff07000e007800f2
:1043a000ddfc0700100020000080fa00000006007d
:1043b0000e00fa0050079800610798005e00900018
:1043c000ee0090000e0178003efe07000e0078001f
:1043d000d1fc0700100020000080fa000000060059
:1043e0000200fa00000f78001e007800801f78009d
:1043f00070012b00801f7800e1ef0700e487570071
:10440000100020000080fa00000006000600fa00fc
:10441000000f7800110798002207980000f02f0085
:104420001e0060004800de00804078001e00900002
:10443000014878001e007800804078002e0090002f
:10444000014878000080fa00000006000800fa0029
:10445000881f780040479800310798000000eb0063
:10446000000f78000000eb00100798000e003700e6
:104470001e009000800078003e0090000080400008
:10448000904078004e40900080cf500003003a00ea
:1044900010002000000f7800080037001e00900078
:1044a0000000e800100798001e0490003e009000f5
:1044b000c2ef0700800f5400edff39001e007800a6
:1044c0004f0478000080fa00000006000600fa00a1
:1044d000200798002e0090000000e0000b0035003f
:1044e0002e009000ea0f500008003c002e009000c3
:1044f000c1fb2a0000004000000040000100400015
:10450000301f780020177800080037002e00900038
:104510000000ea0081fe2a00000040000000400088
:1045200001004000301f7800201778001e00be00f8
:104530000080fa00000006000200fa00c0fc07003c
:10454000004f78001e00fb000080fa00000006000b
:104550000c00fa00008fbe00220798003307980075
:1045600044079800550798001e00be004888de00ea
:10457000cf80de00804078002e0090000148780057
:1045800000002000f10f20003e016000ae816000bd
:104590000200be004088de00cf80de008040780050
:1045a0003e0090000148780000f02f00010020003c
:1045b0003e016000ae8160000200be00c809dd005f
:1045c0004800de0000807100c888de00804078006e
:1045d0004e009000014878001e007800804078006e
:1045e00000c0eb0080c060005e00900001487800d1
:1045f0000080fa00000006001200fa001007980080
:104600002107980032079800430798005407980044
:104610006507980076079800070f9800a06a800049
:10462000000f78001e009000ae009000b068880077
:10463000c16888003e009000ce009000d0688800dd
:10464000e16888005e009000ee009000f06888004d
:10465000016988007e0090008e0890001069880033
:10466000216988001e0078000080fa000000060022
:104670000a00fa00100798002107980032079800f6
:1046800043079800a06a8000000f78001e00900089
:10469000306988002e009000406988003e0090003c
:1046a000506988004e009000606988001e00780004
:1046b0000080fa00000006001200fa00889fbe0089
:1046c00010079800210798003207980043079800c8
:1046d0005407980065079800a06a8000000f7800d2
:1046e000f068800001698000b2688000c3688000c3
:1046f00090f50700edf50700000f98000e099000f7
:104700000200e00003003d000e0890000000ea00f7
:10471000000f98000e0990006110b90004f6070020
:1047200032708000437080002cf607000000e0002b
:1047300001003c002300370051698000306980008f
:1047400000805000cf80de00f9f507000004be00b5
:10475000f068800001698000b2688000c368800052
:1047600074f507000001be000800be001df607003a
:104770000004be00b2688000c36880001e00900084
:10478000ae0090006bf507000001be000800be00ff
:1047900056f607000004be0030698000cf80de00be
:1047a000e3f507000001be000800be0062f5070047
:1047b000bef50700800078005e00900001087800d8
:1047c00003003700de0090000000eb008008780056
:1047d0001069800021698000d2688000e368800051
:1047e00054f50700b1f50700700798007e009000af
:1047f0000000e00003003d007e0190000201ea009d
:10480000720798007e0190006110b900c8f507009a
:104810003270800043708000f0f507000000e00077
:1048200001003c002300370061698000406980007e
:1048300000805000cf80de00bdf507000004be0000
:104840001069800021698000d2688000e3688000e0
:1048500038f507000001be000800be00e1f50700c2
:104860000004be00d2688000e36880003e00900033
:10487000ce0090002ff507000001be000800be002a
:104880001af607000004be0040698000cf80de00f9
:10489000a7f507000001be000800be0026f50700ce
:1048a00082f50700800078006e0090000108780013
:1048b00003003700ee0090000000eb008008780055
:1048c0001e0078004f04be000080fa0000000600c1
:1048d0001600fa00889fbe005007980061079800f4
:1048e00072079800030f9800a06a8000000f7800fc
:1048f000506980003169800001005000200f98004d
:104900002e0990000200e00003003d002e089000f8
:104910000000ea00200f98002e0990006110b900f5
:1049200083f507003270800043708000abf507000c
:104930000000e00001003c0011003700f06880003a
:1049400001698000b2688000c3688000f9f4070044
:104950000004be0051698000306980000080500072
:10496000cf80de0072f507000001be000800be0027
:104970009cf50700300798004107980004003700b5
:104980000000200001f8230030079800410798003c
:10499000606980004169800001005000100f98009c
:1049a0001e0890000000e00003003d001e0990007a
:1049b0000201ea00120f98001e0990006110b90070
:1049c0005bf50700327080004370800083f50700bc
:1049d0000000e00001003c00110037001069800079
:1049e00021698000d2688000e3688000d1f407006c
:1049f0000004be00616980004069800000805000b2
:104a0000cf80de004af507000001be000800be00ae
:104a100074f507001007980021079800040037007c
:104a20000000200001f823001007980021079800db
:104a3000316980005e00900001005000cf80de00f0
:104a40003bf507003e019000ce019000a7f507005e
:104a5000b2688000c3688000b7f407007e01900050
:104a60000089be00416980006e0090000100500086
:104a7000cf80de002ef507001e019000ae019000f1
:104a80009af50700d2688000e3688000aaf4070066
:104a90000e0990000089be001e0078004f04be0081
:104aa0000080fa00000006003400f800881f78003b
:104ab00008c0b300a80188004f0478000000fa0085
:104ac0008500a90020c2a900d402a9000080fa0034
:104ad0003400f90000400600ba00fa0060e520004a
:104ae0009104240050379800613798006000b800a6
:104af000401f9800511f9800803e200001002000b8
:104b000040179800511798006000b80020179800cf
:104b1000311798006000b80000179800111798002e
:104b20006000b800500f9800610f98006000b80056
:104b3000300f9800410f98006000b800100f9800e7
:104b4000210f98006000b80070079800010f9800ce
:104b50006000b80050079800610798006000b80036
:104b600030079800410798006000b800401f980087
:104b7000511f9800f0382e00401588000000eb000f
:104b8000a01688000000eb0090168800d402a80050
:104b9000d422a800d442a800d462a800d202a9005e
:104ba000d222a900d242a900d262a900d202a90051
:104bb000d402a8000000eb00000888000000eb0011
:104bc000000f780001f807004440a8000040eb0007
:104bd00034e0b700ca42a800c642a900e922a800f2
:104be000e522a900d053290020079800f0fb2d00f2
:104bf000100798009e0090002e009000f7f7070025
:104c0000f00f2000a0168800d402a800e0ff2f00bb
:104c1000f5f707007ef8070000202c0011002000a7
:104c2000b5f90700a0022b00bbed07000000eb0068
:104c3000606688000000eb00706688000040eb00b2
:104c4000d0ecb7006000b80070879800018f980022
:104c5000140037007e8090008e8890008000400015
:104c6000a0b02000808040000000eb0080087800a9
:104c70007e8090008e8890008000400020b520004b
:104c8000808040000000eb00800878007e8090006b
:104c90008e88900061004000e08048007087980096
:104ca000018f98007e8190008e8990003002200054
:104cb00001002000800f5100818f5900e5ff340072
:104cc0006000b80070879800018f98000d003700d1
:104cd0007e8090008e8890008000400040ba2000c6
:104ce000808040000000eb00800878007e8090000b
:104cf0008e88900061004000e08048007087980036
:104d0000018f98007e8190008e8990001002200013
:104d100001002000800f5100818f5900ecff34000a
:104d200010002000a4f80700a0052b007aed070072
:104d300080042000801f780060072b00801f78000f
:104d40008fed0700e487570080042000801f780063
:104d500030092b00801f780089ed0700e487570099
:104d600080042000801f7800000b2b00801f78003b
:104d700083ed0700e487570080042000801f78003f
:104d8000c00c2b00801f78007ded0700e4875700e2
:104d900040042000801f7800000f2b00801f780047
:104da00077ed0700e487570040022000801f78005d
:104db000a0112b00801f780071ed0700e4875700d9
:104dc00020022000801f780020132b00801f780015
:104dd0006bed0700e48757008038210001002000b8
:104de000b2f80700b0142b00801f780064ed0700b4
:104df0008f87e900100020006ff80700c702a800a5
:104e0000f3ff2000f2ff20008000eb000000eb0029
:104e100017fe070006002c00f747240004002c00b2
:104e2000f54724006011b8006000b800f2fd0700eb
:104e300080002000e06a880060162b00801f780048
:104e40004fed07008f87e900e01a2b00801f7800e4
:104e50004bed07008f87e90080002000e06a8800a2
:104e600092cdbf000004e000fdff32004ffb0700c1
:104e70005087980061879800801d2b00801f780064
:104e80003fed07008f87e900b01d2b00801f7800e1
:104e90003bed07008f87e9005e809000ee80900078
:104ea00043fd0700801d2b00801f780034ed0700b4
:104eb0008f87e900801f2b00801f780030ed0700ee
:104ec0008f87e9005e809000ee8090007c020700f2
:104ed000a00020000100200074f807005e80900010
:104ee000ee80900076020700a00020000100200064
:104ef0006ef807005e809000ee8090007002070060
:104f0000a00020000100200068f807000000eb006e
:104f1000202f9800210037006000b80050879800cb
:104f200061879800100037005e819000ee8190004c
:104f30002e2890006102b9000200780000004000b5
:104f400080004000c0bf2000008040000488be00f8
:104f50005e809000ee80900061004000e08048009c
:104f600050879800618798005e819000ee819000e4
:104f70001000200001002000800f5100818f590097
:104f8000e9ff340021c0b300c0bf20007e0107004c
:104f90002e2890000000e800202f9800ae289000f6
:104fa000f03f2000808f5000dbff3400803e200067
:104fb00001002000508798006187980009003700a1
:104fc0005e809000ee8090003d0207005e809000c1
:104fd000ee8090004006b0000180b000508798003d
:104fe000618798005e819000ee819000f070220051
:104ff00001002000800f5100818f5900f0ff340024
:10500000803e2000202f9800210037006000b8006b
:105010005087980061879800100037005e819000eb
:10502000ee8190002e2890006102b9000200780005
:105030000000400080004000c0bf20000080400011
:105040000488be005e809000ee8090006100400009
:10505000e080480050879800618798005e8190004a
:10506000ee8190001000200001002000800f510010
:10507000818f5900e9ff340021c0b300c0bf200078
:10508000410107002e2890000000e900202f980021
:105090002e2890000000e000dcff3d009bff370061
:1050a0000800fa00881f780010c0b300404798003d
:1050b0000000eb00100798000000eb00000f7800e4
:1050c0000000eb00100798000000eb00300798008c
:1050d0000f0037003e009000ff0f500009003c0019
:1050e0003e009000000040008080e80020ba2000d0
:1050f00000804000900078001e00900001004000f9
:10510000100798003e0090000000e800300798006b
:10511000be00900010022000808f5000edff340090
:105120001e009000305f880021b5200020ba2000ca
:1051300023000900b018780030062000bdf60700f3
:1051400020c2bf00624060000004e000fcff3a00a3
:105150000000eb003007980023003700ca42a90086
:105160003e0090008000400020b5200000804000fc
:1051700010007800aff6070020c2bf006240600058
:105180000004e000fcff3a001000200001002000b5
:10519000c6f70700aef607000004e000fdff32008e
:1051a0003e0090000000e000090032003e00900048
:1051b0000004e900a9f60700000178008800440017
:1051c000a0b02000008040000208780002003700f4
:1051d000a2f60700000f7800ca42a8003e00900027
:1051e0000000e80030079800be0090003002200068
:1051f000808f5000d9ff3400c9c2bf0061406000f9
:105200000004e000fcff3a004e4090000080fb00ec
:105210004f0478000080fa00000006000800fa0041
:1052200010c0b300204798000000eb00000f78008a
:105230000000eb0020079800090037002e009000c6
:105240008000400040ba2000808040000000eb0059
:10525000800878002e0090000000e80020079800e9
:10526000ae00900030042000808f5000f3ff360025
:1052700040ba2000a1b020002100090031187800b8
:105280000000eb00000f78000000eb002007980002
:105290000d0037002e009000ff0f500007003c006b
:1052a0002e009000000040008080e80020ba20001e
:1052b00000804000100078001e0f40002e0090007b
:1052c0000000e80020079800ae00900010022000c7
:1052d000808f5000efff3400305f80009e0f500041
:1052e0000500320020222b00801f780024ec0700ec
:1052f0008f87e90034003700305d80003007980068
:10530000be009000e38f5000260032003e00900067
:10531000e30f500007003e00be009000e18f5000f8
:105320001c0032003e009000e10f50001b003e00c8
:1053300016003700500f2000be009000808f5000f4
:105340001c003200500f2000be009000808f5000e3
:1053500005003e00400f2000be009000808f5000ee
:105360001200320018003700d00f2000be0090005d
:10537000808f500011003200e00f2000be0090002e
:10538000808f50000f0032000f003700c601070069
:105390000d003700de0107000b0037000202070096
:1053a000090037001a020700070037003202070021
:1053b0000500370056020700030037008f02070080
:1053c000010037007b0207002e4090000080fb00a8
:1053d0000080fa00000006000200fa000040eb0026
:1053e000004f78000040eb0007ebb7009301070087
:1053f000820207002c003700900107007f0207009f
:1054000090262b00801f7800ddeb07008f87e900d6
:1054100007cbbf000080fb00f1fb0700c0272b007b
:10542000801f7800d6eb07008f87e90008cbbf000c
:105430000080fb00eafb070050292b00801f78004a
:10544000cfeb07008f87e90009cbbf000080fb008e
:10545000e3fb0700801d2b00801f7800c8eb0700ce
:105460008f87e90007cbbf00004f780007cbbf0054
:10547000e44f50000c003a00302b2b00801f7800c6
:10548000bfeb07008f87e90008cbbf000080fb005f
:10549000d3fb0700c02b2b00801f7800b8eb070060
:1054a0008f87e9000300370007cbbf00e24f5000b1
:1054b000d1ff3a0007cbbf00e24f500004003a0092
:1054c000c02e2b00801f7800adeb07008f87e9000e
:1054d0001e80fb000080fa00000006000400fa00b5
:1054e0002047980010c0b300004f7800e1668000ac
:1054f00001007800205d88000100e800e066880077
:105500000000eb00305d88002e4090000080fb0022
:10551000405d8800c0312b00801f780098eb0700a9
:105520008f87e90060342b00801f780094eb070020
:105530008f87e900205d8000a9fb070030352b0034
:10554000801f78008eeb07008f87e90070372b00f3
:10555000801f78008aeb07008f87e900405d80009c
:105560009ffb070060382b00801f780084eb07004a
:105570008f87e900cafe070028ff07001e80fb0096
:105580000080fa00000006000600fa0010079800ec
:105590004147980010c0b30010479800e1668000b2
:1055a00001007800205d88000100e800e0668800c6
:1055b00010002000305d88004e4090000080fb000d
:1055c000405d88000000eb00e05e88000040eb00da
:1055d000004f78000e0037001e82fb001e80fb008b
:1055e0000000400000004000800078001e00900095
:1055f000008040001001be00040042008000400016
:10560000a0ba2000008040000288be001e4fe800c3
:105610004e4090009e4f1000efff3900b0382b0035
:10562000801f780056eb07008f87e900205d80001f
:10563000801f7800a03a2b00801f780050eb0700f5
:10564000e4875700405d8000801f7800f03b2b000e
:10565000801f78004aeb0700e48757000040eb000a
:10566000004f78000f0037001e80fb000000400054
:1056700000004000e800400020ba20000080400008
:105680001000be001e81fb00809fbe00821f7800bc
:10569000803d2b00801f780039eb0700e88757001a
:1056a0001e4fe8009e80fb00405d8000808f500010
:1056b000edff39007afe0700d8fe07001e4090007b
:1056c0000080fb000080fa00000006000400fa00e1
:1056d0002047980010c0b300004f7800e1668000ba
:1056e00001007800205d88000100e800e066880085
:1056f00020002000305d88002e4090000080fb00dc
:10570000405d8800703f2b00801f78001ceb070075
:105710008f87e90060342b00801f780018eb0700aa
:105720008f87e900205d80002dfb070090412b0052
:10573000801f780012eb07008f87e90070372b007d
:10574000801f78000eeb07008f87e900405d800026
:1057500023fb070060382b00801f780008eb070050
:105760008f87e9004efe0700acfe07001e80fb009d
:105770000080fa00000006000400fa0020479800ac
:1057800010c0b300004f7800e1668000010078008f
:10579000205d88000100e800e066880030002000fd
:1057a000305d88002e4090000080fb00405d880046
:1057b00050432b00801f7800f1ea07008f87e90033
:1057c00060342b00801f7800edea07008f87e90026
:1057d000205d800002fb070080452b00801f7800c1
:1057e000e7ea07008f87e90070372b00801f7800f9
:1057f000e3ea07008f87e900405d8000f8fa0700c0
:1058000060382b00801f7800ddea07008f87e900f1
:1058100023fe070081fe07001e80fb000080fa00c7
:10582000000006000600fa002047980021079800b3
:1058300010c0b300004f7800e166800001007800de
:10584000205d88000100e800e0668800400f20002d
:10585000305d88002e009000405d880050472b008e
:10586000801f7800c6ea07008f87e90060342b00ac
:10587000801f7800c2ea07008f87e900205d800062
:10588000d7fa0700104a2b00801f7800bcea0700f7
:105890008f87e900405d8000d1fa070060382b0057
:1058a000801f7800b6ea07008f87e900fcfd07003b
:1058b0005afe07001e80fb000080fa000000060070
:1058c0000800fa00200798003107980010c0b300c4
:1058d00020479800e166800001007800205d880084
:1058e0000100e800e0668800500f2000305d88006d
:1058f0002e009000be009000405d8800515d880041
:10590000804b2b00801f78009dea07008f87e900fd
:1059100060342b00801f780099ea07008f87e90028
:10592000205d8000aefa0700405d8000515d800080
:10593000809fbe009e007800811f7800904d2b0054
:10594000801f78008eea0700e887570060382b0038
:10595000801f78008aea07008f87e900d0fd0700e2
:105960002efe07002e4090000080fb000080fa0011
:10597000000006000200fa00e166800001007800e5
:10598000205d88000100e800e0668800e00f20004c
:10599000305d8800e04f2b00801f780078ea070018
:1059a0008f87e90060342b00801f780074ea0700bd
:1059b0008f87e900205d800089fa070060382b009e
:1059c000801f78006eea07008f87e900b4fd0700aa
:1059d00012fe07001e80fb000080fa000000060097
:1059e0000200fa000000eb00000f78000d00370005
:1059f0001e0078008000400020b52000808040001c
:105a00000000eb00800878001e0078008000400055
:105a1000a0b02000808040000000eb0080087800eb
:105a20001e0fe800300220009e0f1000f0ff34002f
:105a30000000eb000080fa00000006000200fa00ff
:105a4000e166800001007800205d88000100e80028
:105a5000e0668800d00f2000305d8800c0512b0028
:105a6000801f780046ea07008f87e90060342b002a
:105a7000801f780042ea07008f87e900205d8000e0
:105a800057fa070060382b00801f78003cea0700b7
:105a90008f87e90082fd0700e0fd07001e80fb0004
:105aa0000080fa00000006000200fa0010c0b300f7
:105ab000004f7800f0532b00801f780030ea070079
:105ac0008f87e90060342b00801f78002cea0700e4
:105ad0008f87e900205d800041fa0700f0562b0017
:105ae000801f780026ea07008f87e900405d80006c
:105af0003bfa070060382b00801f780020ea07007f
:105b00008f87e9001e80fb000080fa00000006007d
:105b10000200fa0010c0b300104798000040eb00ec
:105b2000004f7800180037001e80fb000000400086
:105b300000004000010220008080400020ba2000c8
:105b4000008040001002be001e80fb0000004000ec
:105b500000004000e800400020ba20000080400023
:105b60001000be001e81fb00849fbe00809fbe000f
:105b7000821f7800d0572b00801f780000ea0700b2
:105b8000ec8757001e4fe8009e80fb00405d8000c0
:105b9000808f5000e4ff39001e4090000080fb0021
:105ba0000080fa00000006000200fa0010c0b300f6
:105bb000004f7800905b2b00801f7800f0e9070011
:105bc0008f87e90060342b00801f7800ece9070024
:105bd0008f87e900205d800001fa0700f0562b0056
:105be000801f7800e6e907008f87e900405d8000ac
:105bf000fbf9070060382b00801f7800e0e9070000
:105c00008f87e9001e80fb000080fa00000006007c
:105c10000200fa0010c0b300004f7800505e2b0065
:105c2000801f7800d6e907008f87e90060342b00d9
:105c3000801f7800d2e907008f87e900205d80008f
:105c4000e7f90700f0562b00801f7800cce9070029
:105c50008f87e900405d8000e1f9070060382b0084
:105c6000801f7800c6e907008f87e9001e80fb00cf
:105c70000080fa00000006000200fa0010c0b30025
:105c8000004f7800405d80002058880020612b0084
:105c9000801f7800bae907008f87e900405d800027
:105ca000cff90700801d2b00801f7800b4e90700a2
:105cb0008f87e900d0622b00801f7800b0e90700d1
:105cc0008f87e90060342b00801f7800ace9070063
