:020000040000FA
:10000000830100308A001E28A00003088301B50088
:1000100083128B1C0F28A301A30A8B1083120B1DC4
:100020001928AE0F1728F930AE00A401A40A0B114D
:10003000831235088300A00E200E090021308400B1
:100040002D30302083010330B400FD30B3002D305B
:1000500084002F3034208301522B04068001840A4F
:100060000406031D2D280034AF003F208000840AC1
:1000700004082F060319003435288312B300B41B7B
:10008000482834088A003308B30A0319B40A8200E6
:100090008313341883173308B30A84000008080058
:1000A000FF3FFF3FFF3FFF3FFF3FFF3FFF3FFF3F60
:1000B000FF3FFF3FFF3FFF3FFF3FFF3FFF3FFF3F50
:1000C000FF3FFF3FFF3FFF3FFF3FFF3FFF3FFF3F40
:1000D000FF3FFF3FFF3FFF3FFF3FFF3FFF3FFF3F30
:10059000FF3FFF3FFF3FFF3FFF3FFF3FFF3F831214
:1005A0008512C03083123523851608008312A900F6
:1005B0008512033083123523290835231C23AA0012
:1005C000851608008312AA00851202308312352393
:1005D0002A08352329083523851608008312A90027
:1005E000FC308F0017308E001014AA01FF2A0C1C5B
:1005F000F72A0C10FC308F0017308E00AA0A290849
:100600002A02031CF72A101008000F3083168500F9
:100610002B308700910183128516831681110115F5
:1006200081140110811283129001831601130B169D
:100630008B160B17831208008312AC010712AB0153
:1006400007160030871A0130AC070310AC0D0712F3
:10065000AB0A07302B0207160030871A0130031C43
:10066000242BAC0707122C0808008312AB000712DA
:10067000AC0107122C08AF002B08B100B201AF0A81
:10068000442B0310B10DB20DAF0B412BB11F4A2B00
:1006900005164B2B05120716AC0A08302C0203185E
:1006A0000800392B83120523CF220130EE22B42318
:1006B0008B178B17A40803196E2B871C622B103025
:1006C000A500632BA501A6012508A90038308312D7
:1006D000E2228130822382308223A401A3080319FD
:1006E0005A2B67308312D622AF002F0C031C7A2BB3
:1006F00007157B2B07118312A9012C308312E222EC
:10070000A3015A2B8312A700A0308312D622A8007F
:100710002718281D952B0130EE22A9013030E22246
:10072000A030D622AF002F18902BA718281EA22B7E
:100730000130EE22A9014030E222A030D622AF00E3
:100740002F1A9D2B2719281FAF2B0130EE22A9014C
:100750005030E222A030D622AF002F1BAA2B8512E8
:1007600027083523851608008312CF220130EE2298
:10077000A9012030E222A9012130E222A9010130A1
:10078000E2220730A9002A30E2229030A900293065
:10079000E2220230A9002830E222A030A900313044
:1007A000E222A9013230E2220330A9003530E222F0
:1007B0001E30A9003630E2221030A9003730E22284
:1007C0005030A9004130E222A9014230E2224830F3
:1007D000A9004530E222A901A90A2B30E222043007
:1007E000A9000F30E2220E30D622A100A108031981
:0E07F00008000430A9000F30E22A0134EF3473
:10420000FF00FF00FF00FF00FF00FF00FF00FF00B6
:10421000FF00FF00FF00FF00FF00FF00FF00FF00A6
:10422000FF00FF00FF00FF00FF00FF00FF00FF0096
:10423000FF00FF00FF00FF00FF00FF00FF00FF0086
:10424000FF00FF00FF00FF00FF00FF00FF00FF0076
:10425000FF00FF00FF00FF00FF00FF00FF00FF0066
:10426000FF00FF00FF00FF00FF00FF00FF00FF0056
:10427000FF00FF00FF00FF00FF00FF00FF00FF0046
:10428000FF00FF00FF00FF00FF00FF00FF00FF0036
:10429000FF00FF00FF00FF00FF00FF00FF00FF0026
:1042A000FF00FF00FF00FF00FF00FF00FF00FF0016
:1042B000FF00FF00FF00FF00FF00FF00FF00FF0006
:1042C000FF00FF00FF00FF00FF00FF00FF00FF00F6
:1042D000FF00FF00FF00FF00FF00FF00FF00FF00E6
:1042E000FF00FF00FF00FF00FF00FF00FF00FF00D6
:1042F000FF00FF00FF00FF00FF00FF00FF00FF00C6
:02400E00E4319B
:08400000FF0FFF3FFF3FFF3FF0
:0207FE00EF34D6
:00000001FF
