:020000040000FA
:0400000047EF1CF0BA
:08000800056ED8CF06F0E0CF31
:1000100007F00001E9CF0DF0EACF08F0E1CF09F0D9
:10002000E2CF0AF0D9CF0BF0DACF0CF0F3CF14F017
:10003000F4CF15F0FACF16F000C00FF001C010F0A9
:1000400002C011F003C012F004C013F0F2AA2CEFAA
:1000500000F0F2B4C1EF04F09DA032EF00F09EB0CA
:1000600007EF05F0F2A838EF00F0F2B2AFEF05F0BD
:100070009DAA3EEF00F09EBAA8EF05F00FC000F079
:1000800010C001F011C002F012C003F013C004F060
:100090000E8E0DC0E9FF08C0EAFF09C0E1FF0AC0EB
:1000A000E2FF0BC0D9FF0CC0DAFF14C0F3FF15C08C
:1000B000F4FF16C0FAFF055007C0E0FF06C0D8FFE6
:1000C0001000F2CF0EF0F29EF76ADC0FF66E000E13
:1000D000F7220900F5500EBEF28E1200D04B896E49
:1000E000DAF7A517F8D8CC3B7623C11D539E5D39AE
:1000F000E0C203CFCD95CB1681AB0A8EFB63F9F43A
:10010000901011EE25C56F9704C068075F96436590
:10011000450F84BA579CCE1BA614B6A35CC677D5F0
:10012000B43D9827B9133A2D214018A028DEAC839E
:10013000E3DD696CB1B7492B9D0CC77109F57E826F
:100140006A78D2D71FA7F64C8BC3EF32E5A9377A6E
:10015000D41E7006558D52EC152059DBADBC7F4A7C
:10016000D6BBBEB03E7BBD79B894E12201C41C3140
:100170002E4F4D3675F0AFF28CE70D80196192E489
:10018000B3744635B212FE4E6D9BF1E951FF9FCA22
:100190006602AE0E93EA3C0854346264E691D37D65
:1001A0000BB5A41A5A86A12447DF8FE8883F443351
:1001B00060F34241EB2F9AEDFC48D1728A7356FAF4
:1001C000055E852A2C58E267FD7CA85B30D9385043
:1001D00087DC6BBFC9A29926AA29C800F2CF0EF00E
:1001E000F29EF76AF60FF66E010EF7220900F5503F
:1001F0000EBEF28E12004669726D776172652056EE
:10020000312E332E3120434320323030312D3230E5
:100210003038205261706861656C20416272616D96
:10022000732C207777772E746575746869732E63E5
:100230006F6D0000F2CF0EF0F29EF76A4E0FF66E71
:10024000020EF7220900F5500EBEF28E12007072F7
:100250006F626C656D20696E697469616C697A6939
:100260006E6720636172642C20676F696E6720740B
:100270006F20736C65657000F2CF0EF0F29EF76A26
:10028000920FF66E020EF7220900F5500EBEF28EA6
:10029000120070726F626C656D2072656164696EC8
:1002A000672042504200F2CF0EF0F29EF76AC00F74
:1002B000F66E020EF7220900F5500EBEF28E120005
:1002C00066696C652073797374656D20666F756EF1
:1002D0006400F2CF0EF0F29EF76AEC0FF66E020E9B
:1002E000F7220900F5500EBEF28E1200726F6F7485
:1002F000206469722073697A65206973202575000E
:10030000F2CF0EF0F29EF76A1A0FF66E030EF72286
:100310000900F5500EBEF28E120053504920746849
:10032000726F74746C653D2046415354212074688B
:100330006973206D6F646520646F6573206E6F74E0
:1003400020737570706F727420616C6C20636172C1
:1003500064732100F2CF0EF0F29EF76A6E0FF66E14
:10036000030EF7220900F5500EBEF28E1200535014
:1003700049207468726F74746C653D20534C4F57FC
:100380000000F2CF0EF0F29EF76A9C0FF66E030E9D
:10039000F7220900F5500EBEF28E12004D4F444573
:1003A0002069732053455249414C5F46554C4C5F80
:1003B0004E4F50494E00F2CF0EF0F29EF76AD00F2A
:1003C000F66E030EF7220900F5500EBEF28E1200F3
:1003D0004D4F44452069732050494E20544F2050C2
:1003E0004C415900F2CF0EF0F29EF76AFE0FF66E06
:1003F000030EF7220900F5500EBEF28E12004D4F8B
:10040000444520697320464F55522D464F555200A2
:10041000F2CF0EF0F29EF76A2A0FF66E040EF72264
:100420000900F5500EBEF28E12004D4F4445206972
:100430007320504152414C4C454C20504F52540077
:10044000F2CF0EF0F29EF76A5A0FF66E040EF72204
:100450000900F5500EBEF28E12004D4F4445206942
:10046000732053485546464C452F52414E444F4DFC
:100470000000F2CF0EF0F29EF76A8C0FF66E040EBB
:10048000F7220900F5500EBEF28E12004D4F444582
:100490002069732044454641554C5400F2CF0EF07C
:1004A000F29EF76AB60FF66E040EF7220900F550B9
:1004B0000EBEF28E1200666F6F6665726177203530
:1004C0000000F2CF0EF0F29EF76ADC0FF66E040E1B
:1004D000F7220900F5500EBEF28E12006C6F737495
:1004E000206120736563746F72210000F2CF0EF0FB
:1004F000F29EF76A060FF66E050EF7220900F55018
:100500000EBEF28E12005F736F6E672073746F7091
:1005100070656420627920757365725F0000F2CFA8
:100520000EF0F29EF76A380FF66E050EF7220900FC
:10053000F5500EBEF28E1200736F6D6520696E6607
:100540006F2061626F757420636172643A00F2CF4C
:100550000EF0F29EF76A680FF66E050EF72209009C
:10056000F5500EBEF28E12002062706273743A254E
:10057000344C58202000F2CF0EF0F29EF76A900F14
:10058000F66E050EF7220900F5500EBEF28E12002F
:10059000204250425F62707365633A25344C5820A4
:1005A0002000F2CF0EF0F29EF76ABC0FF66E050E39
:1005B000F7220900F5500EBEF28E12002042504282
:1005C0005F53635065433A25344C58202000F2CFE6
:1005D0000EF0F29EF76AE80FF66E050EF72209009C
:1005E000F5500EBEF28E1200204250425F527376DA
:1005F00064536343743A25344C5820200000F2CFF2
:100600000EF0F29EF76A180FF66E060EF72209003A
:10061000F5500EBEF28E1200204250425F4E6D46E3
:1006200041543A25344C58202000F2CF0EF0F29E6F
:10063000F76A440FF66E060EF7220900F5500EBE5B
:10064000F28E12002066617473746172743A202510
:10065000344C58202000F2CF0EF0F29EF76A700F53
:10066000F66E060EF7220900F5500EBEF28E12004D
:1006700020466972737444617461536563746F7268
:100680003A25344C58202000F2CF0EF0F29EF76A43
:10069000A20FF66E060EF7220900F5500EBEF28E7E
:1006A000120070726F626C656D2072656164696EB4
:1006B0006720666174207461626C652C20717569B5
:1006C0007474696E6720636861696E2E20536F725F
:1006D00072792100F2CF0EF0F29EF76AEE0FF66EFD
:1006E000060EF7220900F5500EBEF28E1200565388
:1006F000313031313A2068617264207265736574FB
:100700000000F2CF0EF0F29EF76A1C0FF66E070E95
:10071000F7220900F5500EBEF28E1200200A0D00DD
:10072000F2CF0EF0F29EF76A3A0FF66E070EF7223E
:100730000900F5500EBEF28E12004D4D432F53446A
:1007400020696E69743A2053656E742030783430B5
:100750002028636D643029205350490A0D00F2CFE0
:100760000EF0F29EF76A780FF66E070EF722090078
:10077000F5500EBEF28E12004D4D432F53442069AA
:100780006E69743A20476F7420726573706F6E7370
:1007900065200A0D0000F2CF0EF0F29EF76AB00F4E
:1007A000F66E070EF7220900F5500EBEF28E12000B
:1007B000534420696E69743A20636F6D6D616E6495
:1007C00035352E2E2E00F2CF0EF0F29EF76AE00F96
:1007D000F66E070EF7220900F5500EBEF28E1200DB
:1007E0006E6F7420616E2053442C206D61796265B8
:1007F00020616E206D6D633F0000F2CF0EF0F29E1F
:10080000F76A140FF66E080EF7220900F5500EBEB7
:10081000F28E12007965732C206974277320616E43
:10082000206D6D632100F2CF0EF0F29EF76A400F4B
:10083000F66E080EF7220900F5500EBEF28E120079
:100840006661696C6564206F7574206F66206964E9
:100850006C652D2D2D00F2CF0EF0F29EF76A700F11
:10086000F66E080EF7220900F5500EBEF28E120049
:100870004D4D432F534420696E69743A20476F747D
:10088000206F7574206F662069646C6520726573D3
:10089000706F6E7365200A0D0000F2CF0EF0F29EAD
:1008A000F76AB40FF66E080EF7220900F5500EBE77
:1008B000F28E12004D4D432F534420696E69743AF5
:1008C00020476F742073657420626C6F636B206CBB
:1008D000656E67746820726573706F6E73652E2025
:1008E000446F6E652E0A0D00F2CF0EF0F29EF76A8D
:1008F000020FF66E090EF7220900F5500EBEF28EB9
:1009000012004920616D20746865204B696E672074
:100910000000F2CF0EF0F29EF76A2C0FF66E090E71
:10092000F7220900F5500EBEF28E12006F662046C7
:1009300072616E6365210000F2CF0EF0F29EF76ADD
:10094000520FF66E090EF7220900F5500EBEF28E18
:10095000120077686F2061746500F2CF0EF0F29E8E
:10096000F76A740FF66E090EF7220900F5500EBEF5
:10097000F28E1200616C6C20746865207069653FAE
:100980002100300E0301F06F0001DE531DE1030171
:1009900061A105D060C3DBF060C3DCF016D083B486
:1009A0000AD00001DB3D01D001D0DB2BDC3D01D0C2
:1009B00001D0DC2B030183B608D00001DB5301E03A
:1009C000DB07DC5301E0DC0703010001DA5304E13B
:1009D00060C3DBF060C3DCF0DA2D06D083CFDBF040
:1009E000F00EDB17DBC0DCF0DA5105080DE1030186
:1009F00061A105D060C3DBF060C3DCF004D083CF1D
:100A0000DBF083CFDCF00001F2943EEF00F09E902B
:100A10003EEF00F0F29CF29EF2BEFDD79D9A9EAA98
:100A2000FED7AECFF0F30301F0519EA8FED7AD6E16
:100A30000001DD516C0805E1F0C3DBF0300EDD6F25
:100A400080D0DD51720805E1F0C3DCF0300EDD6FBF
:100A500078D0DD51760807E1F0C3DCF0F0C3DBF0BD
:100A6000300EDD6F6ED0DD513008D8A46AD003019E
:100A7000F0516C0805E16C0E0001DD6F62D00301DE
:100A8000F051720805E1720E0001DD6F5AD00301CA
:100A9000F051760805E1760E0001DD6F52D00301BA
:100AA000F051610806E10001E099300EDD6F49D098
:100AB0000301F051620806E10001E089300EDD6FAC
:100AC00040D00301F0516B0808E10001E081E093A0
:100AD000300EDD6FE09D35D00301F05174082CE13C
:100AE0009EAAFED7AECFF0F3F0519EA8FED7AD6E12
:100AF000F26BF0C3F1F3F1C3F2F3F16B9EAAFED7F0
:100B0000AECFF0F3F0519EA8FED7AD6EF051F127B5
:100B1000000EF223F2C3F4F3F1C3F3F30001E0811A
:100B2000E083F56BF46BF4C3F3F0F3C3F2F0E09DF4
:100B3000300EDD6F06D00301F051700803E10001B3
:100B4000E07D0301C00EF2129D8A0001ACEF05F0BA
:100B5000DA51060801E15ED79E9A3EEF00F0DA51C5
:100B6000040818E184A00CD0740E9EA8FED7AD6EC8
:100B7000F56BF46BF36B83CFF2F0E081E083E087F9
:100B800084B008D0760E9EA8FED7AD6E83CFDBF082
:100B9000DBC0DCF0DA2D11D083509EA8FED7AD6EFD
:100BA000F56BF46BF36B83CFF2F00F0EF217F36B70
:100BB000F46BF56BE081E083E087DA51050801E131
:100BC000E081F2923EEF00F0030EEA6EE40EE96E71
:100BD000EF500EE00C0E016E006A002EFED7012EC3
:100BE000FBD7F70E006E002EFED700D0EF2EF2D707
:100BF000000C030170532EE1040E716FC80EE46FF8
:100C00000001E2DF0301712FF9D7716B715100010F
:100C10006BDE0301712B006E00509EA8FED7AD6EF7
:100C20000E0E715DF3E1716B7151000172DE030113
:100C3000712B006E00509EA8FED7AD6E0A0E715D3E
:100C4000F3E1020E716FC80EE46F0001BDDF030116
:100C5000712FF9D7702D46D0040E716FC80EE46F56
:100C60000001B2DF0301712FF9D7FE0E9EA8FED757
:100C7000AD6E010E9EA8FED7AD6EFE0E9EA8FED7ED
:100C8000AD6E020E9EA8FED7AD6E716B7151000164
:100C900053DE0301712B006E00509EA8FED7AD6E8F
:100CA000070E715DF3E1FE0E9EA8FED7AD6EC00E7D
:100CB0009EA8FED7AD6E716B715100014EDE03012F
:100CC000712B006E00509EA8FED7AD6E0D0E715DAB
:100CD000F3E1020E716FC80EE46F000175DF0301CE
:100CE000712FF9D70001ACEF1CF0020E0301705F09
:100CF0000CE3030EEA6E700EE96EEF5006E0020E92
:100D0000006E002EFED7EF2EFAD70001ECEF1CF09C
:100D100003019C6B070E9D6F8B96030E006E002ED9
:100D2000FED79BC300F09D51016E04E0D8900032C5
:100D3000012EFCD78B9800B08B888B86210E006E1D
:100D4000002EFED782A00BD0010E006E9D51016EC9
:100D500004E0D8900036012EFCD700509C138B96EF
:100D6000210E006E002EFED79D519D07000AD9E18D
:100D70009CC301F00001000CC66A8B828A8694989D
:100D80008A98949691C39BF3C3DF92C39BF3C0DF11
:100D9000030E0301986F950E976F010E9725016E54
:100DA000000E9821036E01C099F39A6F93C39BF3D1
:100DB0000001AEDF9AC3EAFF99C3E9FF01C0EFFF6C
:100DC000030E0301986F950E98C303F0996F98C3B3
:100DD0009AF394C39BF300019BDF9AC3EAFF99C384
:100DE000E9FF01C0EFFF8A8894885FC3C6FF030153
:100DF00095C301F096C302F00001000C0301E75116
:100E0000016AE65D03E2E6C300F00CD0006A080E5A
:100E1000E86FE6370036E751005CD8B0006E013667
:100E2000E82FF7D70001000C0150E4C3E6F3640E8D
:100E30000301E76F0001E2DF00C0E4F30150300E70
:100E400008E10301E5A30ED0E5B70CD0E5B9200E0B
:100E500004D00301E597E599E581012601509EA89C
:100E6000FED7AD6EE4C3E6F30A0EE76F0001C6DFFE
:100E700000C0E4F30150300E08E10301E5B70BD0E8
:100E8000E5A109D0E5B9200E0001012601509EA878
:100E9000FED7AD6E0301300EE427E4519EA8FED7C5
:100EA000AD6E0001000C0301E36BE3510908D8A00B
:100EB000E6D28B808B961E0EE46F000185DEC78C18
:100EC000220EC66E8B828B901E0E0301E46F000112
:100ED0007BDE0301E16BE151090807E3C950FF0E16
:100EE000C96EC730FEE3E12BF6D78B92C950400E96
:100EF000C96EC730FEE3C950C96AC730FEE3C950A6
:100F0000C96AC730FEE3C950C96AC730FEE3C95099
:100F1000C96AC730FEE3C950950EC96EC730FEE3FB
:100F2000E0532EE0E46BE451000181EC03F0000992
:100F300007E00301E42B9EA8FED7AD6EF4D70001B5
:100F40000D0E9EA8FED7AD6E0A0E9EA8FED7AD6E02
:100F50000301E46BE451000190EC03F0000907E0A9
:100F60000301E42B9EA8FED7AD6EF4D700010D0E51
:100F70009EA8FED7AD6E0A0E9EA8FED7AD6E0301E9
:100F8000010EEA6F020EEC6F080EEB6FEB5302E1FD
:100F9000EC5312E0C950FF0EC96EC730FEE3C9CF53
:100FA000EDF3EA51ED5D03E1000E016E07D0EB5168
:100FB000D8B4EC07EB07EAD7010E016E0152D8A4B2
:100FC0005CD2E05317E0E46BE4510001AFEC03F0B6
:100FD000000907E00301E42B9EA8FED7AD6EF4D70D
:100FE00000010D0E9EA8FED7AD6E0A0E9EA8FED77C
:100FF000AD6E0301E16BE26BE0531FE00D0E9EA8A6
:10100000FED7AD6E0A0E9EA8FED7AD6EE46BE4511E
:101010000001CBEC03F00301E42B006E00509EA80E
:10102000FED7AD6E150EE45DF2E10D0E9EA8FED763
:10103000AD6E0A0E9EA8FED7AD6E8B82C950FF0E14
:10104000C96EC730FEE3C950FF0EC96EC730FEE35C
:101050008B92C950770EC96EC730FEE3C950C96A7A
:10106000C730FEE3C950C96AC730FEE3C950C96A38
:10107000C730FEE3C950C96AC730FEE3C950F00E5D
:10108000C96EC730FEE3800EE46F020EE66F080EF5
:10109000E56FE55302E1E65313E0C950FF0EC96E58
:1010A000C730FEE3C9CFE7F3E451E717E75303E1A5
:1010B000000E016E07D0E551D8B4E607E507E9D781
:1010C000010E016E012C91D0E12BE1510A08D8B03C
:1010D0008BD0E26BE05317E0E46BE4510001E3ECEA
:1010E00003F00301E42B006E00509EA8FED7AD6E06
:1010F000180EE45DF2E10D0E9EA8FED7AD6E0A0E4D
:101100009EA8FED7AD6E8B82C950FF0EC96EC73048
:10111000FEE3C950FF0EC96EC730FEE38B92C95083
:10112000410EC96EC730FEE3C950C96AC730FEE33D
:10113000C950C96AC730FEE3C950C96AC730FEE367
:10114000C950C96AC730FEE3C950FF0EC96EC73027
:10115000FEE3E22BE0530BE02E0E9EA8FED7AD6E11
:10116000E2C3E4F31B0EE56F00015EDE0301810EB6
:10117000E46F020EE66F080EE56FE55302E1E653F9
:1011800013E0C950FF0EC96EC730FEE3C9CFE7F3C5
:10119000E451E717E75303E1000E016E07D0E55174
:1011A000D8B4E607E507E9D7010E016E01521AE14E
:1011B000E05317E0E46BE4510001FDEC03F00301A0
:1011C000E42B006E00509EA8FED7AD6E110EE45DBC
:1011D000F2E10D0E9EA8FED7AD6E0A0E9EA8FED7B8
:1011E000AD6E8FD0E23D8FD74ED7C950FF0EC96E7E
:1011F000C730FEE3C950FF0EC96EC730FEE3C950C9
:10120000FF0EC96EC730FEE3C950FF0EC96EC7306E
:10121000FEE3C950690EC96EC730FEE3C950C96A02
:10122000C730FEE3C950C96AC730FEE3C950C96A76
:10123000C730FEE3C950C96AC730FEE3C950FF0E8C
:10124000C96EC730FEE3E12BE0531BE02E0E9EA8D3
:10125000FED7AD6E2E0E9EA8FED7AD6E2E0E9EA8AA
:10126000FED7AD6EE1C3E4F31B0EE56F0001DCDDDC
:10127000640E9EA8FED7AD6E200E9EA8FED7AD6E62
:101280000301810EE46F020EE66F080EE56FE55371
:1012900002E1E65313E0C950FF0EC96EC730FEE30A
:1012A000C9CFE7F3E451E717E75303E1000E016EFE
:1012B00007D0E551D8B4E607E507E9D7010E016E7E
:1012C000015201E11ED0E13D97D6E05317E0E46BF7
:1012D000E451000113EC04F00301E42B006E005014
:1012E0009EA8FED7AD6E150EE45DF2E10D0E9EA830
:1012F000FED7AD6E0A0E9EA8FED7AD6E010E016E32
:10130000BED0E05327E00D0E9EA8FED7AD6E0A0EAC
:101310009EA8FED7AD6EE46BE45100012BEC04F007
:10132000000907E00301E42B9EA8FED7AD6EF4D7B9
:1013300000010D0E9EA8FED7AD6E0A0E9EA8FED728
:10134000AD6E0D0E9EA8FED7AD6E0A0E9EA8FED7FE
:10135000AD6E03018B82C950FF0EC96EC730FEE32C
:10136000C950FF0EC96EC730FEE3C950FF0EC96EEB
:10137000C730FEE3C950FF0EC96EC730FEE38B9243
:10138000C950FF0EC96EC730FEE3C950500EC96E7A
:10139000C730FEE3C950C96AC730FEE3C950C96A05
:1013A000C730FEE3C950020EC96EC730FEE3C95014
:1013B000C96AC730FEE3C950FF0EC96EC730FEE3ED
:1013C000EA6B020EEC6F080EEB6FEB5302E1EC538D
:1013D00012E0C950FF0EC96EC730FEE3C9CFEDF36E
:1013E000EA51ED5D03E1000E016E07D0EB51D8B478
:1013F000EC07EB07EAD7010E016E012C03D0010EBA
:10140000016E3DD0C950FF0EC96EC730FEE3C95012
:10141000FF0EC96EC730FEE38B82E0531FE0E46B22
:10142000E45100014DEC04F0000907E00301E42B56
:101430009EA8FED7AD6EF4D700010D0E9EA8FED774
:10144000AD6E0A0E9EA8FED7AD6E0D0E9EA8FED7FD
:10145000AD6E0A0E9EA8FED7AD6E0301C950FF0EF9
:10146000C96EC730FEE3C950FF0EC96EC730FEE338
:101470005FC3C6FF000E016E02D0E32B16D500013C
:10148000000C0301E46BE4510908D8A0BED05FC38F
:10149000C6FFD890E66BE035E76FE135E86FE235DF
:1014A000E96FC950FF0EC96EC730FEE3C950FF0E89
:1014B000C96EC730FEE38B92C950510EC96EC7305A
:1014C000FEE3030EEB6FE60EEA6F030EEA25016EF4
:1014D000000EEB21036E01C0E9FFEA6EEFCFECF3E3
:1014E000C950ECC3C9FFC730FEE3030EEB6FE60E35
:1014F000EA6F020EEA25016E000EEB21036E01C0B9
:10150000E9FFEA6EEFCFECF3C950ECC3C9FFC73077
:10151000FEE3030EEB6FE60EEA6F010EEA25016EA5
:10152000000EEB21036E01C0E9FFEA6EEFCFECF392
:10153000C950ECC3C9FFC730FEE3C950C96AC73000
:10154000FEE3C950FF0EC96EC730FEE3EA6B020E20
:10155000EC6F080EEB6FEB5302E1EC5312E0C95055
:10156000FF0EC96EC730FEE3C9CFEDF3EA51ED5D62
:1015700003E1000E016E07D0EB51D8B4EC07EB0786
:10158000EAD7010E016E015233E1FE0EEA6F020E40
:10159000EC6F080EEB6FEB5302E1EC5312E0C95015
:1015A000FF0EC96EC730FEE3C9CFEDF3EA51ED5D22
:1015B00003E1000E016E07D0EB51D8B4EC07EB0746
:1015C000EAD7010E016E015203E1000E016E1FD039
:1015D000E56BE53D01D00CD0C950FF0EC96EC73098
:1015E000FEE3C950FF0EC96EC730FEE3E52BF1D70D
:1015F0008B82C950FF0EC96EC730FEE3C950FF0E83
:10160000C96EC730FEE3E42B3ED7010E016E000128
:10161000000C0301E1530CE0C950FF0EC96EC73046
:10162000FEE3C950FF0EC96EC730FEE3E107F2D7F3
:101630000001000CC950FF0EC96EC730FEE3C9CFD0
:1016400018F0C950FF0EC96EC730FEE3C9CF19F0BC
:10165000000CC950FF0EC96EC730FEE3C950FF0E23
:10166000C96EC730FEE38B82C950FF0EC96EC7300A
:10167000FEE3C950FF0EC96EC730FEE3000C030144
:10168000EA6BEB6B010EEC6FDA6AD96A030EEF6F4F
:10169000E20EEE6F030EEA6EE60EE96EEFC3E2FFB6
:1016A000EEC3E1FFECC3EDF3D890E550EE02F3504A
:1016B000EA23F450EB23ED2FF7D7EAC3DEFFEBC3A9
:1016C000EAF3EB6BD8B0EB2BEE2BD8B4EF2BEC2B73
:1016D000EC510508DFE10001000C030177BF10D0D9
:1016E0000F0E006E763900160A0E005C03E2300E13
:1016F000002602D07751002600509EA8FED7AD6E7E
:101700000F0E76170A0E765D02E2300E02D0779F3A
:101710007751762776519EA8FED7AD6E0001000C5A
:10172000E36BE26B0301E36BE26BE16BE06B0001E7
:10173000A8DEE30E0301E16F00016BDF7BDF19C060
:10174000E3F00001E26B1850E227000EE3231B0ECA
:101750000301E16F00015DDF7CDF0301776B766BD6
:10176000E3C075F3E2C074F377C3E3F376C3E2F347
:10177000E3C0E1F3E2C0E0F3000183DE050E030104
:10178000E16F000146DF56DFE96B19C0E8F052DF78
:10179000000E0001E8271850E92319C0E1F04ADFE4
:1017A0000301766B185076250001E66F000E0301E9
:1017B00019200001E76F3EDF18C01AF13BDF3ADF66
:1017C00039DF060E0301E16F000123DF33DF010182
:1017D000156B146B136B126B0301766B756B76C311
:1017E00003F075C302F0006A005018240101126F63
:1017F000000E1920136F000E0220146F000E03203C
:10180000156F15C173F314C172F313C171F312C1D3
:1018100070F300010FDF0301766B756B76C303F085
:1018200075C302F0006A005018240101126F000E07
:101830001920136F000E0220146F000E0320156F85
:1018400013C115F112C114F1126B136B0301705126
:101850000101122703017151010113230301725188
:101860000101142303017351010115230001E2DE7C
:10187000E1DEE0DE0301766B756B76C303F075C3C2
:1018800002F0006A005018240101166F000E1920A2
:10189000176F000E0220186F000E0320196F19C178
:1018A00073F318C172F317C171F316C170F300011D
:1018B000C1DEE70E0301E16F0001ABDECADE03010A
:1018C000766B756B76C303F075C302F0006A005047
:1018D00018240101166F000E1920176F000E022048
:1018E000186F000E0320196F17C119F116C118F1F6
:1018F000166B176B0301705101011627030171511B
:1019000001011723030172510101182303017351CF
:101910000101192319C109F118C108F117C107F113
:1019200016C106F10001E651E225F66FE751E32109
:10193000F76FF86BF96B0301E56BE46BE36B1AC1AE
:10194000E2F315C1E9F314C1E8F313C1E7F312C1DF
:10195000E6F3000194DE0050E625E46F0150E72134
:10196000E56F0301776B766BE3C075F3E2C074F348
:10197000E4C000F0026A036A005074250001FA6FA7
:10198000E551030175210001FB6F0250030176212F
:101990000001FC6F0350030177210001FD6F0D0E64
:1019A0009EA8FED7AD6E0A0E9EA8FED7AD6E0301AF
:1019B000746B745100018FEC02F00301742B006E04
:1019C00000509EA8FED7AD6E150E745DF2E10D0EAF
:1019D0009EA8FED7AD6E0A0E9EA8FED7AD6E746BA4
:1019E00074510001A7EC02F00301742B006E00504B
:1019F0009EA8FED7AD6E070E745DF2E1E3C076F3EC
:101A0000370E776F000169DEE2C076F3370E03010F
:101A1000776F000162DE200E9EA8FED7AD6E200E0D
:101A20009EA8FED7AD6E0D0E9EA8FED7AD6E0A0E17
:101A30009EA8FED7AD6E0301746B74510001BBEC20
:101A400002F00301742B006E00509EA8FED7AD6E0D
:101A50000B0E745DF2E1E9C076F3370E776F00018B
:101A60003CDEE8C076F3370E0301776F000135DE08
:101A7000200E9EA8FED7AD6E200E9EA8FED7AD6E9E
:101A80000D0E9EA8FED7AD6E0A0E9EA8FED7AD6EB7
:101A90000301746B74510001D1EC02F00301742B4B
:101AA000006E00509EA8FED7AD6E0B0E745DF2E185
:101AB000020E756F300E9EA8FED7AD6E752FFAD749
:101AC000E1C076F3370E776F000107DE200E9EA887
:101AD000FED7AD6E200E9EA8FED7AD6E0D0E9EA851
:101AE000FED7AD6E0A0E9EA8FED7AD6E0301746BD5
:101AF00074510001E7EC02F00301742B006E0050FA
:101B00009EA8FED7AD6E0E0E745DF2E1E7C076F3CF
:101B1000370E776F0001E1DDE6C076F3370E030183
:101B2000776F0001DADD200E9EA8FED7AD6E200E85
:101B30009EA8FED7AD6E0D0E9EA8FED7AD6E0A0E06
:101B40009EA8FED7AD6E0301746B74510001FFECCB
:101B500002F00301742B006E00509EA8FED7AD6EFC
:101B60000B0E745DF2E1020E756F300E9EA8FED76B
:101B7000AD6E752FFAD71AC176F3370E776F000165
:101B8000ACDD200E9EA8FED7AD6E200E9EA8FED71F
:101B9000AD6E0D0E9EA8FED7AD6E0A0E9EA8FED7A6
:101BA000AD6E0301746B7451000115EC03F0030179
:101BB000742B006E00509EA8FED7AD6E0B0E745DA8
:101BC000F2E1F7C076F3370E776F000186DDF6C0DD
:101BD00076F3370E0301776F00017FDD200E9EA89C
:101BE000FED7AD6E200E9EA8FED7AD6E0D0E9EA840
:101BF000FED7AD6E0A0E9EA8FED7AD6E0301746BC4
:101C0000745100012BEC03F00301742B006E0050A3
:101C10009EA8FED7AD6E110E745DF2E1E5C076F3BD
:101C2000370E776F000159DDE4C076F3370E0301FC
:101C3000776F000152DD200E9EA8FED7AD6E200EFC
:101C40009EA8FED7AD6E0D0E9EA8FED7AD6E0A0EF5
:101C50009EA8FED7AD6E000C0301DA6BD96BD8904D
:101C6000D537D637D737D837030EE16FD50EE96EA3
:101C7000E1C3EAFFEFCFDFF3D6C3D5F3D7C3D6F383
:101C8000D8C3D7F3D86B0001F6510301D527000163
:101C9000F7510301D6230001F8510301D7230001B6
:101CA000F9510301D823D8C3E3F3D7C3E2F3D6C372
:101CB000E1F3D5C3E0F3000141EC0AF0012C52D06E
:101CC0005E0E9EA8FED7AD6ED8C3E3F3D7C3E2F392
:101CD000D6C3E1F3D5C3E0F341EC0AF0012C42D0C6
:101CE000260E9EA8FED7AD6E0301E06B000153ECFB
:101CF00007F0D8C3E3F3D7C3E2F3D6C3E1F3D5C308
:101D0000E0F341EC0AF0012C2DD02A0E9EA8FED75C
:101D1000AD6E0301E06B000153EC07F0D8C3E3F3B1
:101D2000D7C3E2F3D6C3E1F3D5C3E0F341EC0AF045
:101D3000012C18D00301E06BE051000144EC03F0EA
:101D40000301E02B006E00509EA8FED7AD6E310E51
:101D5000E05DF2E1FF0E006E016E026E036E43D095
:101D60000001E081DFC3E1F354DC64DC0301E26BDA
:101D7000036A1850E225D96F03501920DA6F000169
:101D800059DC0301DE6BDD6BDC6BDB6BE26B036A42
:101D90001850E225DB6F03501920DC6FDD6BDE6B22
:101DA000DCC3DEF3DBC3DDF3DB6BDC6B026A036AEF
:101DB000D951DB27DA51DC230250DD230350DE2327
:101DC000FF0ED880DF55E06FE16F000122DC32DCCE
:101DD00031DC3FDCDBC300F0DCC301F0DDC302F02B
:101DE000DEC303F003010001000C19C109F118C1A1
:101DF00008F117C107F116C106F10301736B726B8D
:101E0000716B706B09C10DF108C10CF107C10BF1C9
:101E100006C10AF10DC1D8F30CC1D7F30BC1D6F33B
:101E20000AC1D5F3000118DF03C009F102C008F1AF
:101E300001C007F100C006F106C174F307C175F3D4
:101E400008C176F3010109510F0B0301776F010EF1
:101E50007027D8B0712BD8B4722BD8B4732B7751AC
:101E60000F080CE3CFE17651FF0808E3CBE1755191
:101E7000FF0804E3C7E17451EE08C4E273C3E5F35D
:101E800072C3E4F371C3E3F370C3E2F3E96BE86B8D
:101E9000E76BE1C0E6F300013FEC0BF003C011F18A
:101EA00002C010F101C00FF100C00EF101010E37A8
:101EB0000F37103711370E370F37103711370E37EE
:101EC0000F37103711370E370F3710371137F00E25
:101ED0000E17FF0E0E27D8A00F27D8A01027D8A0C6
:101EE00011270001E7EF1DF0110EC26E0A0EC16E40
:101EF0003E0EC06EC282C2A201D0FDD7C4CF60F335
:101F00000301605302E1010E606F0001000C016AE1
:101F1000026A006A036A0301D85102E1D75118E04E
:101F2000100ED96FD890D537D63700360336D85132
:101F3000035C02E1D751005C07E3D751005ED8A0F3
:101F40000306D851035ED88001360236D92FEAD76E
:101F50000001000C006A016A026A036A0301AB6BAC
:101F6000AC6BAD6BAE6BAA51A911A811A7112CE0F7
:101F7000200EAF6FD890A337A437A537A637AB375D
:101F8000AC37AD37AE37AA51AE5D08E1A951AD5DB2
:101F900005E1A851AC5D02E1A751AB5D0FE3A7518C
:101FA000AB5FA851D8A0A83DAC5FA951D8A0A93D6E
:101FB000AD5FAA51D8A0AA3DAE5FD88000360136E9
:101FC00002360336AF2FD6D7030EEA6EAB0EE96E9C
:101FD0000001000C0301D551D703F3CF01F0F4CF7A
:101FE00000F0D803F3500026D651D703F350002059
:101FF000026E00013DEF10F00301D46BCD6BCC6B92
:10200000CB6BCA6B19C109F118C108F117C107F1EF
:1020100016C106F17731036E7631026E7531016EAD
:102020007431006E03320232013200320332023266
:1020300001320032033202320132003200C0D0F3EA
:1020400001C0D1F3D1C3D3F3D0C3D2F3D1C3D6F3FC
:10205000D0C3D5F3D86BE1C0D7F3000158DF02C07D
:10206000D1F301C0D0F3D1C3D6F3D0C3D5F303016C
:10207000D86BE1C0D7F30001ADD702C0CFF301C0E8
:10208000CEF30301CE51D25DCE6FCF51D359CF6F76
:10209000D05302E1D1532AE009C10DF108C10CF17E
:1020A00007C10BF106C10AF10DC1D8F30CC1D7F37A
:1020B0000BC1D6F30AC1D5F30001CEDD03C009F18F
:1020C00002C008F101C007F100C006F106C1CAF361
:1020D00007C1CBF308C1CCF3010109510F0B030178
:1020E000CD6FD051D8B4D107D007D2D7CD510E087B
:1020F00013E2FF0A0DE1CC51FE080EE2FF0A08E1EF
:10210000CB51FE0809E2FF0A03E1CA51EF0804E2DD
:10211000020E016E8BEF14F0020E0101065D030149
:10212000C66F000E010107590301C76F000E0101C0
:1021300008590301C86F000E010109590301C96F55
:10214000E1C000F0016A026A036A03C0D8F302C06A
:10215000D7F301C0D6F3E1C0D5F3C9C3E5F3C8C3D3
:10216000E4F3C7C3E3F3C6C3E2F303C0E9F302C079
:10217000E8F301C0E7F3E1C0E6F300013FEC0BF048
:1021800003C0C9F302C0C8F301C0C7F300C0C6F35F
:10219000FA510301C6270001FB510301C7230001C7
:1021A000FC510301C8230001FD510301C923026A48
:1021B000036ACE51C627CF51C7230250C82303500C
:1021C000C923C9C3E3F3C8C3E2F3C7C3E1F3C6C37A
:1021D000E0F3000141EC0AF0030174510F0BD56FDD
:1021E000D66BD76BD86BD535006ED635016ED7352B
:1021F000026ED835036E00360136023603360036DD
:102200000136023603360036013602360336F00E4A
:10221000001600C0D4F3D4C3E1F3000109EC0BF0C5
:102220000301BB6BBB511F08D8A000D100011AEC01
:102230000BF00301D42B036ABB51BA0F016E000EE1
:10224000032203C0D6F3036ABB519A0FE96E000E56
:102250000320EA6EEFCFD7F3D6C3EAFF01C0E9FF50
:10226000D7C3EFFF036ABB519A0F016E000E032222
:1022700003C0D6F3036ABB517A0FE96E000E032048
:10228000EA6EEFCFD7F3D6C3EAFF01C0E9FFD7C3A9
:10229000EFFF036ABB517A0F016E000E032203C0E9
:1022A000D6F3036ABB515A0FE96E000E0320EA6EA3
:1022B000EFCFD7F3D6C3EAFF01C0E9FFD7C3EFFFE3
:1022C000036ABB515A0F016E000E032203C0D6F3FE
:1022D000036ABB513A0FE96E000E0320EA6EEFCF9E
:1022E000D7F3D6C3EAFF01C0E9FFD7C3EFFF036A04
:1022F000BB513A0F016E000E032203C0D6F3036AEE
:10230000BB511A0FE96E000E0320EA6EEFCFD7F330
:10231000D6C3EAFF01C0E9FFD7C3EFFF036ABB5191
:102320001A0FE96E000E0320EA6E18C0EFFFBB2BF8
:10233000036ABB51BA0F016E000E032203C0D6F32D
:10234000036ABB519A0FE96E000E0320EA6EEFCFCD
:10235000D7F3D6C3EAFF01C0E9FFD7C3EFFF036A93
:10236000BB519A0F016E000E032203C0D6F3036A1D
:10237000BB517A0FE96E000E0320EA6EEFCFD7F360
:10238000D6C3EAFF01C0E9FFD7C3EFFF036ABB5121
:102390007A0F016E000E032203C0D6F3036ABB510D
:1023A0005A0FE96E000E0320EA6EEFCFD7F3D6C3C3
:1023B000EAFF01C0E9FFD7C3EFFF036ABB515A0F21
:1023C000016E000E032203C0D6F3036ABB513A0F1D
:1023D000E96E000E0320EA6EEFCFD7F3D6C3EAFF13
:1023E00001C0E9FFD7C3EFFF036ABB513A0F016E8B
:1023F000000E032203C0D6F3036ABB511A0FE96E25
:10240000000E0320EA6EEFCFD7F3D6C3EAFF01C078
:10241000E9FFD7C3EFFF036ABB511A0FE96E000E45
:102420000320EA6E19C0EFFFBB2BFCD6FF0ED8804D
:10243000D455D56FE16F000109EC0BF01AEC0BF0ED
:102440001AEC0BF029EC0BF01A52D8B44FD11A50F9
:10245000E508D8B44BD10301BA6BBC6BBC5114086E
:102460000BE3036ABC51790FE96E030E0320EA6E99
:10247000FF0EEF6EBC2BF2D7BB6BBBC3BAF3BB51E5
:102480000A081AE3BA51010B006ED66BE8B0D68F7A
:10249000BA51FE0B006ED89000320050D611D86FA2
:1024A000036ABB511A0FE96E000E0320EA6EEF506B
:1024B000D825BA6FBB2BE3D7BE6B4750BA5DD8A403
:1024C000FAD03BC079F33DC07AF33FC07BF341C003
:1024D0007CF343C07DF348C07EF34AC07FF34CC019
:1024E00080F34EC081F350C082F352C083F356C0D4
:1024F00084F358C085F30D0EBE6FBC6BBC510C0845
:102500000DE3036ABC51790FE96E030E0320EA6EF6
:10251000EF5202E1BCC3BEF3BC2BF0D76750BA5DEB
:10252000D8A4C8D05BC086F35DC087F35FC088F3D2
:1025300061C089F363C08AF368C08BF36AC08CF30F
:102540006CC08DF36EC08EF370C08FF372C090F3C9
:1025500076C091F378C092F3190EBE6F0D0EBC6F6A
:10256000BC5119080DE3036ABC51790FE96E030EE3
:102570000320EA6EEF5202E1BCC3BEF3BC2BF0D7DE
:10258000000187510301BA5DD8A494D07BC093F3B6
:102590007DC094F37FC095F381C096F383C097F319
:1025A00088C098F38AC099F38CC09AF38EC09BF3CD
:1025B00090C09CF392C09DF396C09EF398C09FF389
:1025C000260EBE6F1A0EBC6FBC5126080DE3036ABF
:1025D000BC51790FE96E030E0320EA6EEF5202E15F
:1025E000BCC3BEF3BC2BF0D70001A7510301BA5DF9
:1025F0002EE19BC0A0F39DC0A1F39FC0A2F3A1C098
:10260000A3F3A3C0A4F3A8C0A5F3AAC0A6F3ACC0CB
:10261000A7F3AEC0A8F3B0C0A9F3B2C0AAF3B6C086
:10262000ABF3B8C0ACF3330EBE6F270EBC6FBC511A
:1026300033080DE3036ABC51790FE96E030E0320E2
:10264000EA6EEF5202E1BCC3BEF3BC2BF0D700012F
:10265000C7510301BA5D2EE1BBC0ADF3BDC0AEF3FF
:10266000BFC0AFF3C1C0B0F3C3C0B1F3C8C0B2F3D1
:10267000CAC0B3F3CCC0B4F3CEC0B5F3D0C0B6F388
:10268000D2C0B7F3D6C0B8F3D8C0B9F3400EBE6F0E
:10269000340EBC6FBC5140080DE3036ABC51790F86
:1026A000E96E030E0320EA6EEF5202E1BCC3BEF3F3
:1026B000BC2BF0D71AD01AC079F31BC07AF31CC018
:1026C0007BF31DC07CF31EC07DF31FC07EF320C0D2
:1026D0007FF321C080F32E0E816F22C082F323C0CE
:1026E00083F324C084F30C0EBE6F00011A5205E17F
:1026F000000E016E03010FD100011A50E508D8B495
:1027000007D122C0BFF323C0C0F324C0C1F303012B
:10271000BF516D0809E0BF514D0806E0BF51570891
:1027200003E0BF5177080FE1C051500809E0C051E4
:10273000700806E0C051410803E0C051610803E1A0
:10274000C151330807E0C151560804E0C151760871
:10275000D8A4DDD0D86B2E50D825C26F000E2F2004
:10276000C36FC46BC56BC3C3C5F3C2C3C4F3C26B31
:10277000C36BD76BD66BDA6B3450DA250001FE6F72
:10278000000E030135200001FF6F000E0301D6216A
:102790000101006F000E0301D7210101016F030148
:1027A000C2510001FE270301C3510001FF230301B1
:1027B000C451010100230301C5510101012303019B
:1027C000D86BD76BD66B34C0D5F3DC6BDB6BDA6BB5
:1027D00035C0D9F3DBC303F0DAC302F035C001F032
:1027E000006A00503424DE6F3550D621DF6FDA5195
:1027F000D721E06FDB51D821E16FE56FE0C3E4F34F
:10280000DFC3E3F3DEC3E2F3E96BE86BE76BE1C040
:10281000E6F300013FEC0BF0E25103010024E36F0B
:102820000001E35103010120E46F000E0220E56F77
:10283000000E0320E66F0001E4510301E3250001CF
:10284000EA6FE5510301E4210001EB6F000E030183
:10285000E5210001EC6F000E0301E6210001ED6FA0
:102860000301D66BEE0EE96ED6C3EAFF36C0EFFF6A
:10287000D66BEE0ED56F010ED525016E000ED6215A
:1028800001C0E9FFEA6E37C0EFFFD66BEE0ED56FE1
:10289000020ED525016E000ED62101C0E9FFEA6EB9
:1028A00038C0EFFFD66BEE0ED56F030ED525016E47
:1028B000000ED62101C0E9FFEA6E39C0EFFF785360
:1028C00023E00D0E9EA8FED7AD6E0A0E9EA8FED781
:1028D000AD6EBD6BBE51BD5D0FE2036ABD51790F98
:1028E000E96E030E0320EA6EEFCFD5F3D5519EA813
:1028F000FED7AD6EBD2BEED70D0E9EA8FED7AD6EEA
:102900000A0E9EA8FED7AD6E010E016E04D0000126
:10291000000E016E03010001000C020E0301916F15
:10292000926B080E936F040E946F0001BCEC06F0DE
:10293000010E0301E46F0001E4EC05F0FF0ED88006
:10294000DC5503018F6FFF0ED8800001DB550301BA
:10295000906F020E916F0B0E926F8FC393F390C323
:1029600094F30001BCEC06F0010E0301E46F0001DA
:10297000E4EC05F0010E0301E46F0001E4EC05F066
:10298000F2EF14F08A96100E0301916F906B905342
:1029900002E1915312E09B6B000188EC06F0000EFF
:1029A00081A4010E03018F1503E00001F8D7030194
:1029B0009051D8B491079007EAD78A860001000C9D
:1029C00003018D6B8C6B8B6B8A6B896B886B020E32
:1029D000916F0B0E926FFE0E936F946F0001BCEC23
:1029E00006F09BD7FF0ED880DC5503018F6FFF0EDA
:1029F000D8800001DB550301906F020E916F0B0E22
:102A0000926F8FC393F390C394F30001BCEC06F074
:102A100003017451785D846F75517959856F7651D2
:102A20007A59866F77517B59876F77C3A6F376C340
:102A3000A5F375C3A4F374C3A3F3AA6BA96BA86B26
:102A4000E1C0A7F30001AAEC0FF003C077F302C0C6
:102A500076F301C075F300C074F37BC3A6F37AC3A9
:102A6000A5F379C3A4F378C3A3F30301AA6BA96BFD
:102A7000A86BE1C0A7F30001AAEC0FF003C07BF341
:102A800002C07AF301C079F300C078F3F28AE091D2
:102A900003018E6B94948B848D6B0001E1510301D3
:102AA0008D5DD8B029EF1AF0010E8827D8B0892B98
:102AB000D8B48A2BD8B48B2B020E0001FE5D030123
:102AC0007C6F000E0001FF5903017D6F000E0101B4
:102AD000005903017E6F000E0101015903017F6F50
:102AE000E1C000F0016A026A036A03C092F302C007
:102AF00091F301C090F3E1C08FF37FC3E5F37EC390
:102B0000E4F37DC3E3F37CC3E2F303C0E9F302C063
:102B1000E8F301C0E7F3E1C0E6F300013FEC0BF09E
:102B200003C07FF302C07EF301C07DF300C07CF3DD
:102B3000FA5103017C270001FB5103017D230001B1
:102B4000FC5103017E230001FD5103017F23016A33
:102B5000026A036A8D517C2701507D2302507E2337
:102B600003507F238B51875DD8A007EF19F011E147
:102B70008A51865DD8A007EF19F00BE18951855D78
:102B8000D8A007EF19F005E18451885DD8B007EFB0
:102B900019F07FC392F37EC391F37DC390F37CC39E
:102BA0008FF35FC3C6FFD8908F3790379137923736
:102BB000C950FF0EC96EC730FEE3C950FF0EC96E83
:102BC000C730FEE38B92C950510EC96EC730FEE389
:102BD000030E986F8F0E976F020E9725016E000EF1
:102BE0009821036E01C0E9FFEA6EEFCF99F3C95057
:102BF00099C3C9FFC730FEE3030E986F8F0E976F1E
:102C0000010E9725016E000E9821036E01C0E9FFA9
:102C1000EA6EEFCF99F3C95099C3C9FFC730FEE3FD
:102C2000030E986F8F0E98C303F0E96E98C3EAFF06
:102C3000EFCF99F3C95099C3C9FFC730FEE3C9501C
:102C4000C96AC730FEE3C950FF0EC96EC730FEE344
:102C5000EA6B020EEC6F080EEB6FEB5302E1EC53E4
:102C600012E0C950FF0EC96EC730FEE3C9CFEDF3C5
:102C7000EA51ED5D03E1000E016E07D0EB51D8B4CF
:102C8000EC07EB07EAD7010E016E0152D8A475D00C
:102C9000FE0EEA6F020EEC6F080EEB6FEB5302E1D3
:102CA000EC5312E0C950FF0EC96EC730FEE3C9CF26
:102CB000EDF3EA51ED5D03E1000E016E07D0EB513B
:102CC000D8B4EC07EB07EAD7010E016E01523DE1E3
:102CD0008A96946B100E936F935302E194531AE00B
:102CE00081B401D0FDD78A9A966B956B96530CE10F
:102CF00095511F0809E3C950FF0EC96EC730FEE3A6
:102D0000952BD8B4962BF2D78A8A9351D8B49407CE
:102D10009307E2D78A865FC3C6FFC950FF0EC96E0C
:102D2000C730FEE3C950FF0EC96EC730FEE38B8289
:102D3000C950FF0EC96EC730FEE3C950FF0EC96E01
:102D4000C730FEE3000E016E2FD0C950FF0EC96ED2
:102D5000C730FEE3C950FF0EC96EC730FEE38B8259
:102D6000C950FF0EC96EC730FEE3C950FF0EC96ED1
:102D7000C730FEE3010E016E17D0C950FF0EC96EB9
:102D8000C730FEE3C950FF0EC96EC730FEE38B8229
:102D9000C950FF0EC96EC730FEE3C950FF0EC96EA1
:102DA000C730FEE3010E016E012C31D2210E9EA828
:102DB000FED7AD6E7FC392F37EC391F37DC390F3D4
:102DC0007CC38FF35FC3C6FFD8908F37903791379E
:102DD0009237C950FF0EC96EC730FEE3C950FF0ECF
:102DE000C96EC730FEE38B92C950510EC96EC73011
:102DF000FEE3030E986F8F0E976F020E9725016EFC
:102E0000000E9821036E01C0E9FFEA6EEFCF99F33F
:102E1000C95099C3C9FFC730FEE3030E986F8F0EE8
:102E2000976F010E9725016E000E9821036E01C069
:102E3000E9FFEA6EEFCF99F3C95099C3C9FFC730D4
:102E4000FEE3030E986F8F0E98C303F0E96E98C3EC
:102E5000EAFFEFCF99F3C95099C3C9FFC730FEE32A
:102E6000C950C96AC730FEE3C950FF0EC96EC730EA
:102E7000FEE3EA6B020EEC6F080EEB6FEB5302E120
:102E8000EC5312E0C950FF0EC96EC730FEE3C9CF44
:102E9000EDF3EA51ED5D03E1000E016E07D0EB5159
:102EA000D8B4EC07EB07EAD7010E016E0152D8A4A3
:102EB00075D0FE0EEA6F020EEC6F080EEB6FEB534F
:102EC00002E1EC5312E0C950FF0EC96EC730FEE3B9
:102ED000C9CFEDF3EA51ED5D03E1000E016E07D0BD
:102EE000EB51D8B4EC07EB07EAD7010E016E0152A3
:102EF0003DE18A96946B100E936F935302E19453C5
:102F00001AE081B401D0FDD78A9A966B956B9653DF
:102F10000CE195511F0809E3C950FF0EC96EC73077
:102F2000FEE3952BD8B4962BF2D78A8A9351D8B466
:102F300094079307E2D78A865FC3C6FFC950FF0E86
:102F4000C96EC730FEE3C950FF0EC96EC730FEE33D
:102F50008B82C950FF0EC96EC730FEE3C950FF0E09
:102F6000C96EC730FEE3000E016E2FD0C950FF0EB0
:102F7000C96EC730FEE3C950FF0EC96EC730FEE30D
:102F80008B82C950FF0EC96EC730FEE3C950FF0ED9
:102F9000C96EC730FEE3010E016E17D0C950FF0E97
:102FA000C96EC730FEE3C950FF0EC96EC730FEE3DD
:102FB0008B82C950FF0EC96EC730FEE3C950FF0EA9
:102FC000C96EC730FEE3010E016E012C20D1400E08
:102FD0009EA8FED7AD6E7FC392F37EC391F37DC3EF
:102FE00090F37CC38FF35FC3C6FFD8908F379037C1
:102FF00091379237C950FF0EC96EC730FEE3C950F2
:10300000FF0EC96EC730FEE38B92C950510EC96ED8
:10301000C730FEE3030E986F8F0E976F020E972551
:10302000016E000E9821036E01C0E9FFEA6EEFCF3A
:1030300099F3C95099C3C9FFC730FEE3030E986FD7
:103040008F0E976F010E9725016E000E9821036E6B
:1030500001C0E9FFEA6EEFCF99F3C95099C3C9FFE8
:10306000C730FEE3030E986F8F0E98C303F0E96E2E
:1030700098C3EAFFEFCF99F3C95099C3C9FFC7308E
:10308000FEE3C950C96AC730FEE3C950FF0EC96EDE
:10309000C730FEE3EA6B020EEC6F080EEB6FEB53EA
:1030A00002E1EC5312E0C950FF0EC96EC730FEE3D7
:1030B000C9CFEDF3EA51ED5D03E1000E016E07D0DB
:1030C000EB51D8B4EC07EB07EAD7010E016E0152C1
:1030D000D8A475D0FE0EEA6F020EEC6F080EEB6FEF
:1030E000EB5302E1EC5312E0C950FF0EC96EC7303A
:1030F000FEE3C9CFEDF3EA51ED5D03E1000E016E91
:1031000007D0EB51D8B4EC07EB07EAD7010E016EFC
:1031100001523DE18A96946B100E936F935302E136
:1031200094531AE081B401D0FDD78A9A966B956BBF
:1031300096530CE195511F0809E3C950FF0EC96E63
:10314000C730FEE3952BD8B4962BF2D78A8A9351D9
:10315000D8B494079307E2D78A865FC3C6FFC950E5
:10316000FF0EC96EC730FEE3C950FF0EC96EC730EF
:10317000FEE38B82C950FF0EC96EC730FEE3C95013
:10318000FF0EC96EC730FEE3000E016E2FD0C9508E
:10319000FF0EC96EC730FEE3C950FF0EC96EC730BF
:1031A000FEE38B82C950FF0EC96EC730FEE3C950E3
:1031B000FF0EC96EC730FEE3010E016E17D0C95075
:1031C000FF0EC96EC730FEE3C950FF0EC96EC7308F
:1031D000FEE38B82C950FF0EC96EC730FEE3C950B3
:1031E000FF0EC96EC730FEE3010E016E012C0FD039
:1031F0008F6B8F51000161EC02F003018F2B006E89
:1032000000509EA8FED7AD6E0E0E8F5DF2E100015C
:10321000DA510708D8A4B4D09EAA1DD09EAAFED722
:10322000AECF8EF303018E5175080BE10001DB3D3B
:1032300001D001D0DB2BDC3D01D001D0DC2B0BD049
:1032400003018E51640808E10001DB5301E0DB0754
:10325000DC5301E0DC0703018E51390819E1F29AD1
:103260008B94020E916F0B0E926FFE0E936F946F04
:103270000001BCEC06F003018F6B0001C2EC14F0FE
:10328000390E9EA8FED7AD6E390E016EC3D1030173
:103290008E514D0819E1F29A8B94020E916F0B0E2C
:1032A000926FFE0E936F946F0001BCEC06F0030169
:1032B0008F6B0001C2EC14F04D0E9EA8FED7AD6ED0
:1032C0004D0E016EA7D1030183A003D08E516E086D
:1032D00015E1F29A8B948F6B0001C2EC14F0020E90
:1032E0000301916F0B0E926FFE0E936F946F0001AE
:1032F000BCEC06F06E0E016E8DD1030183A203D0EB
:103300008E5170081FE10001F25306E1F35304E10E
:10331000F45302E1F55315E0F29A8B94020E030187
:10332000916F0B0E926FFE0E936F946F0001BCECC9
:1033300006F003018F6B0001C2EC14F0700E016EF9
:1033400069D1030183AA03D08E517A081AE1D00E05
:103350000001DB6FDC6FF29A8B94020E0301916F18
:103360000B0E926FFE0E936F946F0001BCEC06F093
:1033700003018F6B0001C2EC14F07A0E016E4AD18A
:1033800003010001DA5313E1833C01D00FD0E0A523
:103390000CD0E095F56BF46BF36B83CFF2F0E0911A
:1033A000E0838B946B0E016E35D101D0E08574EC17
:1033B0000FF0E0AD09D00A0E0301E46F0001E4EC68
:1033C00005F074EC0FF0F5D7DF2D10D0F29A8B9446
:1033D000020E0301916F0B0E926FFE0E936F946FAE
:1033E0000001BCEC06F0650E016E14D1E0A12DD0F9
:1033F000F29AE09103018F6B8F51000176EC02F09D
:1034000003018F2B006E00509EA8FED7AD6E160EE6
:103410008F5DF2E10D0E9EA8FED7AD6E0A0E9EA83E
:10342000FED7AD6E8B94020E916F0B0E926FFE0E57
:10343000936F946F0001BCEC06F003018F6B0001E9
:10344000C2EC14F06B0E016EE5D003018D2B4DEF35
:1034500015F00A0E7825006E000E7921016E000E1F
:103460007A21026E000E7B21036E7751035C28E304
:103470000BE17651025C24E307E17551015C20E326
:1034800003E10050745D1CE201C105F100C104F1CB
:10349000FFC003F1FEC002F105C1D8F304C1D7F3A8
:1034A00003C1D6F302C1D5F300012CEC0EF003C02A
:1034B00001F102C000F101C0FFF000C0FEF0030105
:1034C000FF0ED8800001DC5503018F6FFF0ED880FE
:1034D0000001DB550301906F020E916F0B0E926F8E
:1034E0008FC393F390C394F30001BCEC06F0DA5160
:1034F0000708D8A466D083A805D003018E516808B8
:1035000061E10001140E0301E46F0001E4EC05F039
:1035100083B807D0140E0301E46F0001E4EC05F05A
:10352000F7D783A845D09EAA26D09EAAFED7AECFB5
:103530008EF303018E51680806E1300E8E6F000194
:1035400037D019D003018E5175080BE10001DB3D26
:1035500001D001D0DB2BDC3D01D001D0DC2B0BD026
:1035600003018E51640808E10001DB5301E0DB0731
:10357000DC5301E0DC070301140EE46F0001E4EC0E
:1035800005F0DF2D14D08B94020E0301916F0B0E0A
:10359000926FFE0E936F946F0001BCEC06F0030176
:1035A0008F6B0001C2EC14F0650E016E33D0B9D7F9
:1035B00083B801D0FDD7140E0301E46F0001E4ECE1
:1035C00005F00301FEC080F3FFC081F300C182F368
:1035D000010101510F0B0301836F83510F0814E3A5
:1035E000D8A44CEF15F08251FF080EE3D8A44CEF9D
:1035F00015F08151FF0808E3D8A44CEF15F0805175
:10360000EE08D8B04CEF15F0F29A0001E0938B94DD
:10361000730E016E000C0301786B02012CAF04D015
:10362000010E0301786F02012CAB04D0010E0301DF
:10363000781B02012CA904D0010E0301781B0201A2
:103640002CA504D0010E0301781B0201D8902C3761
:103650000301785102012C132CC201F00001000C6F
:10366000FF0E0301736F726F0101115357E1105385
:1036700055E10F510301735DD8B002D001014ED066
:1036800005E1725101010E5D49E20301010E5B2764
:10369000D8B05C2BD8B45D2BD8B45E2B0001BBDF57
:1036A000010E015C0301746F2C0E7425E96E010E8E
:1036B000EA6ED8B0EA2AEF3C01D01DD02C0E74255A
:1036C000E96E010EEA6ED8B0EA2AEF50EF2A756F64
:1036D0007551F2CF76F3F29E000161EC00F0030128
:1036E00076BFF28E736B726F74C371F3706B70512F
:1036F0007227715173235E530AE15D5308E15C51F7
:10370000FC080AE2FF0A03E15B51E80805E2006AEF
:10371000016A026A036A09D0A7D7010172C300F0E7
:1037200073C301F0026A036A0301000179EF31F00B
:103730000301776B110EC26E0A0EC16EBE0EC06E13
:10374000766B76510F0818E311C103F010C102F037
:103750000FC101F00EC100F07651786F07E0D890EC
:103760000332023201320032782FF9D700A002D0A2
:1037700076C377F3762BE5D700014DDF0301746B39
:1037800001C073F373C374F3736B000144DF015022
:1037900003017327000E742300000F0E766F76511D
:1037A000775D16E2036A010E026E7651006E05E047
:1037B000D89002360336002EFBD70250FF0A006E67
:1037C000FF0E031A00507317035074177607E7D7DC
:1037D000726B716B766B7651775D2EE3C282C2A2FB
:1037E00001D0FDD7C3A002D0758101D07591090E1B
:1037F000006E002EFED700D0C282C2A201D0FDD73B
:10380000000EC3B0010E786F000E75B1010E785D29
:1038100012E075A10FD0036A010E026E7651006EA0
:1038200005E0D89002360336002EFBD70250711304
:1038300003507213762BCFD77351711B7451721BC7
:103840000101115311E110530FE10F510301725D9A
:10385000D8B002D0010108D009E1715101010E5D1B
:10386000D8B002D0030102D0000E01D0010E030136
:10387000701582E12E0E9EA8FED7AD6E010EC26EAF
:1038800071C301F072C302F000018BEF31F0F86AEE
:10389000D09E0D8EFE0E006E040E016E020EE96EBD
:1038A000000EEA6EEE6A002EFDD7012EFBD7EA6A03
:1038B000E96AB886110EAF6E040EB06EA60EAC6E3D
:1038C000900EAB6EC150C00B0F09C16E070EB46EE7
:1038D0008B6A7F0E926EC50E936E940E946EFF0EE1
:1038E000956E070E966E9B8C010EC26E94948B940F
:1038F0000F0EC16E80CFDAF0070EDA1780A604D063
:10390000220E03015F6F03D0200E03015F6F0A0ECA
:10391000C16E880EC06EF19CF19EF292820ED56E41
:103920008B808A92320EE46F0001E4EC05F00D0EFC
:103930009EA8FED7AD6E0A0E9EA8FED7AD6E0D0EE8
:103940009EA8FED7AD6E0A0E9EA8FED7AD6E0301EF
:10395000706B0001F9EF05F00D0E9EA8FED7AD6E5D
:103960000A0E9EA8FED7AD6E0D0E9EA8FED7AD6EB8
:103970000A0E9EA8FED7AD6E0301706B7051000158
:10398000EEEC00F00301702B006E00509EA8FED7F5
:10399000AD6E3C0E705DF2E10D0E9EA8FED7AD6ED1
:1039A0000A0E9EA8FED7AD6E0D0E9EA8FED7AD6E78
:1039B0000A0E9EA8FED7AD6E8B828A888A86C69A2A
:1039C000320EE46F0001E4EC05F08A92FA0E030176
:1039D000706F000175EF06F08A82320E0301E46F0A
:1039E0000001E4EC05F0320E0301E46F0001E4ECA9
:1039F00005F081A4EAD7A60E006E002EFED70000C7
:103A0000020E0301916F926B936B040E946F000191
:103A1000BCEC06F00A0E0301E46F0001E4EC05F0D3
:103A200081A4E9D7320E0301E46F0001E4EC05F054
:103A3000320E0301E46F0001E4EC05F081A4F2D73B
:103A4000010E0301E46F0001E4EC05F0020E030136
:103A5000916F926B080E936F946B0001BCEC06F0B3
:103A6000FF0ED880DC550301706FFF0ED880000177
:103A7000DB550301716F020E916F0B0E926F70C3D5
:103A800093F371C394F30001BCEC06F0010E030143
:103A9000E46F0001E4EC05F00301706B705100016C
:103AA0006AEC03F0000907E00301702B9EA8FED723
:103AB000AD6EF4D700010D0E9EA8FED7AD6E0A0EB6
:103AC0009EA8FED7AD6E8A888A86E09DDF6BDE6B8E
:103AD000DF0EDC6FDB6F0301606B619161936195B9
:103AE000666B300E0001DD6F010E0301636F646BC6
:103AF000632D01D002D0000E01D0010E706F645111
:103B0000090802E2000E01D0010E70150AE0010E54
:103B1000E06F000153EC07F001C063F30301642B75
:103B2000E7D7632D11D0706B705100011AEC01F0D2
:103B30000301702B006E00509EA8FED7AD6E290EBB
:103B4000705DF2E10300FED7000190EC0BF0E8534A
:103B500003E1E95102081BE00301706B70510001A1
:103B60003CEC01F00301702B006E00509EA8FED7C4
:103B7000AD6E130E705DF2E10D0E9EA8FED7AD6E18
:103B80000A0E9EA8FED7AD6E000190EC0BF003016B
:103B9000706B7051000153EC01F00301702B006E4B
:103BA00000509EA8FED7AD6E110E705DF2E10D0EB5
:103BB0009EA8FED7AD6E0A0E9EA8FED7AD6E000180
:103BC000F56BF46BF36B010EF26FF5EF0EF0030182
:103BD000706B7051000169EC01F00301702B006EF5
:103BE00000509EA8FED7AD6E110E705DF2E10EC1C1
:103BF000E4F31B0EE56F000114EC07F00D0E9EA818
:103C0000FED7AD6E0A0E9EA8FED7AD6E19C109F1A2
:103C100018C108F117C107F116C106F1730E0301AF
:103C2000626F0001E099E0830301636B0001E091A2
:103C3000E097C00EF212F29A010111530AE11053FB
:103C400008E10F5100080AE2FF0A03E10E512C08B7
:103C500005E2960E03015A6F09D00101D890113187
:103C600010310F310E31E8CF5AF30301646B5A5112
:103C7000645D11E2D8906435026E036A0336025027
:103C80002D0FE96E020E0320EA6EFF0EEC6EED5270
:103C9000EF6E642BECD70D0E9EA8FED7AD6E0A0E0C
:103CA0009EA8FED7AD6E0D0E9EA8FED7AD6E0A0E75
:103CB0009EA8FED7AD6E5F51200810E1706B705169
:103CC000000180EC01F00301702B006E00509EA8F3
:103CD000FED7AD6E390E705DF2E10FD0706B705192
:103CE0000001AAEC01F00301702B006E00509EA8A9
:103CF000FED7AD6E120E705DF2E10D0E9EA8FED7DE
:103D0000AD6E0A0E9EA8FED7AD6E000174EC0FF0EA
:103D1000DA510608D8A480EF25F00D0E9EA8FED734
:103D2000AD6E0A0E9EA8FED7AD6E0301706B70518A
:103D30000001C1EC01F00301702B006E00509EA841
:103D4000FED7AD6E190E705DF2E10D0E9EA8FED786
:103D5000AD6E0A0E9EA8FED7AD6E0D0E9EA8FED7C4
:103D6000AD6E0A0E9EA8FED7AD6E010E0001DE6F8D
:103D7000E093F56BF46BFF0EF36FF26FF3C071F32A
:103D8000F2C070F371C373F370C372F303019E6BDF
:103D900073C3D6F372C3D5F3270ED86F100ED76F47
:103DA000000187EC0FF001C07FF30301A26BA16B50
:103DB000A06B7FC39FF3A2C3E5F3A1C3E4F3A0C349
:103DC000E3F37FC3E2F3E96BE86B270EE76F100EB6
:103DD000E66F00013FEC0BF003C08DF302C08CF3E3
:103DE00001C08BF300C08AF303018A51725D9F6F9B
:103DF0008B517359A06F000E8C55A16F000E8D551D
:103E0000A26FA66FA1C3A5F3A0C3A4F39FC3A3F39E
:103E1000AA6BA96B030EA86FE80EA76F0001AAECAE
:103E20000FF000C07EF30301A26BA16BA06B7EC3F9
:103E30009FF3A2C3E5F3A1C3E4F3A0C3E3F37EC3FE
:103E4000E2F3E96BE86B030EE76FE80EE66F000143
:103E50003FEC0BF0005003018A2701508B230250E6
:103E60008C2303508D238A51725D9F6F8B51735940
:103E7000A06F000E8C55A16F000E8D55A26FA66F1E
:103E8000A1C3A5F3A0C3A4F39FC3A3F3AA6BA96B1B
:103E9000A86B640EA76F0001AAEC0FF000C07AF3C4
:103EA0000301A26BA16BA06B7AC39FF3A2C3E5F3DE
:103EB000A1C3E4F3A0C3E3F37AC3E2F3E96BE86BD5
:103EC000E76B640EE66F00013FEC0BF0005003015E
:103ED0008A2701508B2302508C2303508D238A5153
:103EE000725D9F6F8B517359A06F000E8C55A16F3F
:103EF000000E8D55A26FA66FA1C3A5F3A0C3A4F3B6
:103F00009FC3A3F3AA6BA96BA86B0A0EA76F00014E
:103F1000AAEC0FF000C079F30301A26BA16BA06BB8
:103F200079C39FF3A2C3E5F3A1C3E4F3A0C3E3F312
:103F300079C3E2F3E96BE86BE76B0A0EE66F000109
:103F40003FEC0BF0005003018A2701508B230250F5
:103F50008C2303508D238A51725D786F9D6B9C6B0F
:103F60009B6B9A6B19C109F118C108F117C107F1D0
:103F700016C106F19D31956F9C31946F9B31936F03
:103F80009A31926F953394339333923395339433BC
:103F90009333923395339433933392330F0E9517B3
:103FA00095C399F394C398F393C397F392C396F38D
:103FB00095C3A6F394C3A5F393C3A4F392C3A3F349
:103FC000AA6BA96BA86BE1C0A7F30001AAEC0FF0E4
:103FD00003C095F302C094F301C093F300C092F3C1
:103FE00095C3E5F394C3E4F393C3E3F392C3E2F31D
:103FF0000301E96BE86BE76BE1C0E6F300013FEC1E
:104000000BF003C091F302C090F301C08FF300C026
:104010008EF303018E51965D8E6F8F5197598F6F7E
:1040200090519859906F91519959916F925306E11F
:10403000935304E1945302E1955325E009C10DF136
:1040400008C10CF107C10BF106C10AF10DC1D8F38B
:104050000CC1D7F30BC1D6F30AC1D5F300012CEC88
:104060000EF003C009F102C008F101C007F100C061
:1040700006F1FF0E03019227D8A09327D8A094271A
:10408000D8A09527D3D7020E0101065D0301826FE8
:10409000000E010107590301836F000E0101085949
:1040A0000301846F000E010109590301856FE1C00E
:1040B00000F0016A026A036A03C0A2F302C0A1F31E
:1040C00001C0A0F3E1C09FF385C3E5F384C3E4F32B
:1040D00083C3E3F382C3E2F303C0E9F302C0E8F36E
:1040E00001C0E7F3E1C0E6F300013FEC0BF003C0D1
:1040F00085F302C084F301C083F300C082F3FA5158
:10410000030182270001FB51030183230001FC51BD
:10411000030184230001FD51030185238E51822771
:104120008F518323905184239151852385C3E3F3D9
:1041300084C3E2F383C3E1F382C3E0F3000141EC03
:104140000AF0100E0301776F7753D8B49CD00001AA
:104150001AEC0BF003019E2B185203E01850E508EF
:1041600009E10F0EE16F000109EC0BF00F0E0301E6
:104170009E277FD0300E185C816F300E195C806FE7
:1041800000011AEC0BF003019E2B300E185C7D6FC2
:10419000300E195C7C6F00011AEC0BF003019E2BB2
:1041A000300E185C7B6F80517E5D57E181517F5DE1
:1041B00054E17B51785D51E17C51795D4EE17D5157
:1041C0007A5D4BE100011AEC0BF01AEC0BF018C011
:1041D00074F319C075F31AEC0BF0030E03019E275C
:1041E00018C076F374516D0809E074514D0806E06B
:1041F0007451570803E0745177080FE17551500866
:1042000009E07551700806E07551410803E07551E9
:10421000610803E17651330806E07651560803E061
:104220007651760819E1000ED8809E559F6F010ED9
:10423000D8A0E806A06F9FC3E1F3000109EC0BF0E2
:1042400029EC0BF09AC300F09BC301F09CC302F071
:104250009DC303F065D0030106D0030EE16F00019A
:1042600009EC0BF003010A0EE16F000109EC0BF001
:104270000301010E9A27D8B09B2BD8B49C2BD8B43D
:104280009D2B770761D706C186F307C187F308C165
:1042900088F3010109510F0B0301896F000129EC1B
:1042A0000BF003019D510101115D30E311E10301A8
:1042B0009C510101105D2AE30BE103019B510101B7
:1042C0000F5D24E305E103019A5101010E5D1EE338
:1042D000030189510F08D8B002D0010117D0D8A42A
:1042E00041D68851FF08D8B002D001010FD0D8A420
:1042F00039D68751FF08D8B002D0010107D0D8A421
:1043000031D68651EF08D8B02DD6010100002D0E10
:104310009EA8FED7AD6E006A016A026A036A0001B8
:1043200003C06BF302C06AF301C069F300C068F315
:10433000E0B90DD0E0B30BD0640E0301E46F0001CF
:10434000E4EC05F02E0E9EA8FED7AD6EF1D7F3C0BB
:1043500071F3F2C070F371C373F370C372F30301AE
:104360009E6B73C3D6F372C3D5F3270ED86F100EAE
:10437000D76F000187EC0FF001C07FF30301A26B40
:10438000A16BA06B7FC39FF3A2C3E5F3A1C3E4F3CA
:10439000A0C3E3F37FC3E2F3E96BE86B270EE76F9B
:1043A000100EE66F00013FEC0BF003C08DF302C06E
:1043B0008CF301C08BF300C08AF303018A51725D54
:1043C0009F6F8B517359A06F000E8C55A16F000E1B
:1043D0008D55A26FA66FA1C3A5F3A0C3A4F39FC37D
:1043E000A3F3AA6BA96B030EA86FE80EA76F0001D9
:1043F000AAEC0FF000C07EF30301A26BA16BA06BCF
:104400007EC39FF3A2C3E5F3A1C3E4F3A0C3E3F328
:104410007EC3E2F3E96BE86B030EE76FE80EE66F2D
:1044200000013FEC0BF0005003018A2701508B2361
:1044300002508C2303508D238A51725D9F6F8B51E4
:104440007359A06F000E8C55A16F000E8D55A26F91
:10445000A66FA1C3A5F3A0C3A4F39FC3A3F3AA6B44
:10446000A96BA86B640EA76F0001AAEC0FF000C047
:104470007AF30301A26BA16BA06B7AC39FF3A2C373
:10448000E5F3A1C3E4F3A0C3E3F37AC3E2F3E96B7A
:10449000E86BE76B640EE66F00013FEC0BF0005039
:1044A00003018A2701508B2302508C2303508D2354
:1044B0008A51725D9F6F8B517359A06F000E8C559E
:1044C000A16F000E8D55A26FA66FA1C3A5F3A0C367
:1044D000A4F39FC3A3F3AA6BA96BA86B0A0EA76FE3
:1044E0000001AAEC0FF000C079F30301A26BA16BED
:1044F000A06B79C39FF3A2C3E5F3A1C3E4F3A0C308
:10450000E3F379C3E2F3E96BE86BE76B0A0EE66F5E
:1045100000013FEC0BF0005003018A2701508B2370
:1045200002508C2303508D238A51725D786F9D6BEE
:104530009C6B9B6B9A6B19C109F118C108F117C1EB
:1045400007F116C106F19D31956F9C31946F9B3137
:10455000936F9A31926F95339433933392339533AB
:1045600094339333923395339433933392330F0EC2
:10457000951795C399F394C398F393C397F392C394
:1045800096F395C3A6F394C3A5F393C3A4F392C380
:10459000A3F3AA6BA96BA86BE1C0A7F30001AAEC77
:1045A0000FF003C095F302C094F301C093F300C071
:1045B00092F395C3E5F394C3E4F393C3E3F392C397
:1045C000E2F30301E96BE86BE76BE1C0E6F300019E
:1045D0003FEC0BF003C091F302C090F301C08FF3E6
:1045E00000C08EF303018E51965D8E6F8F519759E7
:1045F0008F6F90519859906F91519959916F925333
:1046000006E1935304E1945302E1955325E009C177
:104610000DF108C10CF107C10BF106C10AF10DC182
:10462000D8F30CC1D7F30BC1D6F30AC1D5F30001FF
:104630002CEC0EF003C009F102C008F101C007F133
:1046400000C006F1FF0E03019227D8A09327D8A03F
:104650009427D8A09527D3D7020E0101065D030148
:10466000826F000E010107590301836F000E0101E3
:1046700008590301846F000E010109590301856F78
:10468000E1C000F0016A026A036A03C0A2F302C03B
:10469000A1F301C0A0F3E1C09FF385C3E5F384C398
:1046A000E4F383C3E3F382C3E2F303C0E9F302C09C
:1046B000E8F301C0E7F3E1C0E6F300013FEC0BF0E3
:1046C00003C085F302C084F301C083F300C082F30A
:1046D000FA51030182270001FB51030183230001EA
:1046E000FC51030184230001FD51030185238E51F8
:1046F00082278F518323905184239151852385C331
:10470000E3F384C3E2F383C3E1F382C3E0F3000184
:1047100041EC0AF0100E0301776F7753D8B49CD0A8
:1047200000011AEC0BF003019E2B185203E0185005
:10473000E50809E10F0EE16F000109EC0BF00F0E27
:1047400003019E277FD0300E185C816F300E195CFC
:10475000806F00011AEC0BF003019E2B300E185CE9
:104760007D6F300E195C7C6F00011AEC0BF00301B9
:104770009E2B300E185C7B6F80517E5D57E181511E
:104780007F5D54E17B51785D51E17C51795D4EE173
:104790007D517A5D4BE100011AEC0BF01AEC0BF045
:1047A00018C074F319C075F31AEC0BF0030E030173
:1047B0009E2718C076F374516D0809E074514D08B6
:1047C00006E07451570803E0745177080FE1755102
:1047D000500809E07551700806E07551410803E082
:1047E0007551610803E17651330806E076515608A9
:1047F00003E07651760819E1000ED8809E559F6F30
:10480000010ED8A0E806A06F9FC3E1F3000109ECF8
:104810000BF029EC0BF09AC300F09BC301F09CC392
:1048200002F09DC303F065D0030106D0030EE16FD3
:10483000000109EC0BF003010A0EE16F000109EC25
:104840000BF00301010E9A27D8B09B2BD8B49C2BF8
:10485000D8B49D2B770761D706C186F307C187F3CC
:1048600008C188F3010109510F0B0301896F000191
:1048700029EC0BF003019D510101115D30E311E1C1
:1048800003019C510101105D2AE30BE103019B51DF
:1048900001010F5D24E305E103019A5101010E5D61
:1048A0001EE3030189510F08D8B002D0010117D0CF
:1048B000D8A441D68851FF08D8B002D001010FD04A
:1048C000D8A439D68751FF08D8B002D0010107D04B
:1048D000D8A431D68651EF08D8B02DD601010000FA
:1048E0002D0E9EA8FED7AD6E006A016A026A036AA9
:1048F000000103C06BF302C06AF301C069F300C09A
:1049000068F30301685307E1695305E16A5303E162
:104910006B53D8B4F3D06B5307E16A5305E1695385
:1049200003E16851040818E2050E685D706F000E1F
:104930006959716F000E6A59726F000E6B59736F6F
:10494000776F72C376F371C375F370C374F3786BCA
:104950000001FCEC0FF003016B5307E16A5305E122
:10496000695303E16851030818E2040E685D706F33
:10497000000E6959716F000E6A59726F000E6B5903
:10498000736F776F72C376F371C375F370C374F38B
:10499000786B0001FCEC0FF003016B5307E16A53E5
:1049A00005E1695303E16851020818E2030E685DEE
:1049B000706F000E6959716F000E6A59726F000EA8
:1049C0006B59736F776F72C376F371C375F370C3EE
:1049D00074F3786B0001FCEC0FF003016B5307E1FB
:1049E0006A5305E1695303E16851010818E2020EB8
:1049F000685D706F000E6959716F000E6A59726FB1
:104A0000000E6B59736F776F72C376F371C375F3D2
:104A100070C374F3786B0001FCEC0FF00301685372
:104A200006E1695304E16A5302E16B5318E0010E99
:104A3000685D706F000E6959716F000E6A59726F70
:104A4000000E6B59736F776F72C376F371C375F392
:104A500070C374F3786B0001FCEC0FF003016BC3BF
:104A600077F36AC376F369C375F368C374F3010E11
:104A7000786F0001FCEC0FF00D0E9EA8FED7AD6E16
:104A80000A0E9EA8FED7AD6ED890036AF131026E71
:104A9000F031016EEF31006EEA250301706F0150B5
:104AA0000001EB210301716F02500001EC210301B1
:104AB000726F03500001ED210301736FEDC077F3B6
:104AC000ECC076F3EBC075F3EAC074F37B6F72C38E
:104AD0007AF371C379F370C378F30001E0EC14F05A
:104AE00001C062F3E0A904D0E0B302D0030113D700
:104AF000010E0301E46F0001E4EC05F0000118D49D
:104B0000DA53D8A457EF29F00301706B70510001FC
:104B1000DBEC01F00301702B006E00509EA8FED765
:104B2000AD6E130E705DF2E10D0E9EA8FED7AD6E58
:104B30000A0E9EA8FED7AD6E0001E093010EDE6F57
:104B4000E0B305D0F56BF46BF36B83CFF2F00301A8
:104B50006B6B6A6B696B686B0001F251FE080CE1CC
:104B6000F3530AE1F45308E1F55306E103016F6BD7
:104B70006E6B6D6B6C6B0001F251FD080DE1F35330
:104B80000BE1F45309E1F55307E103016F6B6E6B21
:104B90006D6B010E6C6F0001F251FB080DE1F353D8
:104BA0000BE1F45309E1F55307E103016F6B6E6B01
:104BB0006D6B020E6C6F0001F251F7080DE1F353BB
:104BC0000BE1F45309E1F55307E103016F6B6E6BE1
:104BD0006D6B030E6C6F0001F251EF080DE1F353A2
:104BE0000BE1F45309E1F55307E103016F6B6E6BC1
:104BF0006D6B040E6C6F0001F251DF080DE1F35391
:104C00000BE1F45309E1F55307E103016F6B6E6BA0
:104C10006D6B050E6C6F0001F251BF080DE1F3538F
:104C20000BE1F45309E1F55307E103016F6B6E6B80
:104C30006D6B060E6C6F0001F2517F080DE1F353AE
:104C40000BE1F45309E1F55307E103016F6B6E6B60
:104C50006D6B070E6C6F0001F23D07D0F35305E159
:104C6000F45303E1F553D8B4DAD26DC371F36CC3D6
:104C700070F371C373F370C372F303019E6B73C35C
:104C8000D6F372C3D5F3270ED86F100ED76F00017D
:104C900087EC0FF001C07FF30301A26BA16BA06B47
:104CA0007FC39FF3A2C3E5F3A1C3E4F3A0C3E3F37F
:104CB0007FC3E2F3E96BE86B270EE76F100EE66F38
:104CC00000013FEC0BF003C08DF302C08CF301C078
:104CD0008BF300C08AF303018A51725D9F6F8B5181
:104CE0007359A06F000E8C55A16F000E8D55A26FE9
:104CF000A66FA1C3A5F3A0C3A4F39FC3A3F3AA6B9C
:104D0000A96B030EA86FE80EA76F0001AAEC0FF0C5
:104D100000C07EF30301A26BA16BA06B7EC39FF367
:104D2000A2C3E5F3A1C3E4F3A0C3E3F37EC3E2F3BC
:104D3000E96BE86B030EE76FE80EE66F00013FECEE
:104D40000BF0005003018A2701508B2302508C2363
:104D500003508D238A51725D9F6F8B517359A06FE1
:104D6000000E8C55A16F000E8D55A26FA66FA1C3CA
:104D7000A5F3A0C3A4F39FC3A3F3AA6BA96BA86B6D
:104D8000640EA76F0001AAEC0FF000C07AF30301D4
:104D9000A26BA16BA06B7AC39FF3A2C3E5F3A1C37F
:104DA000E4F3A0C3E3F37AC3E2F3E96BE86BE76BE8
:104DB000640EE66F00013FEC0BF0005003018A2700
:104DC00001508B2302508C2303508D238A51725D36
:104DD0009F6F8B517359A06F000E8C55A16F000E01
:104DE0008D55A26FA66FA1C3A5F3A0C3A4F39FC363
:104DF000A3F3AA6BA96BA86B0A0EA76F0001AAEC1C
:104E00000FF000C079F30301A26BA16BA06B79C313
:104E10009FF3A2C3E5F3A1C3E4F3A0C3E3F379C313
:104E2000E2F3E96BE86BE76B0A0EE66F00013FEC1B
:104E30000BF0005003018A2701508B2302508C2372
:104E400003508D238A51725D786F9D6B9C6B9B6BB9
:104E50009A6B19C109F118C108F117C107F116C100
:104E600006F19D31956F9C31946F9B31936F9A3110
:104E7000926F9533943393339233953394339333C2
:104E8000923395339433933392330F0E951795C322
:104E900099F394C398F393C397F392C396F395C38E
:104EA000A6F394C3A5F393C3A4F392C3A3F3AA6B8D
:104EB000A96BA86BE1C0A7F30001AAEC0FF003C037
:104EC00095F302C094F301C093F300C092F395C32D
:104ED000E5F394C3E4F393C3E3F392C3E2F3030172
:104EE000E96BE86BE76BE1C0E6F300013FEC0BF028
:104EF00003C091F302C090F301C08FF300C08EF3A2
:104F000003018E51965D8E6F8F5197598F6F90511F
:104F10009859906F91519959916F925306E193531B
:104F200004E1945302E1955325E009C10DF108C154
:104F30000CF107C10BF106C10AF10DC1D8F30CC188
:104F4000D7F30BC1D6F30AC1D5F300012CEC0EF058
:104F500003C009F102C008F101C007F100C006F169
:104F6000FF0E03019227D8A09327D8A09427D8A09A
:104F70009527D3D7020E0101065D0301826F000E53
:104F8000010107590301836F000E01010859030154
:104F9000846F000E010109590301856FE1C000F023
:104FA000016A026A036A03C0A2F302C0A1F301C04E
:104FB000A0F3E1C09FF385C3E5F384C3E4F383C3A7
:104FC000E3F382C3E2F303C0E9F302C0E8F301C0F4
:104FD000E7F3E1C0E6F300013FEC0BF003C085F31B
:104FE00002C084F301C083F300C082F3FA510301CD
:104FF00082270001FB51030183230001FC510301BF
:1050000084230001FD51030185238E5182278F5196
:105010008323905184239151852385C3E3F384C373
:10502000E2F383C3E1F382C3E0F3000141EC0AF051
:10503000100E0301776F7753D8B49CD000011AEC9F
:105040000BF003019E2B185203E01850E50809E10C
:105050000F0EE16F000109EC0BF00F0E03019E270C
:105060007FD0300E185C816F300E195C806F0001AC
:105070001AEC0BF003019E2B300E185C7D6F300E86
:10508000195C7C6F00011AEC0BF003019E2B300EB3
:10509000185C7B6F80517E5D57E181517F5D54E1EB
:1050A0007B51785D51E17C51795D4EE17D517A5DB6
:1050B0004BE100011AEC0BF01AEC0BF018C074F382
:1050C00019C075F31AEC0BF0030E03019E2718C0EC
:1050D00076F374516D0809E074514D0806E074517F
:1050E000570803E0745177080FE17551500809E043
:1050F0007551700806E07551410803E0755161086B
:1051000003E17651330806E07651560803E0765104
:10511000760819E1000ED8809E559F6F010ED8A029
:10512000E806A06F9FC3E1F3000109EC0BF029EC46
:105130000BF09AC300F09BC301F09CC302F09DC327
:1051400003F065D0030106D0030EE16F000109EC06
:105150000BF003010A0EE16F000109EC0BF00301F3
:10516000010E9A27D8B09B2BD8B49C2BD8B49D2B7A
:10517000770761D706C186F307C187F308C188F3B3
:10518000010109510F0B0301896F000129EC0BF09C
:1051900003019D510101115D30E311E103019C51B7
:1051A0000101105D2AE30BE103019B5101010F5D39
:1051B00024E305E103019A5101010E5D1EE30301A1
:1051C00089510F08D8B002D0010117D0D8A441D618
:1051D0008851FF08D8B002D001010FD0D8A439D629
:1051E0008751FF08D8B002D0010107D0D8A431D62A
:1051F0008651EF08D8B02DD6010100002D0E9EA8D3
:10520000FED7AD6E006A016A026A036A000103C03C
:105210006BF302C06AF301C069F300C068F30301D5
:10522000685306E1695304E16A5302E16B533CE0C1
:105230006BC377F36AC376F369C375F368C374F31A
:10524000786B0001FCEC0FF0E093D890036AF13129
:10525000026EF031016EEF31006EEA250301706FCE
:1052600001500001EB210301716F02500001EC219C
:105270000301726F03500001ED210301736FEDC054
:1052800077F3ECC076F3EBC075F3EAC074F37B6F91
:1052900072C37AF371C379F370C378F30001E0EC61
:1052A00014F001C062F302D00001E09347D4DA2D7C
:1052B00043EF2DF00301706B70510001F2EC01F02F
:1052C0000301702B006E00509EA8FED7AD6E110E2C
:1052D000705DF2E10D0E9EA8FED7AD6E0A0E9EA87F
:1052E000FED7AD6EF288F28A010E0001DE6FE0B7E4
:1052F00001D0FDD7F3C071F3F2C070F371C373F343
:1053000070C372F303019E6B73C3D6F372C3D5F3FC
:10531000270ED86F100ED76F000187EC0FF001C079
:105320007FF30301A26BA16BA06B7FC39FF3A2C3AA
:10533000E5F3A1C3E4F3A0C3E3F37FC3E2F3E96BB6
:10534000E86B270EE76F100EE66F00013FEC0BF0E5
:1053500003C08DF302C08CF301C08BF300C08AF34D
:1053600003018A51725D9F6F8B517359A06F000EBC
:105370008C55A16F000E8D55A26FA66FA1C3A5F32A
:10538000A0C3A4F39FC3A3F3AA6BA96B030EA86FDA
:10539000E80EA76F0001AAEC0FF000C07EF3030136
:1053A000A26BA16BA06B7EC39FF3A2C3E5F3A1C365
:1053B000E4F3A0C3E3F37EC3E2F3E96BE86B030E0F
:1053C000E76FE80EE66F00013FEC0BF000500301C1
:1053D0008A2701508B2302508C2303508D238A513E
:1053E000725D9F6F8B517359A06F000E8C55A16F2A
:1053F000000E8D55A26FA66FA1C3A5F3A0C3A4F3A1
:105400009FC3A3F3AA6BA96BA86B640EA76F0001DF
:10541000AAEC0FF000C07AF30301A26BA16BA06BA2
:105420007AC39FF3A2C3E5F3A1C3E4F3A0C3E3F3FC
:105430007AC3E2F3E96BE86BE76B640EE66F000199
:105440003FEC0BF0005003018A2701508B230250E0
:105450008C2303508D238A51725D9F6F8B5173593A
:10546000A06F000E8C55A16F000E8D55A26FA66F18
:10547000A1C3A5F3A0C3A4F39FC3A3F3AA6BA96B15
:10548000A86B0A0EA76F0001AAEC0FF000C079F319
:105490000301A26BA16BA06B79C39FF3A2C3E5F3D9
:1054A000A1C3E4F3A0C3E3F379C3E2F3E96BE86BD0
:1054B000E76B0A0EE66F00013FEC0BF000500301B2
:1054C0008A2701508B2302508C2303508D238A514D
:1054D000725D786F9D6B9C6B9B6B9A6B19C109F128
:1054E00018C108F117C107F116C106F19D31956F7A
:1054F0009C31946F9B31936F9A31926F95339433B3
:105500009333923395339433933392339533943367
:10551000933392330F0E951795C399F394C398F371
:1055200093C397F392C396F395C3A6F394C3A5F3DD
:1055300093C3A4F392C3A3F3AA6BA96BA86BE1C0B6
:10554000A7F30001AAEC0FF003C095F302C094F397
:1055500001C093F300C092F395C3E5F394C3E4F361
:1055600093C3E3F392C3E2F30301E96BE86BE76BE8
:10557000E1C0E6F300013FEC0BF003C091F302C081
:1055800090F301C08FF300C08EF303018E51965D3E
:105590008E6F8F5197598F6F90519859906F91518D
:1055A0009959916F925306E1935304E1945302E1A8
:1055B000955325E009C10DF108C10CF107C10BF1AC
:1055C00006C10AF10DC1D8F30CC1D7F30BC1D6F354
:1055D0000AC1D5F300012CEC0EF003C009F102C0A2
:1055E00008F101C007F100C006F1FF0E0301922788
:1055F000D8A09327D8A09427D8A09527D3D7020E58
:105600000101065D0301826F000E010107590301CC
:10561000836F000E010108590301846F000E010120
:1056200009590301856FE1C000F0016A026A036A4B
:1056300003C0A2F302C0A1F301C0A0F3E1C09FF335
:1056400085C3E5F384C3E4F383C3E3F382C3E2F3E6
:1056500003C0E9F302C0E8F301C0E7F3E1C0E6F3F9
:1056600000013FEC0BF003C085F302C084F301C0DE
:1056700083F300C082F3FA51030182270001FB513A
:10568000030183230001FC51030184230001FD5128
:10569000030185238E5182278F51832390518423C8
:1056A0009151852385C3E3F384C3E2F383C3E1F31C
:1056B00082C3E0F3000141EC0AF0100E0301776FA2
:1056C0007753D8B49CD000011AEC0BF003019E2B49
:1056D000185203E01850E50809E10F0EE16F0001D0
:1056E00009EC0BF00F0E03019E277FD0300E185CE3
:1056F000816F300E195C806F00011AEC0BF0030112
:105700009E2B300E185C7D6F300E195C7C6F000193
:105710001AEC0BF003019E2B300E185C7B6F80514E
:105720007E5D57E181517F5D54E17B51785D51E1B0
:105730007C51795D4EE17D517A5D4BE100011AECBF
:105740000BF01AEC0BF018C074F319C075F31AECD7
:105750000BF0030E03019E2718C076F374516D08F9
:1057600009E074514D0806E07451570803E0745184
:1057700077080FE17551500809E07551700806E08F
:105780007551410803E07551610803E17651330812
:1057900006E07651560803E07651760819E1000ECE
:1057A000D8809E559F6F010ED8A0E806A06F9FC3BA
:1057B000E1F3000109EC0BF029EC0BF09AC300F0C7
:1057C0009BC301F09CC302F09DC303F065D00301AD
:1057D00006D0030EE16F000109EC0BF003010A0E85
:1057E000E16F000109EC0BF00301010E9A27D8B01C
:1057F0009B2BD8B49C2BD8B49D2B770761D706C1BF
:1058000086F307C187F308C188F3010109510F0B23
:105810000301896F000129EC0BF003019D51010187
:10582000115D30E311E103019C510101105D2AE398
:105830000BE103019B5101010F5D24E305E103012D
:105840009A5101010E5D1EE3030189510F08D8B082
:1058500002D0010117D0D8A441D68851FF08D8B092
:1058600002D001010FD0D8A439D68751FF08D8B093
:1058700002D0010107D0D8A431D68651EF08D8B0A4
:105880002DD6010100002D0E9EA8FED7AD6E006A38
:10589000016A026A036A000103C06BF302C06AF383
:1058A00001C069F300C068F30301685307E169535D
:1058B00005E16A5303E16B53D8B4DFD06B5307E1C2
:1058C0006A5305E1695303E16851040818E2050EC3
:1058D000685D706F000E6959716F000E6A59726FC2
:1058E000000E6B59736F776F72C376F371C375F3E4
:1058F00070C374F3786B0001FCEC0FF003016B5381
:1059000007E16A5305E1695303E16851030818E2AE
:10591000040E685D706F000E6959716F000E6A5950
:10592000726F000E6B59736F776F72C376F371C32A
:1059300075F370C374F3786B0001FCEC0FF0030196
:105940006B5307E16A5305E1695303E168510208AB
:1059500018E2030E685D706F000E6959716F000EDA
:105960006A59726F000E6B59736F776F72C376F35B
:1059700071C375F370C374F3786B0001FCEC0FF026
:1059800003016B5307E16A5305E1695303E1685171
:10599000010818E2020E685D706F000E6959716FA0
:1059A000000E6A59726F000E6B59736F776F72C376
:1059B00076F371C375F370C374F3786B0001FCEC7C
:1059C0000FF00301685306E1695304E16A5302E1F1
:1059D0006B5318E0010E685D706F000E6959716FAE
:1059E000000E6A59726F000E6B59736F776F72C336
:1059F00076F371C375F370C374F3786B0001FCEC3C
:105A00000FF003016BC377F36AC376F369C375F3D1
:105A100068C374F3010E786F0001FCEC0FF0D890AE
:105A2000036AF131026EF031016EEF31006EEA254A
:105A30000301706F01500001EB210301716F0250EF
:105A40000001EC210301726F03500001ED210301FD
:105A5000736FEDC077F3ECC076F3EBC075F3EAC07B
:105A600074F37B6F72C37AF371C379F370C378F305
:105A70000001E0EC14F001C062F30001E0B701D0D6
:105A8000FDD7E09737D4DA510408D8A431EF31F0CC
:105A90000301706B7051000108EC02F00301702BE0
:105AA000006E00509EA8FED7AD6E150E705DF2E13F
:105AB0000D0E9EA8FED7AD6E0A0E9EA8FED7AD6E47
:105AC000F288F28A010E0001DE6FE0B701D0FDD747
:105AD000F3C071F3F2C070F371C373F370C372F368
