:020000040000fa
:080000000401040000000000ef
:020000040000fa
:1002000000000000000000004fa7200080ff200039
:100210000001880000000000050007000c00070036
:10022000e0180200000000000040da000000fe00bc
:100230004440a900405220000000e00003003200ca
:1002400000002000a00188004440a8000000060033
:1002500080ca210001002000160037006200400023
:10026000e0804800910188009001ba0062004000df
:10027000e0804800910188009002ba0062004000ce
:10028000e08048000002eb006028e10005003a0031
:100290008301e90007003300038009000059eb00e7
:1002a000040037006128e100010032000082eb0009
:1002b00005000700910188001001ba000200e0006b
:1002c000e6ff3a00000005009101880080027800f6
:1002d00062004000e08048003559ba008301e9001f
:1002e000080032002559ba008301e90005003200f8
:1002f0000400e000f4ff320015d9ba008301e900e0
:10030000f1ff3a000000060080007800010037008d
:100310000000e8001004e000fdff3a00010050007a
:1003200000000600881f780002047800140007000f
:10033000080040004f047800000006000000fa00aa
:10034000881f7800000478003fb99700ea815700c1
:10035000800078002019200012000700800078003b
:100360000000e000020035000040eb0080707c00df
:10037000010078004f0478000080fa0000000600b9
:10038000000278008001780001003700b159780040
:1003900002004200808f5100fcff3a000400780008
:1003a000000006006200fa00889fbe008a9fbe001f
:1003b0000004be00020578008300780060f92f0079
:1003c0000f004000af00070088979f0099979f009b
:1003d0000000eb00a09f9f009a4578000b80fb0077
:1003e0000000ea00cf04de000904e90050c2b300b7
:1003f00080cf550001003200090478000800e000b9
:100400000b003400080178008a0078001f909700e4
:100410008f9197000300010090979f000000e0007b
:10042000930032002f98970008004000a09f9f0083
:100430000905450050c2b30080cf550004003200ca
:100440000b04e000e4ff3a002f9897008900370082
:100450000000eb00809f9f00f0979f00e0979f00b7
:10046000d0979f00c0979f00b0979f00c09f9f00ac
:100470000900370040a32000008050000000400029
:1004800081a22000e08078004f9897000100700062
:10049000c09f9f000a05e8001a4478008800fb000e
:1004a00040a320007c000700800078000000e000ee
:1004b000f0ff3a00a0c2b300804f54000e003a0093
:1004c000bf8897000180e900b08f9f0090007800fe
:1004d000b19f9f000100e00005003d000100ea001f
:1004e000b09f9f004f9897000020a000c09f9f00e2
:1004f0000a05e80010003700b19f9f00090037008f
:10050000bf989700f0ff2700808f50000400320052
:100510006a08b9000000410003004000b09f9f003e
:100520000a05e8001a01fb0003fd2f00030041004b
:10053000e90f5000f2ff3600e0c2b3009a4f1000fe
:10054000040032000080eb00909f9f008a04780036
:100550001c0037008a04e800a0c2b300994f1000c5
:1005600007003a00bf8897000180e900b08f9f0024
:1005700010007800909f9f008a84e80011003700e7
:100580000000eb00909f9f00090037009f989700a4
:10059000f0ff2700808f5000040032006a08b90085
:1005a0000000410003004000909f9f008904e80084
:1005b0001901fb0003fd2f0003004100e90f50006b
:1005c000f2ff3600194478008800fb0040a52000a7
:1005d000310007000000e00002003a00004478000b
:1005e000010037008904e800a87f9f0080c6b3009f
:1005f000804f540004003a0066405000994f1400a8
:100600000700320008003700c0c6b300804f540016
:1006100005003a00994f140003003a00654040007d
:10062000a07f9f008904e8000905e800c8fb2f00af
:100630000f04440060f92f000f0040008085e8009f
:10064000880178001901fb00800078000b00780019
:10065000190007000000e00005003a00880078005b
:100660000b0078005e0107000000e0005aff3d002b
:100670000080eb004f05be004f04be000080fa0072
:10068000000006000200fa00f1bf9f000108780098
:100690000080fa0000000600040037001004e000ab
:1006a00001003a00000005000000e80090cf1000b3
:1006b000faff3a0000000600889fbe008a1f7800fb
:1006c0000004780001027800824478000305780075
:1006d000e0c6b300804f5100d700320015003c0047
:1006e0006b405000804f5100240032000a003c0053
:1006f00070405000804f51001401320065404000ae
:10070000804f51007600320050c2b300804f51003c
:1007100027013a002301370040c6b300804f510043
:100720001b00320065404000804f510020013a001c
:100730001700370030c7b300804f5100030132006b
:1007400007003c0064405000804f510064003200bc
:100750000040e800804f510015013a00ec003700de
:1007600050c7b300804f51005d003200634040002d
:10077000804f51000e013a00590037009180e90086
:10078000010a78007800900011f079000e0137001e
:1007900028619000c0c6b300804f51000a003a00a3
:1007a0001400780064015000020a78001200be00b4
:1007b0004f88de00cf80de001202be00000378000a
:1007c000800378001500370010c7b300804f510038
:1007d00002003a009400780004003700940078008a
:1007e000a0c6b300804f510005003a006880500059
:1007f000000a78003002be002003be000700370068
:100800000180e900000a78001000780000027800fa
:10081000cfa2de000503780086037800049cbe00aa
:100820000694be00a860900080c6b30080cf500040
:100830000e00320020c6b30080cf500005003a0001
:100840000400fb00cf80de00010178008201780007
:100850000a00370040c7b30080cf500003003200c9
:100860006640400080cf500006003a000400780047
:10087000cf80de000101780082017800009cbe007c
:100880000294be003800be002801be00e00f5000f8
:10089000e08f5800e00f5900e08f590003003d0041
:1008a00078009000d1c2b3000a0037000810900011
:1008b0000018a3000300320078009000b1c2b3001a
:1008c000040037000008a3005600320078009000b2
:1008d00001c2b30001707d000000e8005000370045
:1008e00028619000c0c6b300804f510007003a0055
:1008f0009400780064805000000a78001002be0066
:100900000003eb00860378001500370010c7b30022
:10091000804f510002003a00940078000400370034
:1009200094007800a0c6b300804f510005003a0043
:1009300068805000000a78003002be002003be002c
:10094000070037000180e900000a780010007800f5
:1009500000027800050020000600200007002000ab
:10096000049cbe000694be00a860900080c6b30040
:1009700080cf50000e00320020c6b30080cf500060
:1009800005003a000480fb00010020000200200066
:10099000030020000a00370040c7b30080cf50009a
:1009a000030032006640400080cf500006003a004d
:1009b0000400780001002000020020000300200055
:1009c000009cbe000294be00081090000038a300f6
:1009d000140032003800be002801be00e00f5000b5
:1009e000e08f5800e00f5900e08f59000d003200f1
:1009f00080c7b30080cf54000300320080c5b3002d
:100a000080cf540007003a007800900001c3b30083
:100a100001707d008000e80089707d000080e800a2
:100a20007004980078009000000045006004980071
:100a30008940780042003700a8609000c0c6b3002b
:100a400080cf5000250032000a003c006440500076
:100a500080cf50002800320000c0e80080cf500056
:100a6000140032006840500080cf500022003a004d
:100a70000a00370040c7b30080cf50001e0032008c
:100a80006640400080cf50001b003200694050009b
:100a900080cf500018003a00060037001480e900ab
:100aa000000a780010007800485c90000848780040
:100ab000470037001480e900000a7800100278002f
:100ac00068089000cf80de00010178008201780084
:100ad000009abe000292be003d0037001480e9007b
:100ae000000a78001001780068089000cf80de00ce
:100af0000089be00360037001480e900000a780043
:100b000010007800680c900008087800300037006a
:100b10001180e9008008780010007800cf80de00a6
:100b20000101780082017800009cbe000294be00a2
:100b300078009000000045006004980081c7b30071
:100b400008007800f0000700210037001480e90059
:100b5000000a78009001780063049800580990001a
:100b60000200e00003003d0003007800e6fd0700fe
:100b70000a0037008000eb000300780095010700b1
:100b8000800078000000e000030032006800900060
:100b9000008050000100370058089000100c9800a9
:100ba0000b0037007800900002707d0006003700cf
:100bb00078009000800045000904e00001003a0040
:100bc00059c2b300894878000000e800700498001a
:100bd0000000eb004f0578004f04be000000060047
:100be0000400fa00889fbe008a9fbe008c1f780018
:100bf000000478000106780070089000f80090006a
:100c000001005000880890000100500098089000f2
:100c100001005000a808900001005000b8089000a2
:100c200001005000c8089000810550000002220019
:100c3000a0bf9f000003230090bf9f0008109000fa
:100c40000028a30018003a000b00e0001600340052
:100c50008b04780009057800e28f5400020036000a
:100c60002a002000020037000900e0000b003400d9
:100c7000c80190000a017800ec80570058009000ed
:100c800003000100500498000000e00096003200cc
:100c9000680890000a004000600c98008a845400a4
:100ca0004240a900ebff3c00780190000200e00008
:100cb0000b003400c80190008c00780058009000b0
:100cc00003000100500498000000e000860032009c
:100cd00068089000f800900001004000600c980047
:100ce000880c90000900e000150034000905780028
:100cf000e28f5400020036002a0020000200370074
:100d00000900e0000b003400c80190000a017800df
:100d1000ee80570058009000030001005004980036
:100d20000000e00070003200680890000a004000f7
:100d3000600c98008a8454004240a900ebff3c00fc
:100d4000180990000200e0000b003400c801900078
:100d5000e800900058009000030001005004980043
:100d60000000e000600032006808900098089000e1
:100d700001004000600c9800a80c90000900e00001
:100d80001500340009057800e28f54000200360097
:100d90002a002000020037000900e0000b003400a8
:100da000c80190000a017800ee80570058009000ba
:100db00003000100500498000000e0004a003200e7
:100dc000680890000a004000600c98008a84540073
:100dd0004240a900ebff3c00380990000200e0000f
:100de0000d003400e800900018089000808040005a
:100df000c8019000580090000300010050049800c2
:100e00000000e0003800320068089000b808900048
:100e100001004000600c9800c80c90000900e00040
:100e20001500340009057800e28f540002003600f6
:100e30002a002000020037000900e0000b00340007
:100e4000c80190000a017800ee8057005800900019
:100e500003000100500498000000e000220032006e
:100e6000680890000a004000600c98008a845400d2
:100e70004240a900ebff3c00081090000028a300ae
:100e80001b0032000b00e000190034008b047800d6
:100e900009057800e28f5400020036002a00200085
:100ea000020037000900e0000b003400c801900088
:100eb0000a017800ec805700580090000300010000
:100ec000500498000000e00007003200680890001d
:100ed0000a004000600c98008a8454004240a90037
:100ee00003003400eaff37000080eb000100370008
:100ef0000000eb004f0678004f05be004f04be0017
:100f00000080fa00000006006f02b000889fbe005b
:100f10008a9fbe008c9fbe008e1f7800000678005e
:100f2000709e200080bf9f0080c5b30080cf50001e
:100f30000700320082002000f2b79f00639d20006e
:100f400083bf9f007740400080cf50000a003200ee
:100f500080c7b30080cf500005003200a4002000fd
:100f6000f4b79f0080c5b30080cf500002003a0064
:100f700000012000f0b79f003c04be002c05be001d
:100f800040c6b30080cf50000300320065404000ef
:100f900080cf50000b003a00e00f5400e08f5c005f
:100fa000e00f5d00e08f5d0006003d006000b800ce
:100fb0006011b80008045000898458000a055900df
:100fc0008b855900e00f5400e08f5c00e00f5d005e
:100fd000e08f5d0004003a005c0890008d01200065
:100fe0000000e0000c003200ffb097000102780022
:100ff000cfa2de0005037800860378000800be005b
:101000000a01be00850207000fba9700644078000d
:10101000d0e79f007d0120007fb09700000278009c
:10102000cfa2de0005037800860378000800be002a
:101030000a01be0072020700009ebe000296be00ba
:101040000d00e900e1fc2f008f8040000087400088
:101050001a0037007fb1970002027800cfa2de00ad
:1010600005037800860378003c00be002c01be001a
:101070006e0207000205be000004be008d06e900f6
:10108000ffb1970003027800cfa2de0005037800cd
:10109000860378000800be000a01be00ec020700cb
:1010a0003fb29700000052008fb8970060cf7800e1
:1010b000089ebe000a96be000e07e9003c00be0076
:1010c0002c01be00b0b79f00c1b79f00d2b79f00f0
:1010d000e3b79f00e00f5000e08f5800e00f590089
:1010e000e08f5900020034000d00e000d9ff3c0001
:1010f000ffb09700e88f500010003a000c109000ed
:101100000038a3000d003200f78f560006003e00a5
:10111000e2fc2f000d014100e2c07f0000c3b300dc
:1011200080cf5000050032008d06e90000c3b300f7
:10113000e3fc2f008d81410080f17f007881160053
:10114000120e98006c009000e3fc2f008f8141008c
:101150008d8041008afc07001c0990005c0890000b
:10116000800f510006003d0002005000000e980064
:101170000c1090000040a100001698000f003700ee
:101180000000e0000d003d000c10900074006000b5
:10119000f00f500009003a007c089000fc0090001d
:1011a000010050008c089000010050000200500027
:1011b0004240a90001003400000e98004f0778005b
:1011c0004f06be004f05be004f04be006f02b100c7
:1011d00000000600820178000400370090cf100064
:1011e000050032000000e8008301e9000300e00090
:1011f000faff3a000000eb00000006006022b80091
:10120000060220000000d0008180d2000482d200bb
:101210008582d2000000a0000202520083825a00a0
:1012200003003b000202420083824a000000a1004a
:101230000603e900f3ff3a0000000600889fbe00a5
:101240008a9fbe00010578000100e000040035001f
:1012500008003c000000e0002000320005003700dc
:1012600060001000e080180002003b0001f02c003c
:101270001a0037000004be006011b8006b0920009e
:101280000982cf00020039000882cf000441b0007b
:10129000694252000e00320008003b00828171005a
:1012a000610164008904d1000884d3008b05e80043
:1012b0000442e800f9ff3a00050037000804440042
:1012c00089844c008b05e9000442e900fbff3a00e9
:1012d000f40007000af0a70001f0a0004f05be00cf
:1012e0004f04be0000000600889fbe008a9fbe001b
:1012f0008c1f7800110107001801330003866c0071
:101300006450e1002e0032006420e100330032001e
:101310006150e1002f0032006120e1003100320015
:1013200085855500eb07b000090020000804200067
:10133000050037000804440089844c000a0031008d
:101340000603430087834b000001530081815b004b
:10135000f8ff33000203be000800a00008044400a8
:1013600089844c00f6ff3900c639dd008301730023
:1013700001003200130020008904d1000884d3004a
:101380000998a300050032000800a7000300a00090
:101390008904d1000884d3008b05e8008904d100ba
:1013a0000884d3000001eb000281d200bd000700d9
:1013b00001f0a1000cf0a70001f0a000f000370040
:1013c0006420e100f20032000801be000200be000d
:1013d000f7ff37006120e100ed0032006000b80047
:1013e000f3ff37000000200001f82700f0ff37006e
:1013f000889fbe008a9fbe008c1f7800cf00070028
:10140000d600330003866c006450e10024003200f3
:101410006420e100270032006150e1002200320028
:101420006120e100210032008b854200eb07b10012
:101430000134b800003ab8000804420089844a0028
:10144000013ab8000030b8008880400009014a0025
:101450000400330000004000818048000201490080
:101460008b05e900c909dd0083017000010032002d
:1014700013002000c814de004814dd004709de0018
:101480001200b200c808de00088470008500070062
:1014900001f0a1000cf0a70001f0a000b800370097
:1014a0006120e100ba0032000801be000200be0067
:1014b000f7ff37006150e100fcff3a00b40037004d
:1014c0000001be00b50007000470a70003f0a100f2
:1014d00003f8a30013003a006509b10010003200c0
:1014e000090035006928e1000200350001002800ec
:1014f0000000050000004000818048008502e900ee
:10150000fcff3a0000000600f88f4200050035009d
:101510008100d1000080d3008502e800fcff3a0082
:10152000000006008000eb000000050003f0a200b0
:10153000889fbe008a9fbe008c1f78007f00070036
:10154000860033006450e1004f0032006420e10067
:101550005200320003826c0007003b000905d000f6
:101560000306d000820f54000c065d000200390013
:101570000200320089017800030678008582550058
:1015800004003d000003fd008103fd008502ea0028
:101590008b854200840f720002003b006000100047
:1015a000e08018006011b8000005eb007a28e10027
:1015b0000a00390006007800c75ddd00f707b200b9
:1015c000878075002d003700828171000a01780044
:1015d000610560008180d1000080d3008502e900b0
:1015e000f9ff3b00060440008784480002003b00ee
:1015f00060041400e0841c000988a3000700320086
:101600008a81710082817100610164008904d100c6
:101610000884d3008b05e800170037000978a30081
:1016200013003a000b00e000130034008b05e900c2
:101630000804440089844c000a4474000978a3001b
:101640000d003a000b00e000070034008b05e900b4
:101650000804440089844c0001003a000b0020007b
:101660000978a300f7ff32000001eb000200370009
:10167000828171000a0178000a0007000cf0a700bf
:1016800001f0a0003e0037006420e10002003a00b3
:10169000838f6c003e0033000801be000200be00d4
:1016a0003700370081002000618055000b003d00ad
:1016b0000b00200061fe2f000100e1001d0034003e
:1016c00082817100610164008904d1000884d30023
:1016d0000000e800faff3a00710020006100640099
:1016e0000300700002006000090032006104440041
:1016f000e0844c000988a500050032008b05e80055
:101700006808e10002003a008904d1000884d3008f
:10171000f20f20000258e10005003d00c75ddd002a
:10172000f907b20089807500080078000000060003
:101730000bf827008b007800000005000004be00b5
:10174000160007000003be000405be000200be0034
:1017500012000700844f7500000006000200be0062
:101760006450e100050036006420e100020036000c
:101770000968a30001003a000800be000160a00053
:101780004f0678004f05be004f04be000000060063
:10179000f0ff2f00f1ff2700f9ff3700c70ade0036
:1017a000f107b200f50fb20008003200e1cf4200ad
:1017b000020032000170a00024000500810f7000bb
:1017c000010032000408050044000500810f70008c
:1017d00002003a00140005008502e9000000400004
:1017e00081c04800fcff3b000170a0002400050000
:1017f000881f7800000478005001be004000be0041
:101800000000420081804a0002014b0083814b00ae
:10181000009cbe000294be000400e1000588e100c7
:101820000690e1000798e1000200310068004400e2
:101830001008e8004f04780000000600f487470015
:10184000889fbe008a9fbe008c9fbe008e1f7800be
:101850000205be000004be00d4b79f00e5b79f009c
:10186000f6b79f0087bf9f000000eb00c0b79f0046
:10187000b0b79f00a0b79f0090b79f0080b79f00b0
:101880000d042000bfb097004fb09700000140004a
:101890000000e00014003d004f08de000000710071
:1018a000c0b79f00ad00070001003d0012002000fe
:1018b000b000070001003d0012002000b500070045
:1018c00001003d0012002000ba000700be00070022
:1018d000feff3a00c2000700c80007000f004000ea
:1018e000c3ff0700270037004f08de000006710025
:1018f000ccb79f009900070001003d0012002000b6
:101900009c00070001003d0012002000a10007001c
:1019100001003d0012002000a6000700aa000700f9
:10192000feff3a00ae0007000fb297009fb297008b
:101930002fb39700bfb39700b60007000000520016
:1019400081805a0002015b0083815b0080b79f00a9
:1019500091b79f00a2b79f00b3b79f000007eb00ad
:10196000ac0007000020e10001a8e10002b0e100a6
:1019700003b8e100010031001e0020000e005600f7
:10198000c0b79f004fb297000400e0000700350089
:1019900010002000010020006011b8000804700051
:1019a000898470000a0571008b8571008d06e9003d
:1019b000b4ff3a000400e00003003d008f00070080
:1019c0000f0040008aff07004fa897000000e000ca
:1019d00004003a000fb497009fb497002fb597000a
:1019e000bfb59700970007004f0778004f06be006d
:1019f0004f05be004f04be004f01b10000000600bd
:101a0000881f780018002000881f78008bff0700cf
:101a10008f87e9004f04780000000600801feb006c
:101a200086ff07008f87e90000000600889fbe0040
:101a30008a9fbe008c1f78007b00070005003d00d8
:101a40002f00070007003d003d0007000006eb00e7
:101a5000040037003f00070002003d00300007008f
:101a60001c00200077000700e5ff07000203be000e
:101a70000002be000c00e000010032002800070058
:101a80000400be000601be004f0678004f05be00f0
:101a90004f04be0000000600889fbe008a9fbe0063
:101aa0008c1f78006000070003003d001400070051
:101ab00006003d00040037002600070003003d003b
:101ac0006000b8006011b8001d0007005d0007004d
:101ad000d2ff07000203be000002be000c00e000bf
:101ae000010032000e0007000400be000601be0027
:101af0004f0678004f05be004f04be0000000600f0
:101b00006000b8006011b8000804500089845800d3
:101b10000a0559008b8559001c002000030037007e
:101b20006000b8006011b80005003700e00f5200f7
:101b3000e08f5a00e00f5b00e08f5b0000000600c2
:101b4000040250008582580006035900878359001b
:101b5000000006000006eb00f4ff370001804000a3
:101b600090b79f000001eb008fb097000100e000ec
:101b7000000006000200700090b79f000180400046
:101b800080b79f000001eb00ffa897000100e00074
:101b9000000006000200700080b79f000180400036
:101ba000f0af9f000001eb00efa897000100e000fc
:101bb0000000060002007000f0af9f0001824000ac
:101bc00020000700f50305008301d1000281d30046
:101bd0008180d3000080d3008502e9000000060068
:101be00000027200e4af9f000804440089844c00a6
:101bf0000a054d008b854d00000006003fb297009e
:101c0000cfb297005fb39700efb3970000fe2f00ad
:101c1000000006003fb09700cfb097005fb197007b
:101c2000efb19700000006000205be000004be00f0
:101c3000e00f5000e08f5800e00f5900e08f59008e
:101c4000000006000800be000a01be0000000600f9
:101c5000889fbe008a9fbe008c1f78000205be00d0
:101c60000004be000006eb00e00f5000e08f5800bb
:101c7000e00f5900e08f590007003d006000b800f8
:101c80006011b80008045000898458000a05590002
:101c90008b8559001c002000e00f5200e08f5a0095
:101ca000e00f5b00e08f5b0002003d000f000700cb
:101cb0000c00a2000800be000a01be0012000700ce
:101cc0000203be000002be000c00e0000100320072
:101cd000060007000400be000601be004f067800a3
:101ce0004f05be004f04be00000006006000b800b3
:101cf0006011b800040250008582580006035900a4
:101d00008783590000000600889fbe008a9fbe009e
:101d10008c9fbe000404b8000506b8008904460084
:101d200060854e000606b8000a054600e0854e00b4
:101d30000706b8008b054600040eb800890446006b
:101d40000a854e00e0854d00050eb8000a054600e4
:101d50008b854e00060eb8008b0546000416b800b1
:101d60000a0546008b854e000516b8008b05460017
:101d7000041eb8008b0546000800be000a01be0024
:101d80004f06be004f05be004f04be000000060017
:101d9000200688000000060084e0a900c401dd00e0
:101da0000347b2007109200091407800f2c8b300e7
:101db00082c0600083c070008000fd0097e0b70023
:101dc0008000fd00680060004300de00004040002d
:101dd0000040400000404000004040000040400003
:101de0000040400000404000c108200091407800c1
:101df0000174a10080c07000010078008ce0b70081
:101e00000000060041088800300888000000060035
:101e10008000eb00310888005108880062088800c3
:101e200073088800800888001061a8000000060080
:101e30005008880000000600000888000000060026
:101e40000de2a9008d20a9008d40a9008520a900e0
:101e50008540a900000006008520a9008540a90052
:101e6000c401dd000347b2008109200091407800e1
:101e7000f2c8b30082c0600083c070008000fd0023
:101e800098e0b7008000fd00800178000307b200f1
:101e9000c419de00910920009140780082cfb30080
:101ea00082c0600083c070008000fd0099e0b70030
:101eb0008000fd00680160004311de000241410026
:101ec000d1082000914078000114a10082c0700068
:101ed0008000fd008de0b7008000fd000008b2002a
:101ee0004700de000040400000404000d1082000d4
:101ef000914078000124a10080c0700001007800aa
:101f00008de0b70000000600a21088006010880075
:101f100071108800000006008700a9008720a90032
:101f2000e7416000010a20009140780082cfb300b1
:101f300082c0600083c070008000fd00a0e0b70098
:101f40008000fd004301de004311dd000247b200c6
:101f5000010a200091407800f3c8b30083c06000fc
:101f600082c070008000fd00a0e0b7008000fd008e
:101f7000680160004311de00f10820009140780004
:101f80000104a10082c070008000fd008fe0b70056
:101f90008000fd000008b2004700de000040400065
:101fa000f1082000914078000114a10080c0700069
:101fb000010078008fe0b70000000600f2108800f2
:101fc000b0108800c1108800000006008000780072
:101fd00023c2bf000028a30001003a00f10fb200a5
:101fe00021118800000006009100a90080cfb300f5
:101ff0002361b6008900a900000006008900a9003d
:10200000e7416000810a20009140780082cfb30050
:1020100082c0600083c070008000fd00a8e0b700af
:102020008000fd00680060004300de001109200010
:10203000914078000104a10080c070000100780088
:1020400091e0b7000000060023e1a900f2ff2200a2
:1020500002016000120988004b00de006140600050
:10206000004040000040400000404000321220008c
:10207000124178000234a100004171000200780092
:1020800023e1b700210988000000060088e0a900cc
:102090008960a9004401dd000247b200710a2000f6
:1020a00091407800f3c8b30083c0600082c0700024
:1020b0008000fd00a7e0b7008000fd004301de00c6
:1020c0004311dd000247b200910a200091407800e0
:1020d00083c0600082c070008000fd00a9e0b700ee
:1020e0008000fd00e8006000c308de0081c0400001
:1020f00081c0400081c0400081c0400081c04000dc
:1021000081c0400081c040000209200012417800d7
:102110000274a100014171000001fd0090e0b700d0
:102120000001fd000008b2004700de000040400052
:10213000004040000040400011092000914078001c
:102140000134a10080c070000100780091e0b70068
:102150000000060061416100a31c2000934178004b
:102160000304a10082c171008001fd00cae1b70033
:102170008001fd0000004000621d20000281e90096
:102180000130790000000600200e8800310e880022
:10219000430e8800540e8800020e880000000600de
:1021a000300980000000060020c2bf00610060000e
:1021b0000000060020c2bf008080eb000008a300e2
:1021c0000800320020c2a90023c2bf000028a300db
:1021d000020032002111800002003700211180002e
:1021e000f10fb20001007800000006008d00a90088
:1021f00021e2a9008500a900000006001011880056
:1022000001118800000006008500a900e741600078
:10221000810920009140780082cfb30082c0600025
:1022200083c070008000fd0098e0b7008000fd00d2
:10223000680060004300de00d10820009140780073
:102240000104a10080c07000010078008de0b7009b
:10225000000006006000b800cdfe0700f00f20006f
:10226000a0168800d222ef00d402a800d422a80031
:10227000d402a900d422a900d402a800d422a80024
:10228000b0ff2f00c4fe07006000b800ddfe0700ad
:102290003233270003002000d2508800e35088002a
:1022a000d0f82f00dafe07008c60a9008cc0a800cf
:1022b0008ce0a9000000060000000600889fbe0018
:1022c0008a1f780084e0a900000478008004eb00f5
:1022d0006000b800cbfe07008440e200feff3d0036
:1022e00084e0a9000804e900890f5400f8ff3a00cf
:1022f0004f0578004f04be0000000600881f7800dc
:10230000d402a800d202a90060a12900450107005b
:10231000f8002000803e2000e8ff07000804e900e4
:10232000fcff3a00c0a329003e010700c0a5290018
:102330003c010700412d200091407800e1c0600081
:102340000104a200d4c2bf000004a100014070003b
:10235000d4e2b700803e2000d8ff0700412d2000c6
:1023600091407800e1c060000104a200d4c2bf0027
:102370000004a10001407000d4e2b700803e2000bc
:10238000ceff0700ebff370000000600889fbe006d
:102390008a1f780084e0a900000478008004eb0024
:1023a00010002000a2fe07008440e200feff3d0076
:1023b00084e0a9000804e900890f5400f8ff3a00fe
:1023c0004f0578004f04be00000006007200b900ff
:1023d000eeff3700889fbe00000478008084eb0089
:1023e000c08f2000e9ff07000804e900890f5400ae
:1023f000fbff3a004f04be0000000600889fbe00ad
:102400008460a900000478008004eb001000200024
:1024100089fe070084c0bf000038a300fdff320022
:102420008460a9000804e900890f5400f7ff3a000e
:102430004f04be00000006000200fa00e14f500009
:1024400022003200e44f5000030032006ff8970082
:102450000080fa0000000600d0168000e0ff9f0018
:10246000c8c2bf004400de006100600000404000c0
:10247000004040000040400000404000eff897005e
:102480000144a10000c07000e0ff9f00c8c2bf006f
:102490004500de0061006000004040000040400058
:1024a000004040000040400000404000eff897002e
:1024b0000154a10000c07000e0ff9f006ff897007a
:1024c0000080fa0000000600e3ff3700401680009d
:1024d000e0ff9f00dac2bf004400de006100600040
:1024e00000404000004040000040400000404000ec
:1024f000eff897000144a10000c07000e0ff9f00ca
:10250000dac2bf004500de0061006000004040000c
:1025100000404000004040000040400000404000bb
:10252000eff897000154a10000c07000e0ff9f0089
:10253000e2ff37000200fa00e1ff9f00e14f500088
:1025400027003200e44f5000020032000080fa0001
:1025500000000600eff897000180fb00d01688000d
:10256000eff897000180fb004400de00614060004e
:10257000004040000040400000404000004040005b
:10258000812c2000914078000144a10080c070009f
:1025900001007800c8e2b700eff897000180fb0067
:1025a0004500de0061406000004040000040400007
:1025b000004040000040400000404000812c2000ce
:1025c000914078000154a10080c0700001007800a3
:1025d000c8e2b7000080fa0000000600ddff370007
:1025e000eff897000180fb0040168800eff8970095
:1025f0000180fb004400de006140600000404000bc
:10260000004040000040400000404000a12d20005c
:10261000914078000144a10080c070000100780062
:10262000dae2b700eff897000180fb004500de001a
:102630006140600000404000004040000040400019
:102640000040400000404000a12d20009140780053
:102650000154a10080c0700001007800dae2b700e8
:102660000080fa0000000600baff37003400f800ce
:10267000881f780008c0b300a80188004f047800c4
:102680008540a9003400f900004006003400f8003d
:10269000881f780008c0b300a80188004f047800a4
:1026a0008720a9003400f90000400600801f780050
:1026b0003400f80000c0b300a0018800d402a900d3
:1026c00010c0b30051eab7000ec2bf000008a3005b
:1026d000fdff32009010800053eab7008520a9006a
:1026e0003400f9004f00780000400600801f780099
:1026f0003400f80000c0b300a0018800d422a90073
:1027000010c0b30050eab70018c2bf000008a30011
:10271000fdff32009010800052eab7008700a90048
:102720003400f9004f00780000400600889fbe008a
:102730000004be00c2fd0700e0f22f00c6fd070046
:102740000801be0000002200c1012000abfa070012
:1027500061005000e080580000017800d1752f0022
:1027600000ba2f00e8fd07004f04be00000006007d
:10277000889fbe000004be00b1fd0700e0f22f00fc
:10278000e5fd07000801be0000002200c101200095
:102790009afa070061005000e080580000017800bc
:1027a000d1752f0000ba2f0004fe07004f04be00b1
:1027b0000000060051cabf000004e000feff320026
:1027c000516aef0053cabf000080fb000000060002
:1027d00050cabf000004e000feff3200506aef0064
:1027e00052cabf000080fb00000006008040780055
:1027f0000fc2bf000008a300fdff32000180fb00f4
:1028000080108800000006008040780019c2bf00d8
:102810000008a300fdff32000180fb00d0108800fb
:1028200000000600889fbe008a1f7800000578001f
:10283000800478000004eb000a007800b2f607007c
:10284000880f50000700360039407800e7ff070086
:102850000804e8000a007800abf60700880f500073
:10286000f9ff3e004f0578004f04be00000006004f
:10287000889fbe008a1f78000005780080047800d9
:102880000004eb000a0078009ff60700880f500054
:102890000700360039407800dbff07000804e80035
:1028a0000a00780098f60700880f5000f9ff3e00f4
:1028b0004f0578004f04be00000006001000fa002b
:1028c000801f780060a82900801f7800748057005e
:1028d0009af6070074805700d2ff0700e48757007c
:1028e0000080fa00000006001000fa00801f780047
:1028f00060a82900801f7800748057008ff60700b9
:1029000074805700daff0700e48757000080fa0060
:10291000000006001000fa000080fb00801f780015
:1029200090a82900801f78007480570083f6070064
:1029300074805700bbff0700e48757000080fa004f
:10294000000006001000fa000080fb00801f7800e5
:1029500090a82900801f78007480570077f6070040
:1029600074805700c2ff0700e48757000080fa0018
:10297000000006001000fa00801f780000a929005e
:10298000801f7800748057006cf607007480570031
:10299000a4ff0700e48757000080fa00000006004b
:1029a0001000fa00801f780000a92900801f78001d
:1029b0007480570061f6070074805700acff070071
:1029c000e48757000080fa00000006003400f80099
:1029d000881f780008c0b300a80188004f04780061
:1029e00088e0a9003400f90000400600d422ef007e
:1029f000d222ef00a8a2ef00da22ef00d822ef00e7
:102a0000d402a800c702a9003e2aef000000eb0094
:102a10000304200052952000519920008058eb00bb
:102a20000059eb000000e800830f5000fbff3a0064
:102a300055c9bf000080fb0064fd070020c2bf0035
:102a40000018a300fdff3a000000eb000302200085
:102a500052952000519920008058eb000059eb005e
:102a60000000e800830f5000fbff3a0010c0b300e5
:102a700010eab7000f6aef000e6aef0000000600d0
:102a8000881f780000047800a050880060a9290001
:102a900077ff0700881f780010ab2900801f78009f
:102aa0000085200025f607000085200070ff070044
:102ab00060ad29006eff0700e4875700100020007a
:102ac0004f047800000006009099290070488800a3
:102ad0008088280080488800707727009048880008
:102ae000b0ad290062ff07000ecabf000080fb00e6
:102af000801f78000fcabf000080fb00801f780095
:102b000010cabf000080fb00801f78000a09f8008f
:102b1000f0af2900801f78000085200007f607002d
:102b20000085200052ff070070b6290050ff070003
:102b3000ea875700000006002bfd070090ff2f00da
:102b40002efd07008000eb0031098800f00720000f
:102b50004009880030fe2d003bfd37000400fa00dc
:102b6000889fbe008a9fbe008c9fbe000004be00ee
:102b70000205be000406be0086bf9f0097bf9f00ef
:102b800010f02f0041fd07000a0045008b804d002a
:102b90008000e9000041eb00100020006dfd0700ff
:102ba0000c0046008d804e008000e9000041eb00e3
:102bb0002000200067fd07000fb997009fb997001c
:102bc00002004100838049008000e9000041eb00e1
:102bd000300020005ffd070024002000f38f20005c
:102be00082002a008000eb000800780066fd0700e4
:102bf0004f06be004f05be004f04be000080fa0025
:102c0000000006000400fa00889fbe008a9fbe00f4
:102c10008c9fbe000004be0082bf9f0093bf9f0038
:102c20000406be00e00f5000e08f58003800350069
:102c300082f907000240220043972400aaf9070006
:102c400002002000139e2400e9f907001cfa070087
:102c500061055000e0855800e00f5400e08f5c00f3
:102c6000400035000800be0074f907000004be00f3
:102c70000c53b8000dd0b900070040000be1b900bb
:102c800082034000e00f5300e08f5b0047003500f7
:102c90000600be0069f907000801be0092f90700ae
:102ca00007fa07000006be000fb897000052b800f0
:102cb0001fb9970002d0b900050040008fb89700f7
:102cc0000b89b90082024000e00f5200e08f5a00e9
:102cd0004e0035000400be0058f907000801be0090
:102ce00081f90700f6f907000001be000c03be00e1
:102cf0000c02be000a00be0098ff07004f06be008f
:102d00004f05be004f04be000080fa000000060020
:102d1000610060008000eb008901d1000881d300d0
:102d2000020070008380700044f907000001be00bb
:102d3000fff9070002402200439724006af90700c8
:102d400002002000139e2400a9f90700dcf9070007
:102d500061055000e0855800e00f5400e08f5c00f2
:102d6000c0ff3d00610064008000eb008901d100dc
:102d70000881d30002007000838070002ff90700e3
:102d80000001be00eaf907000004be000c53b800c1
:102d90000dd0b900070040000be1b90082034000ec
:102da000e00f5300e08f5b00b9ff3d00610063005e
:102db0008000eb008701d1000681d3000200700083
:102dc000838070001df907000001be00d8f90700dc
:102dd0000801be0044f90700b9f907000006be006b
:102de0000fb897000052b8001fb9970002d0b90081
:102df000050040008fb897000b89b900820240009f
:102e0000e00f5200e08f5a00b2ff3d006100620007
:102e10008000eb008501d1000481d3000200700026
:102e20008380700005f907000001be00c0f90700ab
:102e30000801be002cf90700a1f907000001be003f
:102e40000c03be000c02be000a00be0043ff0700d8
:102e50004f06be004f05be004f04be000080fa00c2
:102e600000000600aaff370000000600881f780057
:102e70008a9fbe008c9fbe006066b800140ae20004
:102e80000a003c00a0508000cf80de00ebf8070075
:102e90000001be000c00be0013f907004f06be0083
:102ea0004f05be004f04780000000600eeff07004b
:102eb000cf80de00e1f807000005be000004eb0053
:102ec0000a01be000c00be0099f907000006be0012
:102ed0000804e800a0508000880f5000e9ff34008b
:102ee0000a01be000c00be0091f907000006be00fa
:102ef0000804e800a0508000880f5000f0ff3c005c
:102f0000e0ff37000000060000000600f64f8000da
:102f100007508000145080002550800032508000ff
:102f20004350800037ff3700889fbe000004be007a
:102f3000f6ff0700889fbe00a0b62900801f78001a
:102f400000852000fdf407000085200048fe0700f2
:102f500060ad290046fe0700e687570010002000fc
:102f60004f04be00000006000000e0000b0032002d
:102f7000e10f500015003200f64f8000075080002e
:102f80001450800025508000325080004350800053
:102f900050508000615080001aff37003250880086
:102fa00043508800f64f8000075080001450800086
:102fb00025508000325080004350800050508000e7
:102fc000615080000fff3700f4ff37001250880077
:102fd00023508800f64f8000075080001450800076
:102fe00025508000325080004350800050508000b7
:102ff0006150800003ff3700e8ff37000000060043
:1030000000000600000006000000060000000600a8
:10301000881f78000004780040b8290001fe0700ee
:1030200060b92900fffd07000800780023fe0700b3
:1030300060ad2900fbfd0700100020004f04780060
:1030400000000600881f78000004780040ba2900bc
:10305000f4fd070060b92900f2fd070008007800c0
:1030600016fe070060ad2900eefd070010002000ed
:103070004f04780000000600881f780000047800e4
:1030800050bb2900e7fd070060b92900e5fd0700f6
:103090000800780009fe070060ad2900e1fd070087
:1030a000100020004f04780000000600889fbe003a
:1030b0008a9fbe000004780001057800a0bc2900aa
:1030c000ebfd07000a00e00004003a0010002000b9
:1030d0004f05be004f04be00000006008004eb0058
:1030e0008b9220002efc070001002000809dbe0076
:1030f0001801be00090078009bff0700b81f780088
:10310000b81f7800891f7800b0bd2900801f7800a3
:103110000085200089f4070000852000d4fd070009
:1031200070b62900d2fd07008904e800e88757003f
:10313000890f5500e5ff320019fc0700010020004f
:10314000809dbe001801be000900780086ff0700c0
:10315000b81f7800b81f7800891f7800b0bd29001b
:10316000801f78000085200074f40700008520008f
:10317000bffd070070b62900bdfd07008904e80007
:10318000e8875700890f5500d6ff3a00cfff370078
:10319000881f78000004780040c02900b4fd0700b3
:1031a00060b92900b2fd070008007800cefd0700d5
:1031b00060ad2900aefd07004f0478000000060056
:1031c000889fbe008a9fbe0022fc0700a8a2ef00d5
:1031d00000202c001100200065fd070040c12900df
:1031e000a3fd070001fe070000c22900a0fd0700a3
:1031f0007200070090c329009dfd0700f64f800074
:10320000075080001450800025508000325080000c
:1032100043508000505080006150800079fe0700cc
:1032200070c5290092fd070055c9bf000080fb0052
:1032300066fb070020c2bf000018a300fdff3a0094
:103240000000eb000204200053952000519920005b
:103250008058eb008059eb000000e800820f50001e
:10326000fbff3a00f0c6290081fd070044cabf00f9
:10327000e14f5000fdff3a00446aef00c902a80088
:103280000004eb000b042000599920005a952000ff
:10329000195d78003980fb00801f7800881f780056
:1032a000881f7800b0c72900801f780000852000a3
:1032b00022f40700008520006dfd07000804e800e7
:1032c000e88757008b0f5400f1ff3a00c902a900ac
:1032d00044cabf00e14f5000e4ff3a00e6ff370068
:1032e0003600f800809fbe00829fbe00849fbe0013
:1032f000869fbe00881f78003400f80000c0b3002d
:10330000a00188008500a90020c2a90031528000d8
:10331000f0032000808f50000b003400462aef009d
:1033200010c0b30044eab7003400f9004f0478003d
:103330004f03be004f02be004f01be004f00be0053
:103340003600f90000400600c9c2bf000008a30013
:10335000f5ff3a0094fb07000004e000fdff320097
:103360003852800093fb07005199200000f4780048
:103370003152800050952000614078000080fb00b1
:1033800012fb070020c2bf000018a300fdff3a0097
:10339000462aec003e2aec003400f9004f04780085
:1033a0004f03be004f02be004f01be004f00be00e3
:1033b0003600f90000400600e3ff3700f00320006c
:1033c00040158800d422ef00d222ef003e2aef0001
:1033d0000000eb00030420005295200051992000ca
:1033e0008058eb000059eb000000e800830f50000c
:1033f000fbff3a007dfb0700f1fb2d00c0192900ff
:103400007efb0700d0ff2f007ffb070098c0bf00a6
:1034100081cfb300014060005040b30098e0b70096
:0c3420008d00a800000006000000050060
:020000040000fa
:10000800401d0000401d0000401d0000401d000074
:10001800401d0000401d0000401d0000401d000064
:10002800401d0000401d0000401d0000401d000054
:10003800401d0000401d0000401d0000401d000044
:10004800701900005613000036130000401d000010
:10005800401d0000401d0000401d0000401d000024
:10006800401d0000401d0000401d0000401d000014
:10007800401d0000401d0000401d0000401d000004
:100088007613000046130000401d0000401d0000cc
:10009800401d0000401d0000401d0000401d0000e4
:1000a800401d0000401d0000401d0000401d0000d4
:1000b800401d0000401d0000401d0000e614000027
:1000c800401d0000401d0000401d0000401d0000b4
:1000d800401d0000401d0000401d0000401d0000a4
:1000e800401d0000401d0000401d0000401d000094
:0800f800401d0000401d000046
:020000040000fa
:10010800401d0000401d0000401d0000401d000073
:10011800401d0000401d0000401d0000401d000063
:10012800401d0000401d0000401d0000401d000053
:10013800401d0000401d0000401d0000401d000043
:10014800701900005613000036130000401d00000f
:10015800401d0000401d0000401d0000401d000023
:10016800401d0000401d0000401d0000401d000013
:10017800401d0000401d0000401d0000401d000003
:100188007613000046130000401d0000401d0000cb
:10019800401d0000401d0000401d0000401d0000e3
:1001a800401d0000401d0000401d0000401d0000d3
:1001b800401d0000401d0000401d0000e614000026
:1001c800401d0000401d0000401d0000401d0000b3
:1001d800401d0000401d0000401d0000401d0000a3
:1001e800401d0000401d0000401d0000401d000093
:0801f800401d0000401d000045
:020000040000fa
:10342c005374000061720000746900006e67000044
:10343c002061000020310000352000007365000081
:10344c00636f00006e640000207000006175000066
:10345c007365000020740000657300007420000088
:10346c002e2e0000200d00000a000000456e00000a
:10347c00642000006f660000203100003520000041
:10348c0073650000636f00006e6400002070000024
:10349c006175000073650000207400006573000006
:1034ac00742e0000200d00000a0000005374000070
:1034bc0061720000742000006f660000204c000058
:1034cc0045440000206600006c6100007368000039
:1034dc00696e0000672c0000206500007665000016
:1034ec007279000020730000656300006f6e0000ad
:1034fc00642e00002e2e0000200d00000a0000009b
:10350c0025640000003000007825000030320000f7
:10351c0058000000307800002530000058000000f2
:10352c004e7500006d62000065720000206f000097
:10353c0066200000536100006d7000006c65000097
:10354c0073200000436f00006d6d0000616e000081
:10355c00643a0000005200006563000065690000d9
:10356c0076650000643a0000202000004e750000d3
:10357c006d62000065720000206f00006620000084
:10358c00536100006d7000006c650000732000003a
:10359c003d20000025300000580d00000a000000fe
:1035ac000d0a00000d0a0000005300006c610000c1
:1035bc00766500003a20000052650000636500004b
:1035cc006976000065640000204700006574000007
:1035dc00205300007461000074750000732000001b
:1035ec00436f00006d6d0000616e0000643a0000d6
:1035fc0000200000204d0000657300007361000086
:10360c006765000049440000203d000020250000b3
:10361c00305800002c200000436f00006e74000036
:10362c00726f00006c6c0000657200005374000037
:10363c0061740000652000003d2000002530000072
:10364c00582c000020200000436f00006e74000016
:10365c00726f00006c6c0000657200004572000017
:10366c00726f0000724300006f6400006520000060
:10367c003d20000025300000582c000020200000c8
:10368c00436f00006e740000726f00006c6c0000e1
:10369c006572000044690000616700006e6f0000f5
:1036ac007374000069630000436f000064650000e0
:1036bc00203d000020250000305800000d0a0000bd
:1036cc00000d00000a000000526500006365000058
:1036dc0069760000656400003a2000005065000027
:1036ec00726900006f640000203d0000202500007e
:1036fc00306c0000580d00000a000000486f0000fc
:10370c006c640000205000006f7400002043000027
:10371c006f6d00006d6100006e6400003a000000e7
:10372c00202000004d6f0000746f0000722000001c
:10373c0049440000203d00002000000047650000c7
:10374c0074200000506f000074200000436f0000d4
:10375c006d6d0000616e0000643a000000430000d3
:10376c00616c000069620000726100007469000005
:10377c006f6e0000204300006f6d00006d61000053
:10378c006e6400003a00000044750000747900007b
:10379c00204300006f6d00006d6100006e6400003e
:1037ac003a2000000d0a0000005200006563000082
:1037bc006569000076650000643a00002020000076
:1037cc004d6f0000746f000072200000494400002f
:1037dc00203d000020250000642c00002054000037
:1037ec00686500004475000074790000203d0000fd
:1037fc0020250000306c00005800000052650000cd
:10380c007365000074200000436f00006d6d0000b4
:10381c00616e0000643a0000200000007472000029
:10382c006163000065200000313a0000200d0000ab
:10383c000a00000074720000616300006520000043
:10384c00323a0000205300006574000075700000cf
:10385c00444300004d6f0000746f00007273000051
:10386c000d0a000000740000726100006365000026
:10387c00203400003a200000496e000069740000fa
:10388c00696100006c6900007a650000535000000b
:10389c00495300006c610000766500000d0a0000c1
:1038ac0000740000726100006365000020330000aa
:1038bc003a2000005365000074500000574d000082
:1038cc0043790000636c0000657300000d0a000072
:1038dc000074000072610000636500002035000078
:1038ec003a2000000d0a0000005200006563000041
:1038fc006569000076650000643a000020690000ec
:10390c00203d000020250000642c00002053000006
:10391c00504900005f520000785f000042750000c3
:10392c0066660000657200005b250000645d0000a7
:10393c00203d00002025000030640000200d000018
:04394c000a0000006d
:020000040000fa
:10395000160a000012000000020000000000000033
:103960000000000000000000000000000000000057
:10397000000000004a0a00000600000000000000ed
:10398000500a0000040000000200000000000000d7
:1039900000000000f80900001e0000000200000006
:1039a000000000000000000090010000002c010059
:1039b0000000c80000000000102700000000000008
:1039c000000000000000000050080000fe000000a1
:1039d000000000003a0a0000100000000200000091
:1039e00000000000000000000000000000000000d7
:1039f00000000000000000004e09000088000000e8
:103a000000000000280a0000120000000200000070
:103a10000100020000040000080010000000000087
:103a2000202b2d0023300000540a00000800000065
:103a300002000000686a6c00747a4c00000000000c
:103a4000d6090000220000000200000030313200e0
:103a500033343500363738003961620063646500fd
:103a600066003000313233003435360037383900e3
:103a700041424300444546000000000000000000b1
:020000040000fa
:043a80000000fe0044
:00000001FF
